{
  "contractName": "Charity",
  "abi": [
    {
      "constant": true,
      "inputs": [],
      "name": "STATE",
      "outputs": [
        {
          "name": "",
          "type": "uint8"
        }
      ],
      "payable": false,
      "stateMutability": "view",
      "type": "function"
    },
    {
      "constant": true,
      "inputs": [
        {
          "name": "",
          "type": "address"
        }
      ],
      "name": "donations",
      "outputs": [
        {
          "name": "",
          "type": "uint256"
        }
      ],
      "payable": false,
      "stateMutability": "view",
      "type": "function"
    },
    {
      "inputs": [
        {
          "name": "_name",
          "type": "string"
        },
        {
          "name": "_description",
          "type": "string"
        },
        {
          "name": "_sender",
          "type": "address"
        },
        {
          "name": "_h",
          "type": "address"
        }
      ],
      "payable": false,
      "stateMutability": "nonpayable",
      "type": "constructor"
    },
    {
      "payable": false,
      "stateMutability": "nonpayable",
      "type": "fallback"
    },
    {
      "anonymous": false,
      "inputs": [
        {
          "indexed": false,
          "name": "donator",
          "type": "address"
        },
        {
          "indexed": false,
          "name": "amount",
          "type": "uint256"
        }
      ],
      "name": "DonateEvent",
      "type": "event"
    },
    {
      "anonymous": false,
      "inputs": [
        {
          "indexed": false,
          "name": "withdrawer",
          "type": "address"
        },
        {
          "indexed": false,
          "name": "amount",
          "type": "uint256"
        },
        {
          "indexed": false,
          "name": "reason",
          "type": "string"
        }
      ],
      "name": "WithdrawalEvent",
      "type": "event"
    },
    {
      "constant": true,
      "inputs": [],
      "name": "getAddress",
      "outputs": [
        {
          "name": "",
          "type": "address"
        }
      ],
      "payable": false,
      "stateMutability": "view",
      "type": "function"
    },
    {
      "constant": true,
      "inputs": [],
      "name": "getCharityName",
      "outputs": [
        {
          "name": "",
          "type": "string"
        }
      ],
      "payable": false,
      "stateMutability": "view",
      "type": "function"
    },
    {
      "constant": true,
      "inputs": [],
      "name": "getCharityDescription",
      "outputs": [
        {
          "name": "",
          "type": "string"
        }
      ],
      "payable": false,
      "stateMutability": "view",
      "type": "function"
    },
    {
      "constant": true,
      "inputs": [],
      "name": "getOwner",
      "outputs": [
        {
          "name": "",
          "type": "address"
        }
      ],
      "payable": false,
      "stateMutability": "view",
      "type": "function"
    },
    {
      "constant": true,
      "inputs": [],
      "name": "getMyDonation",
      "outputs": [
        {
          "name": "",
          "type": "uint256"
        }
      ],
      "payable": false,
      "stateMutability": "view",
      "type": "function"
    },
    {
      "constant": true,
      "inputs": [],
      "name": "getCharityBalance",
      "outputs": [
        {
          "name": "",
          "type": "uint256"
        }
      ],
      "payable": false,
      "stateMutability": "view",
      "type": "function"
    },
    {
      "constant": true,
      "inputs": [],
      "name": "getTranscationAmounts",
      "outputs": [
        {
          "name": "",
          "type": "bytes"
        }
      ],
      "payable": false,
      "stateMutability": "view",
      "type": "function"
    },
    {
      "constant": true,
      "inputs": [],
      "name": "getTranscationDescriptions",
      "outputs": [
        {
          "name": "",
          "type": "bytes"
        }
      ],
      "payable": false,
      "stateMutability": "view",
      "type": "function"
    },
    {
      "constant": false,
      "inputs": [
        {
          "name": "amount",
          "type": "uint256"
        },
        {
          "name": "donator",
          "type": "address"
        }
      ],
      "name": "donate",
      "outputs": [
        {
          "name": "",
          "type": "bool"
        }
      ],
      "payable": true,
      "stateMutability": "payable",
      "type": "function"
    },
    {
      "constant": false,
      "inputs": [
        {
          "name": "amount",
          "type": "uint256"
        },
        {
          "name": "reason",
          "type": "string"
        },
        {
          "name": "sender",
          "type": "address"
        }
      ],
      "name": "withdrawl",
      "outputs": [
        {
          "name": "",
          "type": "bool"
        }
      ],
      "payable": false,
      "stateMutability": "nonpayable",
      "type": "function"
    },
    {
      "constant": false,
      "inputs": [
        {
          "name": "amount",
          "type": "uint256"
        },
        {
          "name": "reason",
          "type": "string"
        }
      ],
      "name": "transact",
      "outputs": [],
      "payable": false,
      "stateMutability": "nonpayable",
      "type": "function"
    },
    {
      "constant": false,
      "inputs": [
        {
          "name": "sender",
          "type": "address"
        }
      ],
      "name": "closeCharity",
      "outputs": [],
      "payable": false,
      "stateMutability": "nonpayable",
      "type": "function"
    }
  ],
  "bytecode": "0x60806040523480156200001157600080fd5b5060405162001b1a38038062001b1a8339810180604052810190808051820192919060200180518201929190602001805190602001909291908051906020019092919050505080600960006101000a81548173ffffffffffffffffffffffffffffffffffffffff021916908373ffffffffffffffffffffffffffffffffffffffff1602179055508360009080519060200190620000b09291906200014a565b508260019080519060200190620000c99291906200014a565b5081600360006101000a81548173ffffffffffffffffffffffffffffffffffffffff021916908373ffffffffffffffffffffffffffffffffffffffff160217905550600060028190555060006008819055506000600960146101000a81548160ff021916908360018111156200013b57fe5b021790555050505050620001f9565b828054600181600116156101000203166002900490600052602060002090601f016020900481019282601f106200018d57805160ff1916838001178555620001be565b82800160010185558215620001be579182015b82811115620001bd578251825591602001919060010190620001a0565b5b509050620001cd9190620001d1565b5090565b620001f691905b80821115620001f2576000816000905550600101620001d8565b5090565b90565b61191180620002096000396000f3006080604052600436106100d0576000357c0100000000000000000000000000000000000000000000000000000000900463ffffffff1680630b238961146100df57806310f0d44f1461016f57806325877c09146101ff578063365fd9821461027257806338cc48311461029d57806344b7eda1146102f457806379833e521461031f5780637d57de8c146103af5780638004f9fa146103f2578063893d20e81461044a578063c486456c146104a1578063cb13dd2c146104da578063cc6cb19a1461056a578063f9b11db7146105c1575b3480156100dc57600080fd5b50005b3480156100eb57600080fd5b506100f461066c565b6040518080602001828103825283818151815260200191508051906020019080838360005b83811015610134578082015181840152602081019050610119565b50505050905090810190601f1680156101615780820380516001836020036101000a031916815260200191505b509250505060405180910390f35b34801561017b57600080fd5b5061018461070e565b6040518080602001828103825283818151815260200191508051906020019080838360005b838110156101c45780820151818401526020810190506101a9565b50505050905090810190601f1680156101f15780820380516001836020036101000a031916815260200191505b509250505060405180910390f35b34801561020b57600080fd5b5061027060048036038101908080359060200190929190803590602001908201803590602001908080601f01602080910402602001604051908101604052809392919081815260200183838082843782019150505050505091929192905050506107b0565b005b34801561027e57600080fd5b50610287610965565b6040518082815260200191505060405180910390f35b3480156102a957600080fd5b506102b26109ac565b604051808273ffffffffffffffffffffffffffffffffffffffff1673ffffffffffffffffffffffffffffffffffffffff16815260200191505060405180910390f35b34801561030057600080fd5b506103096109b4565b6040518082815260200191505060405180910390f35b34801561032b57600080fd5b506103346109be565b6040518080602001828103825283818151815260200191508051906020019080838360005b83811015610374578082015181840152602081019050610359565b50505050905090810190601f1680156103a15780820380516001836020036101000a031916815260200191505b509250505060405180910390f35b3480156103bb57600080fd5b506103f0600480360381019080803573ffffffffffffffffffffffffffffffffffffffff169060200190929190505050610a60565b005b61043060048036038101908080359060200190929190803573ffffffffffffffffffffffffffffffffffffffff169060200190929190505050610ae5565b604051808215151515815260200191505060405180910390f35b34801561045657600080fd5b5061045f610e79565b604051808273ffffffffffffffffffffffffffffffffffffffff1673ffffffffffffffffffffffffffffffffffffffff16815260200191505060405180910390f35b3480156104ad57600080fd5b506104b6610ea3565b604051808260018111156104c657fe5b60ff16815260200191505060405180910390f35b3480156104e657600080fd5b506104ef610eb6565b6040518080602001828103825283818151815260200191508051906020019080838360005b8381101561052f578082015181840152602081019050610514565b50505050905090810190601f16801561055c5780820380516001836020036101000a031916815260200191505b509250505060405180910390f35b34801561057657600080fd5b506105ab600480360381019080803573ffffffffffffffffffffffffffffffffffffffff169060200190929190505050610f58565b6040518082815260200191505060405180910390f35b3480156105cd57600080fd5b5061065260048036038101908080359060200190929190803590602001908201803590602001908080601f0160208091040260200160405190810160405280939291908181526020018383808284378201915050505050509192919290803573ffffffffffffffffffffffffffffffffffffffff169060200190929190505050610f70565b604051808215151515815260200191505060405180910390f35b606060018054600181600116156101000203166002900480601f0160208091040260200160405190810160405280929190818152602001828054600181600116156101000203166002900480156107045780601f106106d957610100808354040283529160200191610704565b820191906000526020600020905b8154815290600101906020018083116106e757829003601f168201915b5050505050905090565b606060008054600181600116156101000203166002900480601f0160208091040260200160405190810160405280929190818152602001828054600181600116156101000203166002900480156107a65780601f1061077b576101008083540402835291602001916107a6565b820191906000526020600020905b81548152906001019060200180831161078957829003601f168201915b5050505050905090565b6006600960009054906101000a900473ffffffffffffffffffffffffffffffffffffffff1673ffffffffffffffffffffffffffffffffffffffff1663f76f950e846040518263ffffffff167c010000000000000000000000000000000000000000000000000000000002815260040180828152602001915050600060405180830381600087803b15801561084357600080fd5b505af1158015610857573d6000803e3d6000fd5b505050506040513d6000823e3d601f19601f82011682018060405250602081101561088157600080fd5b81019080805164010000000081111561089957600080fd5b828101905060208101848111156108af57600080fd5b81518560018202830111640100000000821117156108cc57600080fd5b5050929190505050908060018154018082558091505090600182039060005260206000200160009091929091909150908051906020019061090e929190611840565b5050600781908060018154018082558091505090600182039060005260206000200160009091929091909150908051906020019061094d929190611840565b50506008600081548092919060010191905055505050565b6000600560003373ffffffffffffffffffffffffffffffffffffffff1673ffffffffffffffffffffffffffffffffffffffff16815260200190815260200160002054905090565b600030905090565b6000600254905090565b60606000600854111515610a1457610a0d6000806040805190810160405280601781526020017f7472616e73616374696f6e4465736372697074696f6e73000000000000000000815250611115565b9050610a5d565b610a5a60006001600854036040805190810160405280601781526020017f7472616e73616374696f6e4465736372697074696f6e73000000000000000000815250611115565b90505b90565b80600360009054906101000a900473ffffffffffffffffffffffffffffffffffffffff1673ffffffffffffffffffffffffffffffffffffffff168173ffffffffffffffffffffffffffffffffffffffff16141515610abd57600080fd5b6001600960146101000a81548160ff02191690836001811115610adc57fe5b02179055505050565b600080600960149054906101000a900460ff166001811115610b0357fe5b60006001811115610b1057fe5b141515610b1c57600080fd5b83600560008573ffffffffffffffffffffffffffffffffffffffff1673ffffffffffffffffffffffffffffffffffffffff168152602001908152602001600020540190506000600560008573ffffffffffffffffffffffffffffffffffffffff1673ffffffffffffffffffffffffffffffffffffffff168152602001908152602001600020541115610bf15780600560008573ffffffffffffffffffffffffffffffffffffffff1673ffffffffffffffffffffffffffffffffffffffff16815260200190815260200160002081905550610c9c565b80600560008573ffffffffffffffffffffffffffffffffffffffff1673ffffffffffffffffffffffffffffffffffffffff1681526020019081526020016000208190555060048390806001815401808255809150509060018203906000526020600020016000909192909190916101000a81548173ffffffffffffffffffffffffffffffffffffffff021916908373ffffffffffffffffffffffffffffffffffffffff160217905550505b83600260008282540192505081905550610e0384600960009054906101000a900473ffffffffffffffffffffffffffffffffffffffff1673ffffffffffffffffffffffffffffffffffffffff16632c6e7598866040518263ffffffff167c0100000000000000000000000000000000000000000000000000000000028152600401808273ffffffffffffffffffffffffffffffffffffffff1673ffffffffffffffffffffffffffffffffffffffff168152602001915050600060405180830381600087803b158015610d6d57600080fd5b505af1158015610d81573d6000803e3d6000fd5b505050506040513d6000823e3d601f19601f820116820180604052506020811015610dab57600080fd5b810190808051640100000000811115610dc357600080fd5b82810190506020810184811115610dd957600080fd5b8151856001820283011164010000000082111715610df657600080fd5b50509291905050506107b0565b7f4a738e144fcebc2a2453dde8472c2fe125988d7508d635d71a45886efcf500063334604051808373ffffffffffffffffffffffffffffffffffffffff1673ffffffffffffffffffffffffffffffffffffffff1681526020018281526020019250505060405180910390a1600191505092915050565b6000600360009054906101000a900473ffffffffffffffffffffffffffffffffffffffff16905090565b600960149054906101000a900460ff1681565b60606000600854111515610f0c57610f056000806040805190810160405280601281526020017f7472616e73616374696f6e416d6f756e74730000000000000000000000000000815250611115565b9050610f55565b610f5260006001600854036040805190810160405280601281526020017f7472616e73616374696f6e416d6f756e74730000000000000000000000000000815250611115565b90505b90565b60056020528060005260406000206000915090505481565b600081600360009054906101000a900473ffffffffffffffffffffffffffffffffffffffff1673ffffffffffffffffffffffffffffffffffffffff168173ffffffffffffffffffffffffffffffffffffffff16141515610fcf57600080fd5b8460025410151515610fe057600080fd5b610fea85856107b0565b3373ffffffffffffffffffffffffffffffffffffffff166108fc869081150290604051600060405180830381858888f19350505050158015611030573d6000803e3d6000fd5b507fe06a6d1c7f674346f19f69fd037afee6c37e69d5b2dbd7b436526737169c0507338686604051808473ffffffffffffffffffffffffffffffffffffffff1673ffffffffffffffffffffffffffffffffffffffff16815260200183815260200180602001828103825283818151815260200191508051906020019080838360005b838110156110cd5780820151818401526020810190506110b2565b50505050905090810190601f1680156110fa5780820380516001836020036101000a031916815260200191505b5094505050505060405180910390a160019150509392505050565b6060600080606080600060069450600960009054906101000a900473ffffffffffffffffffffffffffffffffffffffff1673ffffffffffffffffffffffffffffffffffffffff1663bed34bba886040518263ffffffff167c0100000000000000000000000000000000000000000000000000000000028152600401808060200180602001838103835284818151815260200191508051906020019080838360005b838110156111d15780820151818401526020810190506111b6565b50505050905090810190601f1680156111fe5780820380516001836020036101000a031916815260200191505b50838103825260128152602001807f7472616e73616374696f6e416d6f756e747300000000000000000000000000008152506020019350505050602060405180830381600087803b15801561125257600080fd5b505af1158015611266573d6000803e3d6000fd5b505050506040513d602081101561127c57600080fd5b81019080805190602001909291905050501561129757600694505b600960009054906101000a900473ffffffffffffffffffffffffffffffffffffffff1673ffffffffffffffffffffffffffffffffffffffff1663bed34bba886040518263ffffffff167c0100000000000000000000000000000000000000000000000000000000028152600401808060200180602001838103835284818151815260200191508051906020019080838360005b8381101561134557808201518184015260208101905061132a565b50505050905090810190601f1680156113725780820380516001836020036101000a031916815260200191505b50838103825260178152602001807f7472616e73616374696f6e4465736372697074696f6e730000000000000000008152506020019350505050602060405180830381600087803b1580156113c657600080fd5b505af11580156113da573d6000803e3d6000fd5b505050506040513d60208110156113f057600080fd5b81019080805190602001909291905050501561140b57600794505b88881015151561141a57600080fd5b600185805490500388111561143457600185805490500397505b6001898903016040029350836040519080825280601f01601f1916602001820160405280156114725781602001602082028038833980820191505090505b50925060206040519080825280601f01601f1916602001820160405280156114a95781602001602082028038833980820191505090505b5091508890505b87811115156118315784818154811015156114c757fe5b906000526020600020018054600181600116156101000203166002900480601f0160208091040260200160405190810160405280929190818152602001828054600181600116156101000203166002900480156115655780601f1061153a57610100808354040283529160200191611565565b820191906000526020600020905b81548152906001019060200180831161154857829003601f168201915b50505050509150600960009054906101000a900473ffffffffffffffffffffffffffffffffffffffff1673ffffffffffffffffffffffffffffffffffffffff1663917a781f8584866040518463ffffffff167c0100000000000000000000000000000000000000000000000000000000028152600401808481526020018060200180602001838103835285818151815260200191508051906020019080838360005b83811015611622578082015181840152602081019050611607565b50505050905090810190601f16801561164f5780820380516001836020036101000a031916815260200191505b50838103825284818151815260200191508051906020019080838360005b8381101561168857808201518184015260208101905061166d565b50505050905090810190601f1680156116b55780820380516001836020036101000a031916815260200191505b5095505050505050600060405180830381600087803b1580156116d757600080fd5b505af11580156116eb573d6000803e3d6000fd5b50505050600960009054906101000a900473ffffffffffffffffffffffffffffffffffffffff1673ffffffffffffffffffffffffffffffffffffffff1663a5847862836040518263ffffffff167c01000000000000000000000000000000000000000000000000000000000281526004018080602001828103825283818151815260200191508051906020019080838360005b8381101561179957808201518184015260208101905061177e565b50505050905090810190601f1680156117c65780820380516001836020036101000a031916815260200191505b5092505050602060405180830381600087803b1580156117e557600080fd5b505af11580156117f9573d6000803e3d6000fd5b505050506040513d602081101561180f57600080fd5b81019080805190602001909291905050508403935080806001019150506114b0565b82955050505050509392505050565b828054600181600116156101000203166002900490600052602060002090601f016020900481019282601f1061188157805160ff19168380011785556118af565b828001600101855582156118af579182015b828111156118ae578251825591602001919060010190611893565b5b5090506118bc91906118c0565b5090565b6118e291905b808211156118de5760008160009055506001016118c6565b5090565b905600a165627a7a72305820b6af3aa4d10eea574575200dffcae29da1a2446358dc1a42e6480640ed6cc0a90029",
  "source": "pragma solidity ^0.4.25;\n\nimport './Helpers.sol';\n\ncontract Charity {\n\tstring name;\n\tstring description;\n\tuint balance; //TODO make this able to store decimals\n\taddress owner;\n\taddress[] donators;\n\tmapping(address => uint) public donations;\n\tstring[] transactionAmounts;\n\tstring[] transactionDescriptions;\n\tuint transactionCount;\n\tHelpers h;\n\n\tenum charity_state {\n\t\tSTARTED, FINISHED\n\t}\n\tcharity_state public STATE;\n\n\n\t// ------------------------ Modifiers ------------------------ //\n\tmodifier ongoing(){\n\t\trequire(charity_state.STARTED == STATE);\n\t\t_;\n\t}\n\n\tmodifier only_owner(address _sender){\n\t\trequire(_sender == owner);\n\t\t_;\n\t}\n\n\t// ------------------------ EVENTS ------------------------ //\n\tevent DonateEvent(address donator, uint amount);\n\tevent WithdrawalEvent(address withdrawer, uint256 amount, string reason);\n\n\tfunction() public {\n\t\t// Callback\n\t}\n\n\tconstructor(string _name, string _description, address _sender, Helpers _h) public {\n\t\th = _h;\n\t\tname = _name;\n\t\tdescription = _description;\n\t\towner = _sender;\n\t\tbalance = 0;\n\t\ttransactionCount = 0;\n\t\tSTATE = charity_state.STARTED;\n\t}\n\n\t// ------------------------ GETTERS ------------------------ //\n\tfunction getAddress() public view returns (address) {\n\t\treturn address(this);\n\t}\n\n\tfunction getCharityName() public view returns (string) {\n\t\treturn name;\n\t}\n\n\tfunction getCharityDescription() public view returns (string) {\n\t\treturn description;\n\t}\n\n\tfunction getOwner() public view returns (address) {\n\t\treturn owner;\n\t}\n\n\tfunction getMyDonation() public view returns (uint) {\n\t\treturn donations[msg.sender];\n\t}\n\n\tfunction getCharityBalance() public view returns (uint) {\n\t\treturn balance;\n\t}\n\n\tfunction getTranscationAmounts() public view returns (bytes) {\n\t\tif (transactionCount <= 0) {\n\t\t\treturn getBytesOfArray(0, 0, \"transactionAmounts\");\n\t\t} else {\n\t\t\treturn getBytesOfArray(0, transactionCount - 1, \"transactionAmounts\");\n\t\t}\n\t}\n\n\tfunction getTranscationDescriptions() public view returns (bytes) {\n\t\tif (transactionCount <= 0) {\n\t\t\treturn getBytesOfArray(0, 0, \"transactionDescriptions\");\n\t\t} else {\n\t\t\treturn getBytesOfArray(0, transactionCount - 1, \"transactionDescriptions\");\n\t\t}\n\t}\n\n\t// ------------------------ ACTIONS ------------------------ //\n\n\tfunction donate(uint amount, address donator) public payable ongoing returns (bool) {\n\t\tuint current = donations[donator] + amount;\n\t\tif (donations[donator] > 0) {\n\t\t\tdonations[donator] = current;\n\t\t} else {\n\t\t\tdonations[donator] = current;\n\t\t\tdonators.push(donator);\n\t\t}\n\t\tbalance += amount;\n\n\t\ttransact(amount, h.toAsciiString(donator));\n\n\n\t\temit DonateEvent(msg.sender, msg.value);\n\n\t\treturn true;\n\t}\n\n\tfunction withdrawl(uint amount, string reason, address sender) public only_owner(sender) returns (bool) {\n\t\trequire(balance >= amount);\n\t\ttransact(amount, reason);\n\t\tmsg.sender.transfer(amount);\n\t\temit WithdrawalEvent(msg.sender, amount, reason);\n\t\treturn true;\n\t}\n\n\tfunction transact(uint amount, string reason) public {\n\t\ttransactionAmounts.push(h.uint2str(amount));\n\t\ttransactionDescriptions.push(reason);\n\t\ttransactionCount++;\n\t}\n\n\tfunction closeCharity(address sender) public only_owner(sender) {\n\t\tSTATE = charity_state.FINISHED;\n\t}\n\n\t// Convert string array to bytes (modified from https://hackernoon.com/serializing-string-arrays-in-solidity-db4b6037e520)\n\tfunction getBytesOfArray(uint startindex, uint endindex, string arrayName) private view returns (bytes serialized){\n\t\tstring[] storage array = transactionAmounts;\n\t\tif (h.compareStrings(arrayName, \"transactionAmounts\")) {\n\t\t\tarray = transactionAmounts;\n\t\t}\n\t\tif (h.compareStrings(arrayName, \"transactionDescriptions\")) {\n\t\t\tarray = transactionDescriptions;\n\t\t}\n\n\t\trequire(endindex >= startindex);\n\n\t\tif (endindex > (array.length - 1)) {\n\t\t\tendindex = array.length - 1;\n\t\t}\n\n\t\t//64 byte is needed for safe storage of a single string.\n\t\t//((endindex - startindex) + 1) is the number of strings we want to pull out.\n\t\tuint offset = 64 * ((endindex - startindex) + 1);\n\n\t\tbytes memory buffer = new  bytes(offset);\n\t\tstring memory out1 = new string(32);\n\n\n\t\tfor (uint i = startindex; i <= endindex; i++) {\n\t\t\tout1 = array[i];\n\n\t\t\th.stringToBytes(offset, bytes(out1), buffer);\n\t\t\toffset -= h.sizeOfString(out1);\n\t\t}\n\n\t\treturn (buffer);\n\t}\n}",
  "sourcePath": "/Users/clairegoldstein/CODE/CS481a3-BlockChain/Final_project/Charity-Blockchain2c/ethereum/contracts/Charity.sol",
  "compiler": {
    "name": "solc",
    "version": "0.4.25+commit.59dbf8f1.Emscripten.clang"
  },
  "schemaVersion": "3.0.6",
  "updatedAt": "2019-04-14T22:29:46.543Z",
  "devdoc": {
    "methods": {}
  },
  "userdoc": {
    "methods": {}
  }
}