{
  "contractName": "Charity2",
  "abi": [
    {
      "constant": true,
      "inputs": [],
      "name": "STATE",
      "outputs": [
        {
          "name": "",
          "type": "uint8"
        }
      ],
      "payable": false,
      "stateMutability": "view",
      "type": "function",
      "signature": "0xc486456c"
    },
    {
      "constant": true,
      "inputs": [
        {
          "name": "",
          "type": "address"
        }
      ],
      "name": "donations",
      "outputs": [
        {
          "name": "",
          "type": "uint256"
        }
      ],
      "payable": false,
      "stateMutability": "view",
      "type": "function",
      "signature": "0xcc6cb19a"
    },
    {
      "inputs": [
        {
          "name": "_name",
          "type": "string"
        },
        {
          "name": "_description",
          "type": "string"
        }
      ],
      "payable": false,
      "stateMutability": "nonpayable",
      "type": "constructor",
      "signature": "constructor"
    },
    {
      "payable": false,
      "stateMutability": "nonpayable",
      "type": "fallback"
    },
    {
      "anonymous": false,
      "inputs": [
        {
          "indexed": false,
          "name": "donator",
          "type": "address"
        },
        {
          "indexed": false,
          "name": "amount",
          "type": "uint256"
        }
      ],
      "name": "DonateEvent",
      "type": "event",
      "signature": "0x4a738e144fcebc2a2453dde8472c2fe125988d7508d635d71a45886efcf50006"
    },
    {
      "anonymous": false,
      "inputs": [
        {
          "indexed": false,
          "name": "withdrawer",
          "type": "address"
        },
        {
          "indexed": false,
          "name": "amount",
          "type": "uint256"
        },
        {
          "indexed": false,
          "name": "reason",
          "type": "string"
        }
      ],
      "name": "WithdrawalEvent",
      "type": "event",
      "signature": "0xe06a6d1c7f674346f19f69fd037afee6c37e69d5b2dbd7b436526737169c0507"
    },
    {
      "constant": true,
      "inputs": [],
      "name": "getAddress",
      "outputs": [
        {
          "name": "",
          "type": "address"
        }
      ],
      "payable": false,
      "stateMutability": "view",
      "type": "function",
      "signature": "0x38cc4831"
    },
    {
      "constant": true,
      "inputs": [],
      "name": "getCharityName",
      "outputs": [
        {
          "name": "",
          "type": "string"
        }
      ],
      "payable": false,
      "stateMutability": "view",
      "type": "function",
      "signature": "0x10f0d44f"
    },
    {
      "constant": true,
      "inputs": [],
      "name": "getCharityDescription",
      "outputs": [
        {
          "name": "",
          "type": "string"
        }
      ],
      "payable": false,
      "stateMutability": "view",
      "type": "function",
      "signature": "0x0b238961"
    },
    {
      "constant": true,
      "inputs": [],
      "name": "getOwner",
      "outputs": [
        {
          "name": "",
          "type": "address"
        }
      ],
      "payable": false,
      "stateMutability": "view",
      "type": "function",
      "signature": "0x893d20e8"
    },
    {
      "constant": true,
      "inputs": [],
      "name": "getMyDonation",
      "outputs": [
        {
          "name": "",
          "type": "uint256"
        }
      ],
      "payable": false,
      "stateMutability": "view",
      "type": "function",
      "signature": "0x365fd982"
    },
    {
      "constant": true,
      "inputs": [],
      "name": "getCharityBalance",
      "outputs": [
        {
          "name": "",
          "type": "uint256"
        }
      ],
      "payable": false,
      "stateMutability": "view",
      "type": "function",
      "signature": "0x44b7eda1"
    },
    {
      "constant": true,
      "inputs": [],
      "name": "getTranscationAmounts",
      "outputs": [
        {
          "name": "",
          "type": "bytes"
        }
      ],
      "payable": false,
      "stateMutability": "view",
      "type": "function",
      "signature": "0xcb13dd2c"
    },
    {
      "constant": true,
      "inputs": [],
      "name": "getTranscationDescriptions",
      "outputs": [
        {
          "name": "",
          "type": "bytes"
        }
      ],
      "payable": false,
      "stateMutability": "view",
      "type": "function",
      "signature": "0x79833e52"
    },
    {
      "constant": false,
      "inputs": [
        {
          "name": "amount",
          "type": "uint256"
        }
      ],
      "name": "donate",
      "outputs": [
        {
          "name": "",
          "type": "bool"
        }
      ],
      "payable": true,
      "stateMutability": "payable",
      "type": "function",
      "signature": "0xed88c68e"
    },
    {
      "constant": false,
      "inputs": [
        {
          "name": "amount",
          "type": "uint256"
        },
        {
          "name": "reason",
          "type": "string"
        },
        {
          "name": "sender",
          "type": "address"
        }
      ],
      "name": "withdrawl",
      "outputs": [
        {
          "name": "",
          "type": "bool"
        }
      ],
      "payable": false,
      "stateMutability": "nonpayable",
      "type": "function",
      "signature": "0xf9b11db7"
    },
    {
      "constant": false,
      "inputs": [
        {
          "name": "amount",
          "type": "uint256"
        },
        {
          "name": "reason",
          "type": "string"
        }
      ],
      "name": "transact",
      "outputs": [],
      "payable": false,
      "stateMutability": "nonpayable",
      "type": "function",
      "signature": "0x25877c09"
    },
    {
      "constant": false,
      "inputs": [
        {
          "name": "sender",
          "type": "address"
        }
      ],
      "name": "closeCharity",
      "outputs": [],
      "payable": false,
      "stateMutability": "nonpayable",
      "type": "function",
      "signature": "0x7d57de8c"
    },
    {
      "constant": true,
      "inputs": [
        {
          "name": "i",
          "type": "uint256"
        }
      ],
      "name": "uint2str",
      "outputs": [
        {
          "name": "",
          "type": "string"
        }
      ],
      "payable": false,
      "stateMutability": "pure",
      "type": "function",
      "signature": "0xf76f950e"
    },
    {
      "constant": true,
      "inputs": [
        {
          "name": "_in",
          "type": "string"
        }
      ],
      "name": "sizeOfString",
      "outputs": [
        {
          "name": "_size",
          "type": "uint256"
        }
      ],
      "payable": false,
      "stateMutability": "pure",
      "type": "function",
      "signature": "0xa5847862"
    },
    {
      "constant": true,
      "inputs": [
        {
          "name": "_offst",
          "type": "uint256"
        },
        {
          "name": "_input",
          "type": "bytes"
        },
        {
          "name": "_output",
          "type": "bytes"
        }
      ],
      "name": "stringToBytes",
      "outputs": [],
      "payable": false,
      "stateMutability": "pure",
      "type": "function",
      "signature": "0x917a781f"
    },
    {
      "constant": true,
      "inputs": [
        {
          "name": "a",
          "type": "string"
        },
        {
          "name": "b",
          "type": "string"
        }
      ],
      "name": "compareStrings",
      "outputs": [
        {
          "name": "",
          "type": "bool"
        }
      ],
      "payable": false,
      "stateMutability": "pure",
      "type": "function",
      "signature": "0xbed34bba"
    },
    {
      "constant": true,
      "inputs": [
        {
          "name": "x",
          "type": "address"
        }
      ],
      "name": "toAsciiString",
      "outputs": [
        {
          "name": "",
          "type": "string"
        }
      ],
      "payable": false,
      "stateMutability": "pure",
      "type": "function",
      "signature": "0x2c6e7598"
    },
    {
      "constant": true,
      "inputs": [
        {
          "name": "b",
          "type": "bytes1"
        }
      ],
      "name": "char",
      "outputs": [
        {
          "name": "c",
          "type": "bytes1"
        }
      ],
      "payable": false,
      "stateMutability": "pure",
      "type": "function",
      "signature": "0x69f9ad2f"
    },
    {
      "constant": true,
      "inputs": [
        {
          "name": "a",
          "type": "string"
        },
        {
          "name": "b",
          "type": "string"
        },
        {
          "name": "c",
          "type": "string"
        }
      ],
      "name": "strConcat",
      "outputs": [
        {
          "name": "",
          "type": "string"
        }
      ],
      "payable": false,
      "stateMutability": "pure",
      "type": "function",
      "signature": "0x4112987c"
    }
  ],
  "bytecode": "0x60806040523480156200001157600080fd5b5060405162002255380380620022558339810180604052810190808051820192919060200180518201929190505050816000908051906020019062000058929190620000f0565b50806001908051906020019062000071929190620000f0565b5033600360006101000a81548173ffffffffffffffffffffffffffffffffffffffff021916908373ffffffffffffffffffffffffffffffffffffffff160217905550600060028190555060006008819055506000600960006101000a81548160ff02191690836001811115620000e357fe5b021790555050506200019f565b828054600181600116156101000203166002900490600052602060002090601f016020900481019282601f106200013357805160ff191683800117855562000164565b8280016001018555821562000164579182015b828111156200016357825182559160200191906001019062000146565b5b50905062000173919062000177565b5090565b6200019c91905b80821115620001985760008160009055506001016200017e565b5090565b90565b6120a680620001af6000396000f30060806040526004361061011d576000357c0100000000000000000000000000000000000000000000000000000000900463ffffffff1680630b2389611461012c57806310f0d44f146101bc57806325877c091461024c5780632c6e7598146102bf578063365fd9821461037b57806338cc4831146103a65780634112987c146103fd57806344b7eda11461056b57806369f9ad2f1461059657806379833e521461063d5780637d57de8c146106cd578063893d20e814610710578063917a781f14610767578063a584786214610820578063bed34bba1461089d578063c486456c14610964578063cb13dd2c1461099d578063cc6cb19a14610a2d578063f14faf6f14610a84578063f76f950e14610abc578063f9b11db714610b62575b34801561012957600080fd5b50005b34801561013857600080fd5b50610141610c0d565b6040518080602001828103825283818151815260200191508051906020019080838360005b83811015610181578082015181840152602081019050610166565b50505050905090810190601f1680156101ae5780820380516001836020036101000a031916815260200191505b509250505060405180910390f35b3480156101c857600080fd5b506101d1610caf565b6040518080602001828103825283818151815260200191508051906020019080838360005b838110156102115780820151818401526020810190506101f6565b50505050905090810190601f16801561023e5780820380516001836020036101000a031916815260200191505b509250505060405180910390f35b34801561025857600080fd5b506102bd60048036038101908080359060200190929190803590602001908201803590602001908080601f0160208091040260200160405190810160405280939291908181526020018383808284378201915050505050509192919290505050610d51565b005b3480156102cb57600080fd5b50610300600480360381019080803573ffffffffffffffffffffffffffffffffffffffff169060200190929190505050610ded565b6040518080602001828103825283818151815260200191508051906020019080838360005b83811015610340578082015181840152602081019050610325565b50505050905090810190601f16801561036d5780820380516001836020036101000a031916815260200191505b509250505060405180910390f35b34801561038757600080fd5b50610390611002565b6040518082815260200191505060405180910390f35b3480156103b257600080fd5b506103bb611049565b604051808273ffffffffffffffffffffffffffffffffffffffff1673ffffffffffffffffffffffffffffffffffffffff16815260200191505060405180910390f35b34801561040957600080fd5b506104f0600480360381019080803590602001908201803590602001908080601f0160208091040260200160405190810160405280939291908181526020018383808284378201915050505050509192919290803590602001908201803590602001908080601f0160208091040260200160405190810160405280939291908181526020018383808284378201915050505050509192919290803590602001908201803590602001908080601f0160208091040260200160405190810160405280939291908181526020018383808284378201915050505050509192919290505050611051565b6040518080602001828103825283818151815260200191508051906020019080838360005b83811015610530578082015181840152602081019050610515565b50505050905090810190601f16801561055d5780820380516001836020036101000a031916815260200191505b509250505060405180910390f35b34801561057757600080fd5b506105806112e3565b6040518082815260200191505060405180910390f35b3480156105a257600080fd5b506105e360048036038101908080357effffffffffffffffffffffffffffffffffffffffffffffffffffffffffffff191690602001909291905050506112ed565b60405180827effffffffffffffffffffffffffffffffffffffffffffffffffffffffffffff19167effffffffffffffffffffffffffffffffffffffffffffffffffffffffffffff1916815260200191505060405180910390f35b34801561064957600080fd5b506106526113dd565b6040518080602001828103825283818151815260200191508051906020019080838360005b83811015610692578082015181840152602081019050610677565b50505050905090810190601f1680156106bf5780820380516001836020036101000a031916815260200191505b509250505060405180910390f35b3480156106d957600080fd5b5061070e600480360381019080803573ffffffffffffffffffffffffffffffffffffffff16906020019092919050505061147f565b005b34801561071c57600080fd5b50610725611504565b604051808273ffffffffffffffffffffffffffffffffffffffff1673ffffffffffffffffffffffffffffffffffffffff16815260200191505060405180910390f35b34801561077357600080fd5b5061081e60048036038101908080359060200190929190803590602001908201803590602001908080601f0160208091040260200160405190810160405280939291908181526020018383808284378201915050505050509192919290803590602001908201803590602001908080601f016020809104026020016040519081016040528093929190818152602001838380828437820191505050505050919291929050505061152e565b005b34801561082c57600080fd5b50610887600480360381019080803590602001908201803590602001908080601f0160208091040260200160405190810160405280939291908181526020018383808284378201915050505050509192919290505050611593565b6040518082815260200191505060405180910390f35b3480156108a957600080fd5b5061094a600480360381019080803590602001908201803590602001908080601f0160208091040260200160405190810160405280939291908181526020018383808284378201915050505050509192919290803590602001908201803590602001908080601f01602080910402602001604051908101604052809392919081815260200183838082843782019150505050505091929192905050506115d8565b604051808215151515815260200191505060405180910390f35b34801561097057600080fd5b50610979611789565b6040518082600181111561098957fe5b60ff16815260200191505060405180910390f35b3480156109a957600080fd5b506109b261179c565b6040518080602001828103825283818151815260200191508051906020019080838360005b838110156109f25780820151818401526020810190506109d7565b50505050905090810190601f168015610a1f5780820380516001836020036101000a031916815260200191505b509250505060405180910390f35b348015610a3957600080fd5b50610a6e600480360381019080803573ffffffffffffffffffffffffffffffffffffffff16906020019092919050505061183e565b6040518082815260200191505060405180910390f35b610aa260048036038101908080359060200190929190505050611856565b604051808215151515815260200191505060405180910390f35b348015610ac857600080fd5b50610ae760048036038101908080359060200190929190505050611aa4565b6040518080602001828103825283818151815260200191508051906020019080838360005b83811015610b27578082015181840152602081019050610b0c565b50505050905090810190601f168015610b545780820380516001836020036101000a031916815260200191505b509250505060405180910390f35b348015610b6e57600080fd5b50610bf360048036038101908080359060200190929190803590602001908201803590602001908080601f0160208091040260200160405190810160405280939291908181526020018383808284378201915050505050509192919290803573ffffffffffffffffffffffffffffffffffffffff169060200190929190505050611bfb565b604051808215151515815260200191505060405180910390f35b606060018054600181600116156101000203166002900480601f016020809104026020016040519081016040528092919081815260200182805460018160011615610100020316600290048015610ca55780601f10610c7a57610100808354040283529160200191610ca5565b820191906000526020600020905b815481529060010190602001808311610c8857829003601f168201915b5050505050905090565b606060008054600181600116156101000203166002900480601f016020809104026020016040519081016040528092919081815260200182805460018160011615610100020316600290048015610d475780601f10610d1c57610100808354040283529160200191610d47565b820191906000526020600020905b815481529060010190602001808311610d2a57829003601f168201915b5050505050905090565b6006610d5c83611aa4565b9080600181540180825580915050906001820390600052602060002001600090919290919091509080519060200190610d96929190611fd5565b50506007819080600181540180825580915050906001820390600052602060002001600090919290919091509080519060200190610dd5929190611fd5565b50506008600081548092919060010191905055505050565b60608060008060008060286040519080825280601f01601f191660200182016040528015610e2a5781602001602082028038833980820191505090505b509450600093505b6014841015610ff5578360130360080260020a8773ffffffffffffffffffffffffffffffffffffffff16811515610e6557fe5b047f01000000000000000000000000000000000000000000000000000000000000000292506010837f0100000000000000000000000000000000000000000000000000000000000000900460ff16811515610ebc57fe5b047f0100000000000000000000000000000000000000000000000000000000000000029150817f01000000000000000000000000000000000000000000000000000000000000009004601002837f01000000000000000000000000000000000000000000000000000000000000009004037f0100000000000000000000000000000000000000000000000000000000000000029050610f5a826112ed565b8585600202815181101515610f6b57fe5b9060200101907effffffffffffffffffffffffffffffffffffffffffffffffffffffffffffff1916908160001a905350610fa4816112ed565b8560018660020201815181101515610fb857fe5b9060200101907effffffffffffffffffffffffffffffffffffffffffffffffffffffffffffff1916908160001a9053508380600101945050610e32565b8495505050505050919050565b6000600560003373ffffffffffffffffffffffffffffffffffffffff1673ffffffffffffffffffffffffffffffffffffffff16815260200190815260200160002054905090565b600030905090565b6060806060806060806000808a965089955088945084518651885101016040519080825280601f01601f1916602001820160405280156110a05781602001602082028038833980820191505090505b50935083925060009150600090505b86518110156111625786818151811015156110c657fe5b9060200101517f010000000000000000000000000000000000000000000000000000000000000090047f010000000000000000000000000000000000000000000000000000000000000002838380600101945081518110151561112557fe5b9060200101907effffffffffffffffffffffffffffffffffffffffffffffffffffffffffffff1916908160001a90535080806001019150506110af565b600090505b855181101561121a57858181518110151561117e57fe5b9060200101517f010000000000000000000000000000000000000000000000000000000000000090047f01000000000000000000000000000000000000000000000000000000000000000283838060010194508151811015156111dd57fe5b9060200101907effffffffffffffffffffffffffffffffffffffffffffffffffffffffffffff1916908160001a9053508080600101915050611167565b600090505b84518110156112d257848181518110151561123657fe5b9060200101517f010000000000000000000000000000000000000000000000000000000000000090047f010000000000000000000000000000000000000000000000000000000000000002838380600101945081518110151561129557fe5b9060200101907effffffffffffffffffffffffffffffffffffffffffffffffffffffffffffff1916908160001a905350808060010191505061121f565b829750505050505050509392505050565b6000600254905090565b6000600a7f010000000000000000000000000000000000000000000000000000000000000002827effffffffffffffffffffffffffffffffffffffffffffffffffffffffffffff1916101561138c576030827f01000000000000000000000000000000000000000000000000000000000000009004017f01000000000000000000000000000000000000000000000000000000000000000290506113d8565b6057827f01000000000000000000000000000000000000000000000000000000000000009004017f01000000000000000000000000000000000000000000000000000000000000000290505b919050565b606060006008541115156114335761142c6000806040805190810160405280601781526020017f7472616e73616374696f6e4465736372697074696f6e73000000000000000000815250611da0565b905061147c565b61147960006001600854036040805190810160405280601781526020017f7472616e73616374696f6e4465736372697074696f6e73000000000000000000815250611da0565b90505b90565b80600360009054906101000a900473ffffffffffffffffffffffffffffffffffffffff1673ffffffffffffffffffffffffffffffffffffffff168173ffffffffffffffffffffffffffffffffffffffff161415156114dc57600080fd5b6001600960006101000a81548160ff021916908360018111156114fb57fe5b02179055505050565b6000600360009054906101000a900473ffffffffffffffffffffffffffffffffffffffff16905090565b60006020835181151561153d57fe5b04905060006020845181151561154f57fe5b06111561155f5780806001019150505b60018101905060005b8181101561158c576020810284015185840152602085039450600181019050611568565b5050505050565b6000602082518115156115a257fe5b0490506000602083518115156115b457fe5b061415156115c55780806001019150505b8080600101915050602081029050919050565b6000816040516020018082805190602001908083835b60208310151561161357805182526020820191506020810190506020830392506115ee565b6001836020036101000a0380198251168184511680821785525050505050509050019150506040516020818303038152906040526040518082805190602001908083835b60208310151561167c5780518252602082019150602081019050602083039250611657565b6001836020036101000a038019825116818451168082178552505050505050905001915050604051809103902060001916836040516020018082805190602001908083835b6020831015156116e657805182526020820191506020810190506020830392506116c1565b6001836020036101000a0380198251168184511680821785525050505050509050019150506040516020818303038152906040526040518082805190602001908083835b60208310151561174f578051825260208201915060208101905060208303925061172a565b6001836020036101000a03801982511681845116808217855250505050505090500191505060405180910390206000191614905092915050565b600960009054906101000a900460ff1681565b606060006008541115156117f2576117eb6000806040805190810160405280601281526020017f7472616e73616374696f6e416d6f756e74730000000000000000000000000000815250611da0565b905061183b565b61183860006001600854036040805190810160405280601281526020017f7472616e73616374696f6e416d6f756e74730000000000000000000000000000815250611da0565b90505b90565b60056020528060005260406000206000915090505481565b600080600960009054906101000a900460ff16600181111561187457fe5b6000600181111561188157fe5b14151561188d57600080fd5b82600560003373ffffffffffffffffffffffffffffffffffffffff1673ffffffffffffffffffffffffffffffffffffffff168152602001908152602001600020540190506000600560003373ffffffffffffffffffffffffffffffffffffffff1673ffffffffffffffffffffffffffffffffffffffff1681526020019081526020016000205411156119625780600560003373ffffffffffffffffffffffffffffffffffffffff1673ffffffffffffffffffffffffffffffffffffffff16815260200190815260200160002081905550611a0d565b80600560003373ffffffffffffffffffffffffffffffffffffffff1673ffffffffffffffffffffffffffffffffffffffff1681526020019081526020016000208190555060043390806001815401808255809150509060018203906000526020600020016000909192909190916101000a81548173ffffffffffffffffffffffffffffffffffffffff021916908373ffffffffffffffffffffffffffffffffffffffff160217905550505b82600260008282540192505081905550611a2f34611a2a33610ded565b610d51565b7f4a738e144fcebc2a2453dde8472c2fe125988d7508d635d71a45886efcf500063384604051808373ffffffffffffffffffffffffffffffffffffffff1673ffffffffffffffffffffffffffffffffffffffff1681526020018281526020019250505060405180910390a16001915050919050565b60606000806060600080861415611af2576040805190810160405280600181526020017f30000000000000000000000000000000000000000000000000000000000000008152509450611bf2565b8593505b600084141515611b1c578280600101935050600a84811515611b1457fe5b049350611af6565b826040519080825280601f01601f191660200182016040528015611b4f5781602001602082028038833980820191505090505b5091506001830390505b600086141515611bee57600a86811515611b6f57fe5b066030017f010000000000000000000000000000000000000000000000000000000000000002828280600190039350815181101515611baa57fe5b9060200101907effffffffffffffffffffffffffffffffffffffffffffffffffffffffffffff1916908160001a905350600a86811515611be657fe5b049550611b59565b8194505b50505050919050565b600081600360009054906101000a900473ffffffffffffffffffffffffffffffffffffffff1673ffffffffffffffffffffffffffffffffffffffff168173ffffffffffffffffffffffffffffffffffffffff16141515611c5a57600080fd5b8460025410151515611c6b57600080fd5b611c758585610d51565b3373ffffffffffffffffffffffffffffffffffffffff166108fc869081150290604051600060405180830381858888f19350505050158015611cbb573d6000803e3d6000fd5b507fe06a6d1c7f674346f19f69fd037afee6c37e69d5b2dbd7b436526737169c0507338686604051808473ffffffffffffffffffffffffffffffffffffffff1673ffffffffffffffffffffffffffffffffffffffff16815260200183815260200180602001828103825283818151815260200191508051906020019080838360005b83811015611d58578082015181840152602081019050611d3d565b50505050905090810190601f168015611d855780820380516001836020036101000a031916815260200191505b5094505050505060405180910390a160019150509392505050565b6060600080606080600060069450611ded876040805190810160405280601281526020017f7472616e73616374696f6e416d6f756e747300000000000000000000000000008152506115d8565b15611df757600694505b611e36876040805190810160405280601781526020017f7472616e73616374696f6e4465736372697074696f6e730000000000000000008152506115d8565b15611e4057600794505b888810151515611e4f57600080fd5b6001858054905003881115611e6957600185805490500397505b6001898903016040029350836040519080825280601f01601f191660200182016040528015611ea75781602001602082028038833980820191505090505b50925060206040519080825280601f01601f191660200182016040528015611ede5781602001602082028038833980820191505090505b5091508890505b8781111515611fc6578481815481101515611efc57fe5b906000526020600020018054600181600116156101000203166002900480601f016020809104026020016040519081016040528092919081815260200182805460018160011615610100020316600290048015611f9a5780601f10611f6f57610100808354040283529160200191611f9a565b820191906000526020600020905b815481529060010190602001808311611f7d57829003601f168201915b50505050509150611fac84838561152e565b611fb582611593565b840393508080600101915050611ee5565b82955050505050509392505050565b828054600181600116156101000203166002900490600052602060002090601f016020900481019282601f1061201657805160ff1916838001178555612044565b82800160010185558215612044579182015b82811115612043578251825591602001919060010190612028565b5b5090506120519190612055565b5090565b61207791905b8082111561207357600081600090555060010161205b565b5090565b905600a165627a7a7230582077c0afd9639a1b0cda438908b652364e5f149c5fc0ad719d88dca6860b5ca3620029",
  "source": "pragma solidity ^0.4.25;\n\ncontract Charity2 {\n\tstring name;\n\tstring description;\n\tuint balance; //TODO make this able to store decimals\n\taddress owner;\n\taddress[] donators;\n\tmapping(address => uint) public donations;\n\tstring[] transactionAmounts;\n\tstring[] transactionDescriptions;\n\tuint transactionCount;\n\t//Helpers h;\n\n\tenum charity_state {\n\t\tSTARTED, FINISHED\n\t}\n\tcharity_state public STATE;\n\n\n\t// ------------------------ Modifiers ------------------------ //\n\tmodifier ongoing(){\n\t\trequire(charity_state.STARTED == STATE);\n\t\t_;\n\t}\n\n\tmodifier only_owner(address _sender){\n\t\trequire(_sender == owner);\n\t\t_;\n\t}\n\n\t// ------------------------ EVENTS ------------------------ //\n\tevent DonateEvent(address donator, uint amount);\n\tevent WithdrawalEvent(address withdrawer, uint256 amount, string reason);\n\n\tfunction() public {\n\t\t// Callback\n\t}\n\n\n\tconstructor(string _name, string _description) public {\n\t\t//h = _h;\n\t\tname = _name;\n\t\tdescription = _description;\n\t//\towner = _sender;\n\t\towner = msg.sender;\n\t\tbalance = 0;\n\t\ttransactionCount = 0;\n\t\tSTATE = charity_state.STARTED;\n\t}\n\n\t// ------------------------ GETTERS ------------------------ //\n\tfunction getAddress() public view returns (address) {\n\t\treturn address(this);\n\t}\n\n\tfunction getCharityName() public view returns (string) {\n\t\treturn name;\n\t}\n\n\tfunction getCharityDescription() public view returns (string) {\n\t\treturn description;\n\t}\n\n\tfunction getOwner() public view returns (address) {\n\t\treturn owner;\n\t}\n\n\tfunction getMyDonation() public view returns (uint) {\n\t\treturn donations[msg.sender];\n\t}\n\n\tfunction getCharityBalance() public view returns (uint) {\n\t\treturn balance;\n\t}\n\n\tfunction getTranscationAmounts() public view returns (bytes) {\n\t\tif (transactionCount <= 0) {\n\t\t\treturn getBytesOfArray(0, 0, \"transactionAmounts\");\n\t\t} else {\n\t\t\treturn getBytesOfArray(0, transactionCount - 1, \"transactionAmounts\");\n\t\t}\n\t}\n\n\tfunction getTranscationDescriptions() public view returns (bytes) {\n\t\tif (transactionCount <= 0) {\n\t\t\treturn getBytesOfArray(0, 0, \"transactionDescriptions\");\n\t\t} else {\n\t\t\treturn getBytesOfArray(0, transactionCount - 1, \"transactionDescriptions\");\n\t\t}\n\t}\n\n\t// ------------------------ ACTIONS ------------------------ //\n\n\tfunction donate(uint256 amount) public payable ongoing returns (bool) {\n\t\tuint current = donations[msg.sender] + amount;\n\t\tif (donations[msg.sender] > 0) {\n\t\t\tdonations[msg.sender] = current;\n\t\t} else {\n\t\t\tdonations[msg.sender] = current;\n\t\t\tdonators.push(msg.sender);\n\t\t}\n\t\tbalance += amount;\n\n\t\ttransact(msg.value, toAsciiString(msg.sender));\n\n\t\temit DonateEvent(msg.sender, amount);\n\n\t\treturn true;\n\t}\n\n\n\tfunction withdrawl(uint amount, string reason, address sender) public only_owner(sender) returns (bool) {\n\t\trequire(balance >= amount);\n\t\ttransact(amount, reason);\n\t\tmsg.sender.transfer(amount);\n\t\temit WithdrawalEvent(msg.sender, amount, reason);\n\t\treturn true;\n\t}\n\n\tfunction transact(uint amount, string reason) public {\n\t\ttransactionAmounts.push(uint2str(amount));\n\t\ttransactionDescriptions.push(reason);\n\t\ttransactionCount++;\n\t}\n\n\tfunction closeCharity(address sender) public only_owner(sender) {\n\t\tSTATE = charity_state.FINISHED;\n\t}\n\n\t// Convert string array to bytes (modified from https://hackernoon.com/serializing-string-arrays-in-solidity-db4b6037e520)\n\tfunction getBytesOfArray(uint startindex, uint endindex, string arrayName) private view returns (bytes serialized){\n\t\tstring[] storage array = transactionAmounts;\n\t\tif (compareStrings(arrayName, \"transactionAmounts\")) {\n\t\t\tarray = transactionAmounts;\n\t\t}\n\t\tif (compareStrings(arrayName, \"transactionDescriptions\")) {\n\t\t\tarray = transactionDescriptions;\n\t\t}\n\n\t\trequire(endindex >= startindex);\n\n\t\tif (endindex > (array.length - 1)) {\n\t\t\tendindex = array.length - 1;\n\t\t}\n\n\t\t//64 byte is needed for safe storage of a single string.\n\t\t//((endindex - startindex) + 1) is the number of strings we want to pull out.\n\t\tuint offset = 64 * ((endindex - startindex) + 1);\n\n\t\tbytes memory buffer = new  bytes(offset);\n\t\tstring memory out1 = new string(32);\n\n\n\t\tfor (uint i = startindex; i <= endindex; i++) {\n\t\t\tout1 = array[i];\n\n\t\t\tstringToBytes(offset, bytes(out1), buffer);\n\t\t\toffset -= sizeOfString(out1);\n\t\t}\n\n\t\treturn (buffer);\n\t}\n\n\t// ------------------------ HELPER FUNCTIONS ------------------------ //\n\t// Convert uint to string (https://ethereum.stackexchange.com/questions/6591/conversion-of-uint-to-string)\n\tfunction uint2str(uint i)  public pure returns (string){\n\t\tif (i == 0) return \"0\";\n\t\tuint j = i;\n\t\tuint length;\n\t\twhile (j != 0) {\n\t\t\tlength++;\n\t\t\tj /= 10;\n\t\t}\n\t\tbytes memory bstr = new bytes(length);\n\t\tuint k = length - 1;\n\t\twhile (i != 0) {\n\t\t\tbstr[k--] = byte(48 + i % 10);\n\t\t\ti /= 10;\n\t\t}\n\t\treturn string(bstr);\n\t}\n\n\t// Get size of String (from https://github.com/pouladzade/Seriality/blob/master/src/SizeOf.sol)\n\tfunction sizeOfString(string memory _in) public pure returns (uint _size) {\n\t\t_size = bytes(_in).length / 32;\n\t\tif (bytes(_in).length % 32 != 0)\n\t\t\t_size++;\n\n\t\t_size++;\n\t\t// first 32 bytes is reserved for the size of the string\n\t\t_size *= 32;\n\t}\n\n\t// Convert String to bytes (from https://github.com/pouladzade/Seriality/blob/master/src/TypesToBytes.sol)\n\tfunction stringToBytes(uint _offst, bytes memory _input, bytes memory _output) public pure {\n\t\tuint256 stack_size = _input.length / 32;\n\t\tif (_input.length % 32 > 0) stack_size++;\n\n\t\tassembly {\n\t\t\tstack_size := add(stack_size, 1)//adding because of 32 first bytes memory as the length\n\t\t\tfor {let index := 0} lt(index, stack_size){index := add(index, 1)} {\n\t\t\t\tmstore(add(_output, _offst), mload(add(_input, mul(index, 32))))\n\t\t\t\t_offst := sub(_offst, 32)\n\t\t\t}\n\t\t}\n\t}\n\n\t// utility function to compare strings\n\tfunction compareStrings(string a, string b) public pure returns (bool){\n\t\treturn keccak256(abi.encodePacked(a)) == keccak256(abi.encodePacked(b));\n\t}\n\n\t// Address to string (https://ethereum.stackexchange.com/questions/8346/convert-address-to-string)\n\tfunction toAsciiString(address x) public pure returns (string) {\n\t\tbytes memory s = new bytes(40);\n\t\tfor (uint i = 0; i < 20; i++) {\n\t\t\tbyte b = byte(uint8(uint(x) / (2 ** (8 * (19 - i)))));\n\t\t\tbyte hi = byte(uint8(b) / 16);\n\t\t\tbyte lo = byte(uint8(b) - 16 * uint8(hi));\n\t\t\ts[2 * i] = char(hi);\n\t\t\ts[2 * i + 1] = char(lo);\n\t\t}\n\t\treturn string(s);\n\t}\n\n\tfunction char(byte b) public pure returns (byte c) {\n\t\tif (b < 10) return byte(uint8(b) + 0x30);\n\t\telse return byte(uint8(b) + 0x57);\n\t}\n\n\t// String concat\n\tfunction strConcat(string a, string b, string c) public pure returns (string){\n\t\tbytes memory ba = bytes(a);\n\t\tbytes memory bb = bytes(b);\n\t\tbytes memory bc = bytes(c);\n\n\t\tstring memory str = new string(ba.length + bb.length + bc.length);\n\t\tbytes memory bStr = bytes(str);\n\t\tuint k = 0;\n\t\tfor (uint i = 0; i < ba.length; i++) {\n\t\t\tbStr[k++] = ba[i];\n\t\t}\n\t\tfor (i = 0; i < bb.length; i++) {\n\t\t\tbStr[k++] = bb[i];\n\t\t}\n\t\tfor (i = 0; i < bc.length; i++) {\n\t\t\tbStr[k++] = bc[i];\n\t\t}\n\n\n\t\treturn string(bStr);\n\t}\n}\n",
  "sourcePath": "/Users/kenny/Documents/College/Spring2019/BlockChain/Charity-Blockchain/contracts/Charity2.sol",
  "compiler": {
    "name": "solc",
    "version": "0.4.25+commit.59dbf8f1.Emscripten.clang"
  },
  "schemaVersion": "3.0.8",
  "updatedAt": "2019-05-01T23:42:04.830Z",
  "devdoc": {
    "methods": {}
  },
  "userdoc": {
    "methods": {}
  }
}