{
  "contractName": "Charity3",
  "abi": [
    {
      "constant": true,
      "inputs": [],
      "name": "STATE",
      "outputs": [
        {
          "name": "",
          "type": "uint8"
        }
      ],
      "payable": false,
      "stateMutability": "view",
      "type": "function",
      "signature": "0xc486456c"
    },
    {
      "constant": true,
      "inputs": [
        {
          "name": "",
          "type": "address"
        }
      ],
      "name": "donations",
      "outputs": [
        {
          "name": "",
          "type": "uint256"
        }
      ],
      "payable": false,
      "stateMutability": "view",
      "type": "function",
      "signature": "0xcc6cb19a"
    },
    {
      "inputs": [
        {
          "name": "_name",
          "type": "string"
        },
        {
          "name": "_description",
          "type": "string"
        }
      ],
      "payable": false,
      "stateMutability": "nonpayable",
      "type": "constructor",
      "signature": "constructor"
    },
    {
      "payable": false,
      "stateMutability": "nonpayable",
      "type": "fallback"
    },
    {
      "anonymous": false,
      "inputs": [
        {
          "indexed": false,
          "name": "donator",
          "type": "address"
        },
        {
          "indexed": false,
          "name": "amount",
          "type": "uint256"
        }
      ],
      "name": "DonateEvent",
      "type": "event",
      "signature": "0x4a738e144fcebc2a2453dde8472c2fe125988d7508d635d71a45886efcf50006"
    },
    {
      "anonymous": false,
      "inputs": [
        {
          "indexed": false,
          "name": "withdrawer",
          "type": "address"
        },
        {
          "indexed": false,
          "name": "amount",
          "type": "uint256"
        },
        {
          "indexed": false,
          "name": "reason",
          "type": "string"
        }
      ],
      "name": "WithdrawalEvent",
      "type": "event",
      "signature": "0xe06a6d1c7f674346f19f69fd037afee6c37e69d5b2dbd7b436526737169c0507"
    },
    {
      "constant": true,
      "inputs": [],
      "name": "getAddress",
      "outputs": [
        {
          "name": "",
          "type": "address"
        }
      ],
      "payable": false,
      "stateMutability": "view",
      "type": "function",
      "signature": "0x38cc4831"
    },
    {
      "constant": true,
      "inputs": [],
      "name": "getCharityName",
      "outputs": [
        {
          "name": "",
          "type": "string"
        }
      ],
      "payable": false,
      "stateMutability": "view",
      "type": "function",
      "signature": "0x10f0d44f"
    },
    {
      "constant": true,
      "inputs": [],
      "name": "getCharityDescription",
      "outputs": [
        {
          "name": "",
          "type": "string"
        }
      ],
      "payable": false,
      "stateMutability": "view",
      "type": "function",
      "signature": "0x0b238961"
    },
    {
      "constant": true,
      "inputs": [],
      "name": "getOwner",
      "outputs": [
        {
          "name": "",
          "type": "address"
        }
      ],
      "payable": false,
      "stateMutability": "view",
      "type": "function",
      "signature": "0x893d20e8"
    },
    {
      "constant": true,
      "inputs": [],
      "name": "getMyDonation",
      "outputs": [
        {
          "name": "",
          "type": "uint256"
        }
      ],
      "payable": false,
      "stateMutability": "view",
      "type": "function",
      "signature": "0x365fd982"
    },
    {
      "constant": true,
      "inputs": [],
      "name": "getCharityBalance",
      "outputs": [
        {
          "name": "",
          "type": "uint256"
        }
      ],
      "payable": false,
      "stateMutability": "view",
      "type": "function",
      "signature": "0x44b7eda1"
    },
    {
      "constant": true,
      "inputs": [],
      "name": "getTranscationAmounts",
      "outputs": [
        {
          "name": "",
          "type": "bytes"
        }
      ],
      "payable": false,
      "stateMutability": "view",
      "type": "function",
      "signature": "0xcb13dd2c"
    },
    {
      "constant": true,
      "inputs": [],
      "name": "getTranscationDescriptions",
      "outputs": [
        {
          "name": "",
          "type": "bytes"
        }
      ],
      "payable": false,
      "stateMutability": "view",
      "type": "function",
      "signature": "0x79833e52"
    },
    {
      "constant": false,
      "inputs": [],
      "name": "donate",
      "outputs": [
        {
          "name": "",
          "type": "bool"
        }
      ],
      "payable": true,
      "stateMutability": "payable",
      "type": "function",
      "signature": "0xed88c68e"
    },
    {
      "constant": false,
      "inputs": [
        {
          "name": "amount",
          "type": "uint256"
        },
        {
          "name": "reason",
          "type": "string"
        }
      ],
      "name": "withdrawal",
      "outputs": [
        {
          "name": "",
          "type": "bool"
        }
      ],
      "payable": false,
      "stateMutability": "nonpayable",
      "type": "function",
      "signature": "0x0ba17265"
    },
    {
      "constant": false,
      "inputs": [
        {
          "name": "amount",
          "type": "uint256"
        },
        {
          "name": "reason",
          "type": "string"
        }
      ],
      "name": "transact",
      "outputs": [],
      "payable": false,
      "stateMutability": "nonpayable",
      "type": "function",
      "signature": "0x25877c09"
    },
    {
      "constant": false,
      "inputs": [
        {
          "name": "sender",
          "type": "address"
        }
      ],
      "name": "closeCharity",
      "outputs": [],
      "payable": false,
      "stateMutability": "nonpayable",
      "type": "function",
      "signature": "0x7d57de8c"
    },
    {
      "constant": true,
      "inputs": [
        {
          "name": "i",
          "type": "uint256"
        }
      ],
      "name": "uint2str",
      "outputs": [
        {
          "name": "",
          "type": "string"
        }
      ],
      "payable": false,
      "stateMutability": "pure",
      "type": "function",
      "signature": "0xf76f950e"
    },
    {
      "constant": true,
      "inputs": [
        {
          "name": "_in",
          "type": "string"
        }
      ],
      "name": "sizeOfString",
      "outputs": [
        {
          "name": "_size",
          "type": "uint256"
        }
      ],
      "payable": false,
      "stateMutability": "pure",
      "type": "function",
      "signature": "0xa5847862"
    },
    {
      "constant": true,
      "inputs": [
        {
          "name": "_offst",
          "type": "uint256"
        },
        {
          "name": "_input",
          "type": "bytes"
        },
        {
          "name": "_output",
          "type": "bytes"
        }
      ],
      "name": "stringToBytes",
      "outputs": [],
      "payable": false,
      "stateMutability": "pure",
      "type": "function",
      "signature": "0x917a781f"
    },
    {
      "constant": true,
      "inputs": [
        {
          "name": "a",
          "type": "string"
        },
        {
          "name": "b",
          "type": "string"
        }
      ],
      "name": "compareStrings",
      "outputs": [
        {
          "name": "",
          "type": "bool"
        }
      ],
      "payable": false,
      "stateMutability": "pure",
      "type": "function",
      "signature": "0xbed34bba"
    },
    {
      "constant": true,
      "inputs": [
        {
          "name": "x",
          "type": "address"
        }
      ],
      "name": "toAsciiString",
      "outputs": [
        {
          "name": "",
          "type": "string"
        }
      ],
      "payable": false,
      "stateMutability": "pure",
      "type": "function",
      "signature": "0x2c6e7598"
    },
    {
      "constant": true,
      "inputs": [
        {
          "name": "b",
          "type": "bytes1"
        }
      ],
      "name": "char",
      "outputs": [
        {
          "name": "c",
          "type": "bytes1"
        }
      ],
      "payable": false,
      "stateMutability": "pure",
      "type": "function",
      "signature": "0x69f9ad2f"
    },
    {
      "constant": true,
      "inputs": [
        {
          "name": "a",
          "type": "string"
        },
        {
          "name": "b",
          "type": "string"
        },
        {
          "name": "c",
          "type": "string"
        }
      ],
      "name": "strConcat",
      "outputs": [
        {
          "name": "",
          "type": "string"
        }
      ],
      "payable": false,
      "stateMutability": "pure",
      "type": "function",
      "signature": "0x4112987c"
    }
  ],
  "bytecode": "0x60806040523480156200001157600080fd5b5060405162002251380380620022518339810180604052810190808051820192919060200180518201929190505050816000908051906020019062000058929190620000f0565b50806001908051906020019062000071929190620000f0565b5033600360006101000a81548173ffffffffffffffffffffffffffffffffffffffff021916908373ffffffffffffffffffffffffffffffffffffffff160217905550600060028190555060006008819055506000600960006101000a81548160ff02191690836001811115620000e357fe5b021790555050506200019f565b828054600181600116156101000203166002900490600052602060002090601f016020900481019282601f106200013357805160ff191683800117855562000164565b8280016001018555821562000164579182015b828111156200016357825182559160200191906001019062000146565b5b50905062000173919062000177565b5090565b6200019c91905b80821115620001985760008160009055506001016200017e565b5090565b90565b6120a280620001af6000396000f30060806040526004361061011d576000357c0100000000000000000000000000000000000000000000000000000000900463ffffffff1680630b2389611461012c5780630ba17265146101bc57806310f0d44f1461024757806325877c09146102d75780632c6e75981461034a578063365fd9821461040657806338cc4831146104315780634112987c1461048857806344b7eda1146105f657806369f9ad2f1461062157806379833e52146106c85780637d57de8c14610758578063893d20e81461079b578063917a781f146107f2578063a5847862146108ab578063bed34bba14610928578063c486456c146109ef578063cb13dd2c14610a28578063cc6cb19a14610ab8578063ed88c68e14610b0f578063f76f950e14610b31575b34801561012957600080fd5b50005b34801561013857600080fd5b50610141610bd7565b6040518080602001828103825283818151815260200191508051906020019080838360005b83811015610181578082015181840152602081019050610166565b50505050905090810190601f1680156101ae5780820380516001836020036101000a031916815260200191505b509250505060405180910390f35b3480156101c857600080fd5b5061022d60048036038101908080359060200190929190803590602001908201803590602001908080601f0160208091040260200160405190810160405280939291908181526020018383808284378201915050505050509192919290505050610c79565b604051808215151515815260200191505060405180910390f35b34801561025357600080fd5b5061025c610e52565b6040518080602001828103825283818151815260200191508051906020019080838360005b8381101561029c578082015181840152602081019050610281565b50505050905090810190601f1680156102c95780820380516001836020036101000a031916815260200191505b509250505060405180910390f35b3480156102e357600080fd5b5061034860048036038101908080359060200190929190803590602001908201803590602001908080601f0160208091040260200160405190810160405280939291908181526020018383808284378201915050505050509192919290505050610ef4565b005b34801561035657600080fd5b5061038b600480360381019080803573ffffffffffffffffffffffffffffffffffffffff169060200190929190505050610f90565b6040518080602001828103825283818151815260200191508051906020019080838360005b838110156103cb5780820151818401526020810190506103b0565b50505050905090810190601f1680156103f85780820380516001836020036101000a031916815260200191505b509250505060405180910390f35b34801561041257600080fd5b5061041b6111a5565b6040518082815260200191505060405180910390f35b34801561043d57600080fd5b506104466111ec565b604051808273ffffffffffffffffffffffffffffffffffffffff1673ffffffffffffffffffffffffffffffffffffffff16815260200191505060405180910390f35b34801561049457600080fd5b5061057b600480360381019080803590602001908201803590602001908080601f0160208091040260200160405190810160405280939291908181526020018383808284378201915050505050509192919290803590602001908201803590602001908080601f0160208091040260200160405190810160405280939291908181526020018383808284378201915050505050509192919290803590602001908201803590602001908080601f01602080910402602001604051908101604052809392919081815260200183838082843782019150505050505091929192905050506111f4565b6040518080602001828103825283818151815260200191508051906020019080838360005b838110156105bb5780820151818401526020810190506105a0565b50505050905090810190601f1680156105e85780820380516001836020036101000a031916815260200191505b509250505060405180910390f35b34801561060257600080fd5b5061060b611486565b6040518082815260200191505060405180910390f35b34801561062d57600080fd5b5061066e60048036038101908080357effffffffffffffffffffffffffffffffffffffffffffffffffffffffffffff19169060200190929190505050611490565b60405180827effffffffffffffffffffffffffffffffffffffffffffffffffffffffffffff19167effffffffffffffffffffffffffffffffffffffffffffffffffffffffffffff1916815260200191505060405180910390f35b3480156106d457600080fd5b506106dd611580565b6040518080602001828103825283818151815260200191508051906020019080838360005b8381101561071d578082015181840152602081019050610702565b50505050905090810190601f16801561074a5780820380516001836020036101000a031916815260200191505b509250505060405180910390f35b34801561076457600080fd5b50610799600480360381019080803573ffffffffffffffffffffffffffffffffffffffff169060200190929190505050611622565b005b3480156107a757600080fd5b506107b06116a7565b604051808273ffffffffffffffffffffffffffffffffffffffff1673ffffffffffffffffffffffffffffffffffffffff16815260200191505060405180910390f35b3480156107fe57600080fd5b506108a960048036038101908080359060200190929190803590602001908201803590602001908080601f0160208091040260200160405190810160405280939291908181526020018383808284378201915050505050509192919290803590602001908201803590602001908080601f01602080910402602001604051908101604052809392919081815260200183838082843782019150505050505091929192905050506116d1565b005b3480156108b757600080fd5b50610912600480360381019080803590602001908201803590602001908080601f0160208091040260200160405190810160405280939291908181526020018383808284378201915050505050509192919290505050611736565b6040518082815260200191505060405180910390f35b34801561093457600080fd5b506109d5600480360381019080803590602001908201803590602001908080601f0160208091040260200160405190810160405280939291908181526020018383808284378201915050505050509192919290803590602001908201803590602001908080601f016020809104026020016040519081016040528093929190818152602001838380828437820191505050505050919291929050505061177b565b604051808215151515815260200191505060405180910390f35b3480156109fb57600080fd5b50610a0461192c565b60405180826001811115610a1457fe5b60ff16815260200191505060405180910390f35b348015610a3457600080fd5b50610a3d61193f565b6040518080602001828103825283818151815260200191508051906020019080838360005b83811015610a7d578082015181840152602081019050610a62565b50505050905090810190601f168015610aaa5780820380516001836020036101000a031916815260200191505b509250505060405180910390f35b348015610ac457600080fd5b50610af9600480360381019080803573ffffffffffffffffffffffffffffffffffffffff1690602001909291905050506119e1565b6040518082815260200191505060405180910390f35b610b176119f9565b604051808215151515815260200191505060405180910390f35b348015610b3d57600080fd5b50610b5c60048036038101908080359060200190929190505050611c45565b6040518080602001828103825283818151815260200191508051906020019080838360005b83811015610b9c578082015181840152602081019050610b81565b50505050905090810190601f168015610bc95780820380516001836020036101000a031916815260200191505b509250505060405180910390f35b606060018054600181600116156101000203166002900480601f016020809104026020016040519081016040528092919081815260200182805460018160011615610100020316600290048015610c6f5780601f10610c4457610100808354040283529160200191610c6f565b820191906000526020600020905b815481529060010190602001808311610c5257829003601f168201915b5050505050905090565b600033600360009054906101000a900473ffffffffffffffffffffffffffffffffffffffff1673ffffffffffffffffffffffffffffffffffffffff168173ffffffffffffffffffffffffffffffffffffffff16141515610cd857600080fd5b8360025410151515610ce957600080fd5b610cf68460000384610ef4565b83600260008282540392505081905550600360009054906101000a900473ffffffffffffffffffffffffffffffffffffffff1673ffffffffffffffffffffffffffffffffffffffff166108fc859081150290604051600060405180830381858888f19350505050158015610d6e573d6000803e3d6000fd5b507fe06a6d1c7f674346f19f69fd037afee6c37e69d5b2dbd7b436526737169c0507338585604051808473ffffffffffffffffffffffffffffffffffffffff1673ffffffffffffffffffffffffffffffffffffffff16815260200183815260200180602001828103825283818151815260200191508051906020019080838360005b83811015610e0b578082015181840152602081019050610df0565b50505050905090810190601f168015610e385780820380516001836020036101000a031916815260200191505b5094505050505060405180910390a1600191505092915050565b606060008054600181600116156101000203166002900480601f016020809104026020016040519081016040528092919081815260200182805460018160011615610100020316600290048015610eea5780601f10610ebf57610100808354040283529160200191610eea565b820191906000526020600020905b815481529060010190602001808311610ecd57829003601f168201915b5050505050905090565b6006610eff83611c45565b9080600181540180825580915050906001820390600052602060002001600090919290919091509080519060200190610f39929190611fd1565b50506007819080600181540180825580915050906001820390600052602060002001600090919290919091509080519060200190610f78929190611fd1565b50506008600081548092919060010191905055505050565b60608060008060008060286040519080825280601f01601f191660200182016040528015610fcd5781602001602082028038833980820191505090505b509450600093505b6014841015611198578360130360080260020a8773ffffffffffffffffffffffffffffffffffffffff1681151561100857fe5b047f01000000000000000000000000000000000000000000000000000000000000000292506010837f0100000000000000000000000000000000000000000000000000000000000000900460ff1681151561105f57fe5b047f0100000000000000000000000000000000000000000000000000000000000000029150817f01000000000000000000000000000000000000000000000000000000000000009004601002837f01000000000000000000000000000000000000000000000000000000000000009004037f01000000000000000000000000000000000000000000000000000000000000000290506110fd82611490565b858560020281518110151561110e57fe5b9060200101907effffffffffffffffffffffffffffffffffffffffffffffffffffffffffffff1916908160001a90535061114781611490565b856001866002020181518110151561115b57fe5b9060200101907effffffffffffffffffffffffffffffffffffffffffffffffffffffffffffff1916908160001a9053508380600101945050610fd5565b8495505050505050919050565b6000600560003373ffffffffffffffffffffffffffffffffffffffff1673ffffffffffffffffffffffffffffffffffffffff16815260200190815260200160002054905090565b600030905090565b6060806060806060806000808a965089955088945084518651885101016040519080825280601f01601f1916602001820160405280156112435781602001602082028038833980820191505090505b50935083925060009150600090505b865181101561130557868181518110151561126957fe5b9060200101517f010000000000000000000000000000000000000000000000000000000000000090047f01000000000000000000000000000000000000000000000000000000000000000283838060010194508151811015156112c857fe5b9060200101907effffffffffffffffffffffffffffffffffffffffffffffffffffffffffffff1916908160001a9053508080600101915050611252565b600090505b85518110156113bd57858181518110151561132157fe5b9060200101517f010000000000000000000000000000000000000000000000000000000000000090047f010000000000000000000000000000000000000000000000000000000000000002838380600101945081518110151561138057fe5b9060200101907effffffffffffffffffffffffffffffffffffffffffffffffffffffffffffff1916908160001a905350808060010191505061130a565b600090505b84518110156114755784818151811015156113d957fe5b9060200101517f010000000000000000000000000000000000000000000000000000000000000090047f010000000000000000000000000000000000000000000000000000000000000002838380600101945081518110151561143857fe5b9060200101907effffffffffffffffffffffffffffffffffffffffffffffffffffffffffffff1916908160001a90535080806001019150506113c2565b829750505050505050509392505050565b6000600254905090565b6000600a7f010000000000000000000000000000000000000000000000000000000000000002827effffffffffffffffffffffffffffffffffffffffffffffffffffffffffffff1916101561152f576030827f01000000000000000000000000000000000000000000000000000000000000009004017f010000000000000000000000000000000000000000000000000000000000000002905061157b565b6057827f01000000000000000000000000000000000000000000000000000000000000009004017f01000000000000000000000000000000000000000000000000000000000000000290505b919050565b606060006008541115156115d6576115cf6000806040805190810160405280601781526020017f7472616e73616374696f6e4465736372697074696f6e73000000000000000000815250611d9c565b905061161f565b61161c60006001600854036040805190810160405280601781526020017f7472616e73616374696f6e4465736372697074696f6e73000000000000000000815250611d9c565b90505b90565b80600360009054906101000a900473ffffffffffffffffffffffffffffffffffffffff1673ffffffffffffffffffffffffffffffffffffffff168173ffffffffffffffffffffffffffffffffffffffff1614151561167f57600080fd5b6001600960006101000a81548160ff0219169083600181111561169e57fe5b02179055505050565b6000600360009054906101000a900473ffffffffffffffffffffffffffffffffffffffff16905090565b6000602083518115156116e057fe5b0490506000602084518115156116f257fe5b0611156117025780806001019150505b60018101905060005b8181101561172f57602081028401518584015260208503945060018101905061170b565b5050505050565b60006020825181151561174557fe5b04905060006020835181151561175757fe5b061415156117685780806001019150505b8080600101915050602081029050919050565b6000816040516020018082805190602001908083835b6020831015156117b65780518252602082019150602081019050602083039250611791565b6001836020036101000a0380198251168184511680821785525050505050509050019150506040516020818303038152906040526040518082805190602001908083835b60208310151561181f57805182526020820191506020810190506020830392506117fa565b6001836020036101000a038019825116818451168082178552505050505050905001915050604051809103902060001916836040516020018082805190602001908083835b6020831015156118895780518252602082019150602081019050602083039250611864565b6001836020036101000a0380198251168184511680821785525050505050509050019150506040516020818303038152906040526040518082805190602001908083835b6020831015156118f257805182526020820191506020810190506020830392506118cd565b6001836020036101000a03801982511681845116808217855250505050505090500191505060405180910390206000191614905092915050565b600960009054906101000a900460ff1681565b606060006008541115156119955761198e6000806040805190810160405280601281526020017f7472616e73616374696f6e416d6f756e74730000000000000000000000000000815250611d9c565b90506119de565b6119db60006001600854036040805190810160405280601281526020017f7472616e73616374696f6e416d6f756e74730000000000000000000000000000815250611d9c565b90505b90565b60056020528060005260406000206000915090505481565b600080600960009054906101000a900460ff166001811115611a1757fe5b60006001811115611a2457fe5b141515611a3057600080fd5b34600560003373ffffffffffffffffffffffffffffffffffffffff1673ffffffffffffffffffffffffffffffffffffffff168152602001908152602001600020540190506000600560003373ffffffffffffffffffffffffffffffffffffffff1673ffffffffffffffffffffffffffffffffffffffff168152602001908152602001600020541115611b055780600560003373ffffffffffffffffffffffffffffffffffffffff1673ffffffffffffffffffffffffffffffffffffffff16815260200190815260200160002081905550611bb0565b80600560003373ffffffffffffffffffffffffffffffffffffffff1673ffffffffffffffffffffffffffffffffffffffff1681526020019081526020016000208190555060043390806001815401808255809150509060018203906000526020600020016000909192909190916101000a81548173ffffffffffffffffffffffffffffffffffffffff021916908373ffffffffffffffffffffffffffffffffffffffff160217905550505b34600260008282540192505081905550611bd234611bcd33610f90565b610ef4565b7f4a738e144fcebc2a2453dde8472c2fe125988d7508d635d71a45886efcf500063334604051808373ffffffffffffffffffffffffffffffffffffffff1673ffffffffffffffffffffffffffffffffffffffff1681526020018281526020019250505060405180910390a1600191505090565b60606000806060600080861415611c93576040805190810160405280600181526020017f30000000000000000000000000000000000000000000000000000000000000008152509450611d93565b8593505b600084141515611cbd578280600101935050600a84811515611cb557fe5b049350611c97565b826040519080825280601f01601f191660200182016040528015611cf05781602001602082028038833980820191505090505b5091506001830390505b600086141515611d8f57600a86811515611d1057fe5b066030017f010000000000000000000000000000000000000000000000000000000000000002828280600190039350815181101515611d4b57fe5b9060200101907effffffffffffffffffffffffffffffffffffffffffffffffffffffffffffff1916908160001a905350600a86811515611d8757fe5b049550611cfa565b8194505b50505050919050565b6060600080606080600060069450611de9876040805190810160405280601281526020017f7472616e73616374696f6e416d6f756e7473000000000000000000000000000081525061177b565b15611df357600694505b611e32876040805190810160405280601781526020017f7472616e73616374696f6e4465736372697074696f6e7300000000000000000081525061177b565b15611e3c57600794505b888810151515611e4b57600080fd5b6001858054905003881115611e6557600185805490500397505b6001898903016040029350836040519080825280601f01601f191660200182016040528015611ea35781602001602082028038833980820191505090505b50925060206040519080825280601f01601f191660200182016040528015611eda5781602001602082028038833980820191505090505b5091508890505b8781111515611fc2578481815481101515611ef857fe5b906000526020600020018054600181600116156101000203166002900480601f016020809104026020016040519081016040528092919081815260200182805460018160011615610100020316600290048015611f965780601f10611f6b57610100808354040283529160200191611f96565b820191906000526020600020905b815481529060010190602001808311611f7957829003601f168201915b50505050509150611fa88483856116d1565b611fb182611736565b840393508080600101915050611ee1565b82955050505050509392505050565b828054600181600116156101000203166002900490600052602060002090601f016020900481019282601f1061201257805160ff1916838001178555612040565b82800160010185558215612040579182015b8281111561203f578251825591602001919060010190612024565b5b50905061204d9190612051565b5090565b61207391905b8082111561206f576000816000905550600101612057565b5090565b905600a165627a7a72305820f9dc862e6ed68fc046bd0322c29304fbbdbdeff97eeb067e83eef79a0cd8c5e00029",
  "source": "pragma solidity ^0.4.25;\n\ncontract Charity3 {\n\tstring name;\n\tstring description;\n\tuint balance; //TODO make this able to store decimals\n\taddress owner;\n\taddress[] donators;\n\tmapping(address => uint) public donations;\n\tstring[] transactionAmounts;\n\tstring[] transactionDescriptions;\n\tuint transactionCount;\n\t//Helpers h;\n\n\tenum charity_state {\n\t\tSTARTED, FINISHED\n\t}\n\tcharity_state public STATE;\n\n\n\t// ------------------------ Modifiers ------------------------ //\n\tmodifier ongoing(){\n\t\trequire(charity_state.STARTED == STATE);\n\t\t_;\n\t}\n\n\tmodifier only_owner(address _sender){\n\t\trequire(_sender == owner);\n\t\t_;\n\t}\n\n\t// ------------------------ EVENTS ------------------------ //\n\tevent DonateEvent(address donator, uint amount);\n\tevent WithdrawalEvent(address withdrawer, uint256 amount, string reason);\n\n\tfunction() public {\n\t\t// Callback\n\t}\n\n\n\tconstructor(string _name, string _description) public {\n\t\t//h = _h;\n\t\tname = _name;\n\t\tdescription = _description;\n\t//\towner = _sender;\n\t\towner = msg.sender;\n\t\tbalance = 0;\n\t\ttransactionCount = 0;\n\t\tSTATE = charity_state.STARTED;\n\t}\n\n\t// ------------------------ GETTERS ------------------------ //\n\tfunction getAddress() public view returns (address) {\n\t\treturn address(this);\n\t}\n\n\tfunction getCharityName() public view returns (string) {\n\t\treturn name;\n\t}\n\n\tfunction getCharityDescription() public view returns (string) {\n\t\treturn description;\n\t}\n\n\tfunction getOwner() public view returns (address) {\n\t\treturn owner;\n\t}\n\n\tfunction getMyDonation() public view returns (uint) {\n\t\treturn donations[msg.sender];\n\t}\n\n\tfunction getCharityBalance() public view returns (uint) {\n\t\treturn balance;\n\t}\n\n\tfunction getTranscationAmounts() public view returns (bytes) {\n\t\tif (transactionCount <= 0) {\n\t\t\treturn getBytesOfArray(0, 0, \"transactionAmounts\");\n\t\t} else {\n\t\t\treturn getBytesOfArray(0, transactionCount - 1, \"transactionAmounts\");\n\t\t}\n\t}\n\n\tfunction getTranscationDescriptions() public view returns (bytes) {\n\t\tif (transactionCount <= 0) {\n\t\t\treturn getBytesOfArray(0, 0, \"transactionDescriptions\");\n\t\t} else {\n\t\t\treturn getBytesOfArray(0, transactionCount - 1, \"transactionDescriptions\");\n\t\t}\n\t}\n\n\t// ------------------------ ACTIONS ------------------------ //\n\n\tfunction donate() public payable ongoing returns (bool) {\n\t\tuint current = donations[msg.sender] + msg.value;\n\t\tif (donations[msg.sender] > 0) {\n\t\t\tdonations[msg.sender] = current;\n\t\t} else {\n\t\t\tdonations[msg.sender] = current;\n\t\t\tdonators.push(msg.sender);\n\t\t}\n\t\tbalance += msg.value;\n\n\t\ttransact(msg.value, toAsciiString(msg.sender));\n\n\t\temit DonateEvent(msg.sender, msg.value);\n\n\t\treturn true;\n\t}\n\n\n\tfunction withdrawal(uint amount, string reason) public only_owner(msg.sender) returns (bool) {\n\t\trequire(balance >= amount);\n\t\ttransact(-amount, reason);\n\t\tbalance -= amount;\n\t\towner.transfer(amount);\n\t\temit WithdrawalEvent(msg.sender, amount, reason);\n\t\treturn true;\n\t}\n\n\tfunction transact(uint amount, string reason) public {\n\t\ttransactionAmounts.push(uint2str(amount));\n\t\ttransactionDescriptions.push(reason);\n\t\ttransactionCount++;\n\t}\n\n\tfunction closeCharity(address sender) public only_owner(sender) {\n\t\tSTATE = charity_state.FINISHED;\n\t}\n\n\t// Convert string array to bytes (modified from https://hackernoon.com/serializing-string-arrays-in-solidity-db4b6037e520)\n\tfunction getBytesOfArray(uint startindex, uint endindex, string arrayName) private view returns (bytes serialized){\n\t\tstring[] storage array = transactionAmounts;\n\t\tif (compareStrings(arrayName, \"transactionAmounts\")) {\n\t\t\tarray = transactionAmounts;\n\t\t}\n\t\tif (compareStrings(arrayName, \"transactionDescriptions\")) {\n\t\t\tarray = transactionDescriptions;\n\t\t}\n\n\t\trequire(endindex >= startindex);\n\n\t\tif (endindex > (array.length - 1)) {\n\t\t\tendindex = array.length - 1;\n\t\t}\n\n\t\t//64 byte is needed for safe storage of a single string.\n\t\t//((endindex - startindex) + 1) is the number of strings we want to pull out.\n\t\tuint offset = 64 * ((endindex - startindex) + 1);\n\n\t\tbytes memory buffer = new  bytes(offset);\n\t\tstring memory out1 = new string(32);\n\n\n\t\tfor (uint i = startindex; i <= endindex; i++) {\n\t\t\tout1 = array[i];\n\n\t\t\tstringToBytes(offset, bytes(out1), buffer);\n\t\t\toffset -= sizeOfString(out1);\n\t\t}\n\n\t\treturn (buffer);\n\t}\n\n\t// ------------------------ HELPER FUNCTIONS ------------------------ //\n\t// Convert uint to string (https://ethereum.stackexchange.com/questions/6591/conversion-of-uint-to-string)\n\tfunction uint2str(uint i)  public pure returns (string){\n\t\tif (i == 0) return \"0\";\n\t\tuint j = i;\n\t\tuint length;\n\t\twhile (j != 0) {\n\t\t\tlength++;\n\t\t\tj /= 10;\n\t\t}\n\t\tbytes memory bstr = new bytes(length);\n\t\tuint k = length - 1;\n\t\twhile (i != 0) {\n\t\t\tbstr[k--] = byte(48 + i % 10);\n\t\t\ti /= 10;\n\t\t}\n\t\treturn string(bstr);\n\t}\n\n\t// Get size of String (from https://github.com/pouladzade/Seriality/blob/master/src/SizeOf.sol)\n\tfunction sizeOfString(string memory _in) public pure returns (uint _size) {\n\t\t_size = bytes(_in).length / 32;\n\t\tif (bytes(_in).length % 32 != 0)\n\t\t\t_size++;\n\n\t\t_size++;\n\t\t// first 32 bytes is reserved for the size of the string\n\t\t_size *= 32;\n\t}\n\n\t// Convert String to bytes (from https://github.com/pouladzade/Seriality/blob/master/src/TypesToBytes.sol)\n\tfunction stringToBytes(uint _offst, bytes memory _input, bytes memory _output) public pure {\n\t\tuint256 stack_size = _input.length / 32;\n\t\tif (_input.length % 32 > 0) stack_size++;\n\n\t\tassembly {\n\t\t\tstack_size := add(stack_size, 1)//adding because of 32 first bytes memory as the length\n\t\t\tfor {let index := 0} lt(index, stack_size){index := add(index, 1)} {\n\t\t\t\tmstore(add(_output, _offst), mload(add(_input, mul(index, 32))))\n\t\t\t\t_offst := sub(_offst, 32)\n\t\t\t}\n\t\t}\n\t}\n\n\t// utility function to compare strings\n\tfunction compareStrings(string a, string b) public pure returns (bool){\n\t\treturn keccak256(abi.encodePacked(a)) == keccak256(abi.encodePacked(b));\n\t}\n\n\t// Address to string (https://ethereum.stackexchange.com/questions/8346/convert-address-to-string)\n\tfunction toAsciiString(address x) public pure returns (string) {\n\t\tbytes memory s = new bytes(40);\n\t\tfor (uint i = 0; i < 20; i++) {\n\t\t\tbyte b = byte(uint8(uint(x) / (2 ** (8 * (19 - i)))));\n\t\t\tbyte hi = byte(uint8(b) / 16);\n\t\t\tbyte lo = byte(uint8(b) - 16 * uint8(hi));\n\t\t\ts[2 * i] = char(hi);\n\t\t\ts[2 * i + 1] = char(lo);\n\t\t}\n\t\treturn string(s);\n\t}\n\n\tfunction char(byte b) public pure returns (byte c) {\n\t\tif (b < 10) return byte(uint8(b) + 0x30);\n\t\telse return byte(uint8(b) + 0x57);\n\t}\n\n\t// String concat\n\tfunction strConcat(string a, string b, string c) public pure returns (string){\n\t\tbytes memory ba = bytes(a);\n\t\tbytes memory bb = bytes(b);\n\t\tbytes memory bc = bytes(c);\n\n\t\tstring memory str = new string(ba.length + bb.length + bc.length);\n\t\tbytes memory bStr = bytes(str);\n\t\tuint k = 0;\n\t\tfor (uint i = 0; i < ba.length; i++) {\n\t\t\tbStr[k++] = ba[i];\n\t\t}\n\t\tfor (i = 0; i < bb.length; i++) {\n\t\t\tbStr[k++] = bb[i];\n\t\t}\n\t\tfor (i = 0; i < bc.length; i++) {\n\t\t\tbStr[k++] = bc[i];\n\t\t}\n\n\n\t\treturn string(bStr);\n\t}\n}\n",
  "sourcePath": "/Users/SummitDrift/Dropbox/Web/Classes/cs481/Charity-Blockchain/contracts/Charity3.sol",
  "compiler": {
    "name": "solc",
    "version": "0.4.25+commit.59dbf8f1.Emscripten.clang"
  },
  "schemaVersion": "3.0.6",
  "updatedAt": "2019-05-09T21:58:18.426Z",
  "devdoc": {
    "methods": {}
  },
  "userdoc": {
    "methods": {}
  }
}