{
  "contractName": "CharitableDonations",
  "abi": [
    {
      "inputs": [],
      "payable": false,
      "stateMutability": "nonpayable",
      "type": "constructor",
      "signature": "constructor"
    },
    {
      "constant": false,
      "inputs": [
        {
          "name": "name",
          "type": "string"
        },
        {
          "name": "description",
          "type": "string"
        }
      ],
      "name": "deployCharity",
      "outputs": [],
      "payable": false,
      "stateMutability": "nonpayable",
      "type": "function",
      "signature": "0x815a3ec3"
    },
    {
      "constant": false,
      "inputs": [],
      "name": "getCharityNames",
      "outputs": [
        {
          "name": "",
          "type": "string"
        }
      ],
      "payable": false,
      "stateMutability": "nonpayable",
      "type": "function",
      "signature": "0x720a7dee"
    },
    {
      "constant": true,
      "inputs": [],
      "name": "getUsersCharitites",
      "outputs": [
        {
          "name": "",
          "type": "bytes"
        }
      ],
      "payable": false,
      "stateMutability": "view",
      "type": "function",
      "signature": "0x2614e72c"
    },
    {
      "constant": true,
      "inputs": [],
      "name": "getNumCharities",
      "outputs": [
        {
          "name": "",
          "type": "uint256"
        }
      ],
      "payable": false,
      "stateMutability": "view",
      "type": "function",
      "signature": "0x658be92f"
    },
    {
      "constant": true,
      "inputs": [
        {
          "name": "name",
          "type": "string"
        }
      ],
      "name": "getChairityAddress",
      "outputs": [
        {
          "name": "",
          "type": "address"
        }
      ],
      "payable": false,
      "stateMutability": "view",
      "type": "function",
      "signature": "0xfa40b167"
    }
  ],
  "bytecode": "0x608060405234801561001057600080fd5b5061001961007b565b604051809103906000f080158015610035573d6000803e3d6000fd5b50600660006101000a81548173ffffffffffffffffffffffffffffffffffffffff021916908373ffffffffffffffffffffffffffffffffffffffff16021790555061008b565b604051610f918061345c83390190565b6133c28061009a6000396000f30060806040526004361061006d576000357c0100000000000000000000000000000000000000000000000000000000900463ffffffff1680632614e72c14610072578063658be92f14610102578063720a7dee1461012d578063815a3ec3146101bd578063fa40b1671461026c575b600080fd5b34801561007e57600080fd5b50610087610315565b6040518080602001828103825283818151815260200191508051906020019080838360005b838110156100c75780820151818401526020810190506100ac565b50505050905090810190601f1680156100f45780820380516001836020036101000a031916815260200191505b509250505060405180910390f35b34801561010e57600080fd5b5061011761078a565b6040518082815260200191505060405180910390f35b34801561013957600080fd5b50610142610794565b6040518080602001828103825283818151815260200191508051906020019080838360005b83811015610182578082015181840152602081019050610167565b50505050905090810190601f1680156101af5780820380516001836020036101000a031916815260200191505b509250505060405180910390f35b3480156101c957600080fd5b5061026a600480360381019080803590602001908201803590602001908080601f0160208091040260200160405190810160405280939291908181526020018383808284378201915050505050509192919290803590602001908201803590602001908080601f0160208091040260200160405190810160405280939291908181526020018383808284378201915050505050509192919290505050610be5565b005b34801561027857600080fd5b506102d3600480360381019080803590602001908201803590602001908080601f0160208091040260200160405190810160405280939291908181526020018383808284378201915050505050509192919290505050610f38565b604051808273ffffffffffffffffffffffffffffffffffffffff1673ffffffffffffffffffffffffffffffffffffffff16815260200191505060405180910390f35b60606000806000806060806000600260003373ffffffffffffffffffffffffffffffffffffffff1673ffffffffffffffffffffffffffffffffffffffff1681526020019081526020016000209650600095506001878054905003945085851015151561038057600080fd5b6001868603016040029350836040519080825280601f01601f1916602001820160405280156103be5781602001602082028038833980820191505090505b50925060206040519080825280601f01601f1916602001820160405280156103f55781602001602082028038833980820191505090505b5091508590505b848111151561077d57868181548110151561041357fe5b906000526020600020018054600181600116156101000203166002900480601f0160208091040260200160405190810160405280929190818152602001828054600181600116156101000203166002900480156104b15780601f10610486576101008083540402835291602001916104b1565b820191906000526020600020905b81548152906001019060200180831161049457829003601f168201915b50505050509150600660009054906101000a900473ffffffffffffffffffffffffffffffffffffffff1673ffffffffffffffffffffffffffffffffffffffff1663917a781f8584866040518463ffffffff167c0100000000000000000000000000000000000000000000000000000000028152600401808481526020018060200180602001838103835285818151815260200191508051906020019080838360005b8381101561056e578082015181840152602081019050610553565b50505050905090810190601f16801561059b5780820380516001836020036101000a031916815260200191505b50838103825284818151815260200191508051906020019080838360005b838110156105d45780820151818401526020810190506105b9565b50505050905090810190601f1680156106015780820380516001836020036101000a031916815260200191505b5095505050505050600060405180830381600087803b15801561062357600080fd5b505af1158015610637573d6000803e3d6000fd5b50505050600660009054906101000a900473ffffffffffffffffffffffffffffffffffffffff1673ffffffffffffffffffffffffffffffffffffffff1663a5847862836040518263ffffffff167c01000000000000000000000000000000000000000000000000000000000281526004018080602001828103825283818151815260200191508051906020019080838360005b838110156106e55780820151818401526020810190506106ca565b50505050905090810190601f1680156107125780820380516001836020036101000a031916815260200191505b5092505050602060405180830381600087803b15801561073157600080fd5b505af1158015610745573d6000803e3d6000fd5b505050506040513d602081101561075b57600080fd5b81019080805190602001909291905050508403935080806001019150506103fc565b8297505050505050505090565b6000600354905090565b606060008090505b600480549050811015610b4457600660009054906101000a900473ffffffffffffffffffffffffffffffffffffffff1673ffffffffffffffffffffffffffffffffffffffff16634112987c60056004848154811015156107f857fe5b9060005260206000200160009054906101000a900473ffffffffffffffffffffffffffffffffffffffff1673ffffffffffffffffffffffffffffffffffffffff166310f0d44f6040518163ffffffff167c0100000000000000000000000000000000000000000000000000000000028152600401600060405180830381600087803b15801561088657600080fd5b505af115801561089a573d6000803e3d6000fd5b505050506040513d6000823e3d601f19601f8201168201806040525060208110156108c457600080fd5b8101908080516401000000008111156108dc57600080fd5b828101905060208101848111156108f257600080fd5b815185600182028301116401000000008211171561090f57600080fd5b50509291905050506040518363ffffffff167c0100000000000000000000000000000000000000000000000000000000028152600401808060200180602001806020018481038452868181546001816001161561010002031660029004815260200191508054600181600116156101000203166002900480156109d35780601f106109a8576101008083540402835291602001916109d3565b820191906000526020600020905b8154815290600101906020018083116109b657829003601f168201915b5050848103835285818151815260200191508051906020019080838360005b83811015610a0d5780820151818401526020810190506109f2565b50505050905090810190601f168015610a3a5780820380516001836020036101000a031916815260200191505b50848103825260018152602001807f200000000000000000000000000000000000000000000000000000000000000081525060200195505050505050600060405180830381600087803b158015610a9057600080fd5b505af1158015610aa4573d6000803e3d6000fd5b505050506040513d6000823e3d601f19601f820116820180604052506020811015610ace57600080fd5b810190808051640100000000811115610ae657600080fd5b82810190506020810184811115610afc57600080fd5b8151856001820283011164010000000082111715610b1957600080fd5b505092919050505060059080519060200190610b3692919061106b565b50808060010191505061079c565b60058054600181600116156101000203166002900480601f016020809104026020016040519081016040528092919081815260200182805460018160011615610100020316600290048015610bda5780601f10610baf57610100808354040283529160200191610bda565b820191906000526020600020905b815481529060010190602001808311610bbd57829003601f168201915b505050505091505090565b60008282610bf16110eb565b808060200180602001838103835285818151815260200191508051906020019080838360005b83811015610c32578082015181840152602081019050610c17565b50505050905090810190601f168015610c5f5780820380516001836020036101000a031916815260200191505b50838103825284818151815260200191508051906020019080838360005b83811015610c98578082015181840152602081019050610c7d565b50505050905090810190601f168015610cc55780820380516001836020036101000a031916815260200191505b50945050505050604051809103906000f080158015610ce8573d6000803e3d6000fd5b509050806001846040518082805190602001908083835b602083101515610d245780518252602082019150602081019050602083039250610cff565b6001836020036101000a038019825116818451168082178552505050505050905001915050908152602001604051809103902060006101000a81548173ffffffffffffffffffffffffffffffffffffffff021916908373ffffffffffffffffffffffffffffffffffffffff16021790555060048190806001815401808255809150509060018203906000526020600020016000909192909190916101000a81548173ffffffffffffffffffffffffffffffffffffffff021916908373ffffffffffffffffffffffffffffffffffffffff16021790555050806000846040518082805190602001908083835b602083101515610e345780518252602082019150602081019050602083039250610e0f565b6001836020036101000a038019825116818451168082178552505050505050905001915050908152602001604051809103902060006101000a81548173ffffffffffffffffffffffffffffffffffffffff021916908373ffffffffffffffffffffffffffffffffffffffff160217905550600360008154809291906001019190505550600260003373ffffffffffffffffffffffffffffffffffffffff1673ffffffffffffffffffffffffffffffffffffffff168152602001908152602001600020839080600181540180825580915050906001820390600052602060002001600090919290919091509080519060200190610f3192919061106b565b5050505050565b60006001826040518082805190602001908083835b602083101515610f725780518252602082019150602081019050602083039250610f4d565b6001836020036101000a038019825116818451168082178552505050505050905001915050908152602001604051809103902060009054906101000a900473ffffffffffffffffffffffffffffffffffffffff1673ffffffffffffffffffffffffffffffffffffffff166338cc48316040518163ffffffff167c0100000000000000000000000000000000000000000000000000000000028152600401602060405180830381600087803b15801561102957600080fd5b505af115801561103d573d6000803e3d6000fd5b505050506040513d602081101561105357600080fd5b81019080805190602001909291905050509050919050565b828054600181600116156101000203166002900490600052602060002090601f016020900481019282601f106110ac57805160ff19168380011785556110da565b828001600101855582156110da579182015b828111156110d95782518255916020019190600101906110be565b5b5090506110e791906110fb565b5090565b6040516122768061112183390190565b61111d91905b80821115611119576000816000905550600101611101565b5090565b90560060806040523480156200001157600080fd5b5060405162002276380380620022768339810180604052810190808051820192919060200180518201929190505050816000908051906020019062000058929190620000f0565b50806001908051906020019062000071929190620000f0565b5033600360006101000a81548173ffffffffffffffffffffffffffffffffffffffff021916908373ffffffffffffffffffffffffffffffffffffffff160217905550600060028190555060006008819055506000600960006101000a81548160ff02191690836001811115620000e357fe5b021790555050506200019f565b828054600181600116156101000203166002900490600052602060002090601f016020900481019282601f106200013357805160ff191683800117855562000164565b8280016001018555821562000164579182015b828111156200016357825182559160200191906001019062000146565b5b50905062000173919062000177565b5090565b6200019c91905b80821115620001985760008160009055506001016200017e565b5090565b90565b6120c780620001af6000396000f30060806040526004361061011d576000357c0100000000000000000000000000000000000000000000000000000000900463ffffffff1680630b2389611461012c57806310f0d44f146101bc57806325877c091461024c5780632c6e7598146102bf578063365fd9821461037b57806338cc4831146103a65780634112987c146103fd57806344b7eda11461056b57806369f9ad2f1461059657806379833e521461063d5780637d57de8c146106cd5780638004f9fa14610710578063893d20e814610768578063917a781f146107bf578063a584786214610878578063bed34bba146108f5578063c486456c146109bc578063cb13dd2c146109f5578063cc6cb19a14610a85578063f76f950e14610adc578063f9b11db714610b82575b34801561012957600080fd5b50005b34801561013857600080fd5b50610141610c2d565b6040518080602001828103825283818151815260200191508051906020019080838360005b83811015610181578082015181840152602081019050610166565b50505050905090810190601f1680156101ae5780820380516001836020036101000a031916815260200191505b509250505060405180910390f35b3480156101c857600080fd5b506101d1610ccf565b6040518080602001828103825283818151815260200191508051906020019080838360005b838110156102115780820151818401526020810190506101f6565b50505050905090810190601f16801561023e5780820380516001836020036101000a031916815260200191505b509250505060405180910390f35b34801561025857600080fd5b506102bd60048036038101908080359060200190929190803590602001908201803590602001908080601f0160208091040260200160405190810160405280939291908181526020018383808284378201915050505050509192919290505050610d71565b005b3480156102cb57600080fd5b50610300600480360381019080803573ffffffffffffffffffffffffffffffffffffffff169060200190929190505050610e0d565b6040518080602001828103825283818151815260200191508051906020019080838360005b83811015610340578082015181840152602081019050610325565b50505050905090810190601f16801561036d5780820380516001836020036101000a031916815260200191505b509250505060405180910390f35b34801561038757600080fd5b50610390611022565b6040518082815260200191505060405180910390f35b3480156103b257600080fd5b506103bb611069565b604051808273ffffffffffffffffffffffffffffffffffffffff1673ffffffffffffffffffffffffffffffffffffffff16815260200191505060405180910390f35b34801561040957600080fd5b506104f0600480360381019080803590602001908201803590602001908080601f0160208091040260200160405190810160405280939291908181526020018383808284378201915050505050509192919290803590602001908201803590602001908080601f0160208091040260200160405190810160405280939291908181526020018383808284378201915050505050509192919290803590602001908201803590602001908080601f0160208091040260200160405190810160405280939291908181526020018383808284378201915050505050509192919290505050611071565b6040518080602001828103825283818151815260200191508051906020019080838360005b83811015610530578082015181840152602081019050610515565b50505050905090810190601f16801561055d5780820380516001836020036101000a031916815260200191505b509250505060405180910390f35b34801561057757600080fd5b50610580611303565b6040518082815260200191505060405180910390f35b3480156105a257600080fd5b506105e360048036038101908080357effffffffffffffffffffffffffffffffffffffffffffffffffffffffffffff1916906020019092919050505061130d565b60405180827effffffffffffffffffffffffffffffffffffffffffffffffffffffffffffff19167effffffffffffffffffffffffffffffffffffffffffffffffffffffffffffff1916815260200191505060405180910390f35b34801561064957600080fd5b506106526113fd565b6040518080602001828103825283818151815260200191508051906020019080838360005b83811015610692578082015181840152602081019050610677565b50505050905090810190601f1680156106bf5780820380516001836020036101000a031916815260200191505b509250505060405180910390f35b3480156106d957600080fd5b5061070e600480360381019080803573ffffffffffffffffffffffffffffffffffffffff16906020019092919050505061149f565b005b61074e60048036038101908080359060200190929190803573ffffffffffffffffffffffffffffffffffffffff169060200190929190505050611524565b604051808215151515815260200191505060405180910390f35b34801561077457600080fd5b5061077d611773565b604051808273ffffffffffffffffffffffffffffffffffffffff1673ffffffffffffffffffffffffffffffffffffffff16815260200191505060405180910390f35b3480156107cb57600080fd5b5061087660048036038101908080359060200190929190803590602001908201803590602001908080601f0160208091040260200160405190810160405280939291908181526020018383808284378201915050505050509192919290803590602001908201803590602001908080601f016020809104026020016040519081016040528093929190818152602001838380828437820191505050505050919291929050505061179d565b005b34801561088457600080fd5b506108df600480360381019080803590602001908201803590602001908080601f0160208091040260200160405190810160405280939291908181526020018383808284378201915050505050509192919290505050611802565b6040518082815260200191505060405180910390f35b34801561090157600080fd5b506109a2600480360381019080803590602001908201803590602001908080601f0160208091040260200160405190810160405280939291908181526020018383808284378201915050505050509192919290803590602001908201803590602001908080601f0160208091040260200160405190810160405280939291908181526020018383808284378201915050505050509192919290505050611847565b604051808215151515815260200191505060405180910390f35b3480156109c857600080fd5b506109d16119f8565b604051808260018111156109e157fe5b60ff16815260200191505060405180910390f35b348015610a0157600080fd5b50610a0a611a0b565b6040518080602001828103825283818151815260200191508051906020019080838360005b83811015610a4a578082015181840152602081019050610a2f565b50505050905090810190601f168015610a775780820380516001836020036101000a031916815260200191505b509250505060405180910390f35b348015610a9157600080fd5b50610ac6600480360381019080803573ffffffffffffffffffffffffffffffffffffffff169060200190929190505050611aad565b6040518082815260200191505060405180910390f35b348015610ae857600080fd5b50610b0760048036038101908080359060200190929190505050611ac5565b6040518080602001828103825283818151815260200191508051906020019080838360005b83811015610b47578082015181840152602081019050610b2c565b50505050905090810190601f168015610b745780820380516001836020036101000a031916815260200191505b509250505060405180910390f35b348015610b8e57600080fd5b50610c1360048036038101908080359060200190929190803590602001908201803590602001908080601f0160208091040260200160405190810160405280939291908181526020018383808284378201915050505050509192919290803573ffffffffffffffffffffffffffffffffffffffff169060200190929190505050611c1c565b604051808215151515815260200191505060405180910390f35b606060018054600181600116156101000203166002900480601f016020809104026020016040519081016040528092919081815260200182805460018160011615610100020316600290048015610cc55780601f10610c9a57610100808354040283529160200191610cc5565b820191906000526020600020905b815481529060010190602001808311610ca857829003601f168201915b5050505050905090565b606060008054600181600116156101000203166002900480601f016020809104026020016040519081016040528092919081815260200182805460018160011615610100020316600290048015610d675780601f10610d3c57610100808354040283529160200191610d67565b820191906000526020600020905b815481529060010190602001808311610d4a57829003601f168201915b5050505050905090565b6006610d7c83611ac5565b9080600181540180825580915050906001820390600052602060002001600090919290919091509080519060200190610db6929190611ff6565b50506007819080600181540180825580915050906001820390600052602060002001600090919290919091509080519060200190610df5929190611ff6565b50506008600081548092919060010191905055505050565b60608060008060008060286040519080825280601f01601f191660200182016040528015610e4a5781602001602082028038833980820191505090505b509450600093505b6014841015611015578360130360080260020a8773ffffffffffffffffffffffffffffffffffffffff16811515610e8557fe5b047f01000000000000000000000000000000000000000000000000000000000000000292506010837f0100000000000000000000000000000000000000000000000000000000000000900460ff16811515610edc57fe5b047f0100000000000000000000000000000000000000000000000000000000000000029150817f01000000000000000000000000000000000000000000000000000000000000009004601002837f01000000000000000000000000000000000000000000000000000000000000009004037f0100000000000000000000000000000000000000000000000000000000000000029050610f7a8261130d565b8585600202815181101515610f8b57fe5b9060200101907effffffffffffffffffffffffffffffffffffffffffffffffffffffffffffff1916908160001a905350610fc48161130d565b8560018660020201815181101515610fd857fe5b9060200101907effffffffffffffffffffffffffffffffffffffffffffffffffffffffffffff1916908160001a9053508380600101945050610e52565b8495505050505050919050565b6000600560003373ffffffffffffffffffffffffffffffffffffffff1673ffffffffffffffffffffffffffffffffffffffff16815260200190815260200160002054905090565b600030905090565b6060806060806060806000808a965089955088945084518651885101016040519080825280601f01601f1916602001820160405280156110c05781602001602082028038833980820191505090505b50935083925060009150600090505b86518110156111825786818151811015156110e657fe5b9060200101517f010000000000000000000000000000000000000000000000000000000000000090047f010000000000000000000000000000000000000000000000000000000000000002838380600101945081518110151561114557fe5b9060200101907effffffffffffffffffffffffffffffffffffffffffffffffffffffffffffff1916908160001a90535080806001019150506110cf565b600090505b855181101561123a57858181518110151561119e57fe5b9060200101517f010000000000000000000000000000000000000000000000000000000000000090047f01000000000000000000000000000000000000000000000000000000000000000283838060010194508151811015156111fd57fe5b9060200101907effffffffffffffffffffffffffffffffffffffffffffffffffffffffffffff1916908160001a9053508080600101915050611187565b600090505b84518110156112f257848181518110151561125657fe5b9060200101517f010000000000000000000000000000000000000000000000000000000000000090047f01000000000000000000000000000000000000000000000000000000000000000283838060010194508151811015156112b557fe5b9060200101907effffffffffffffffffffffffffffffffffffffffffffffffffffffffffffff1916908160001a905350808060010191505061123f565b829750505050505050509392505050565b6000600254905090565b6000600a7f010000000000000000000000000000000000000000000000000000000000000002827effffffffffffffffffffffffffffffffffffffffffffffffffffffffffffff191610156113ac576030827f01000000000000000000000000000000000000000000000000000000000000009004017f01000000000000000000000000000000000000000000000000000000000000000290506113f8565b6057827f01000000000000000000000000000000000000000000000000000000000000009004017f01000000000000000000000000000000000000000000000000000000000000000290505b919050565b606060006008541115156114535761144c6000806040805190810160405280601781526020017f7472616e73616374696f6e4465736372697074696f6e73000000000000000000815250611dc1565b905061149c565b61149960006001600854036040805190810160405280601781526020017f7472616e73616374696f6e4465736372697074696f6e73000000000000000000815250611dc1565b90505b90565b80600360009054906101000a900473ffffffffffffffffffffffffffffffffffffffff1673ffffffffffffffffffffffffffffffffffffffff168173ffffffffffffffffffffffffffffffffffffffff161415156114fc57600080fd5b6001600960006101000a81548160ff0219169083600181111561151b57fe5b02179055505050565b600080600960009054906101000a900460ff16600181111561154257fe5b6000600181111561154f57fe5b14151561155b57600080fd5b83600560008573ffffffffffffffffffffffffffffffffffffffff1673ffffffffffffffffffffffffffffffffffffffff168152602001908152602001600020540190506000600560008573ffffffffffffffffffffffffffffffffffffffff1673ffffffffffffffffffffffffffffffffffffffff1681526020019081526020016000205411156116305780600560008573ffffffffffffffffffffffffffffffffffffffff1673ffffffffffffffffffffffffffffffffffffffff168152602001908152602001600020819055506116db565b80600560008573ffffffffffffffffffffffffffffffffffffffff1673ffffffffffffffffffffffffffffffffffffffff1681526020019081526020016000208190555060048390806001815401808255809150509060018203906000526020600020016000909192909190916101000a81548173ffffffffffffffffffffffffffffffffffffffff021916908373ffffffffffffffffffffffffffffffffffffffff160217905550505b836002600082825401925050819055506116fd846116f885610e0d565b610d71565b7f4a738e144fcebc2a2453dde8472c2fe125988d7508d635d71a45886efcf500063334604051808373ffffffffffffffffffffffffffffffffffffffff1673ffffffffffffffffffffffffffffffffffffffff1681526020018281526020019250505060405180910390a1600191505092915050565b6000600360009054906101000a900473ffffffffffffffffffffffffffffffffffffffff16905090565b6000602083518115156117ac57fe5b0490506000602084518115156117be57fe5b0611156117ce5780806001019150505b60018101905060005b818110156117fb5760208102840151858401526020850394506001810190506117d7565b5050505050565b60006020825181151561181157fe5b04905060006020835181151561182357fe5b061415156118345780806001019150505b8080600101915050602081029050919050565b6000816040516020018082805190602001908083835b602083101515611882578051825260208201915060208101905060208303925061185d565b6001836020036101000a0380198251168184511680821785525050505050509050019150506040516020818303038152906040526040518082805190602001908083835b6020831015156118eb57805182526020820191506020810190506020830392506118c6565b6001836020036101000a038019825116818451168082178552505050505050905001915050604051809103902060001916836040516020018082805190602001908083835b6020831015156119555780518252602082019150602081019050602083039250611930565b6001836020036101000a0380198251168184511680821785525050505050509050019150506040516020818303038152906040526040518082805190602001908083835b6020831015156119be5780518252602082019150602081019050602083039250611999565b6001836020036101000a03801982511681845116808217855250505050505090500191505060405180910390206000191614905092915050565b600960009054906101000a900460ff1681565b60606000600854111515611a6157611a5a6000806040805190810160405280601281526020017f7472616e73616374696f6e416d6f756e74730000000000000000000000000000815250611dc1565b9050611aaa565b611aa760006001600854036040805190810160405280601281526020017f7472616e73616374696f6e416d6f756e74730000000000000000000000000000815250611dc1565b90505b90565b60056020528060005260406000206000915090505481565b60606000806060600080861415611b13576040805190810160405280600181526020017f30000000000000000000000000000000000000000000000000000000000000008152509450611c13565b8593505b600084141515611b3d578280600101935050600a84811515611b3557fe5b049350611b17565b826040519080825280601f01601f191660200182016040528015611b705781602001602082028038833980820191505090505b5091506001830390505b600086141515611c0f57600a86811515611b9057fe5b066030017f010000000000000000000000000000000000000000000000000000000000000002828280600190039350815181101515611bcb57fe5b9060200101907effffffffffffffffffffffffffffffffffffffffffffffffffffffffffffff1916908160001a905350600a86811515611c0757fe5b049550611b7a565b8194505b50505050919050565b600081600360009054906101000a900473ffffffffffffffffffffffffffffffffffffffff1673ffffffffffffffffffffffffffffffffffffffff168173ffffffffffffffffffffffffffffffffffffffff16141515611c7b57600080fd5b8460025410151515611c8c57600080fd5b611c968585610d71565b3373ffffffffffffffffffffffffffffffffffffffff166108fc869081150290604051600060405180830381858888f19350505050158015611cdc573d6000803e3d6000fd5b507fe06a6d1c7f674346f19f69fd037afee6c37e69d5b2dbd7b436526737169c0507338686604051808473ffffffffffffffffffffffffffffffffffffffff1673ffffffffffffffffffffffffffffffffffffffff16815260200183815260200180602001828103825283818151815260200191508051906020019080838360005b83811015611d79578082015181840152602081019050611d5e565b50505050905090810190601f168015611da65780820380516001836020036101000a031916815260200191505b5094505050505060405180910390a160019150509392505050565b6060600080606080600060069450611e0e876040805190810160405280601281526020017f7472616e73616374696f6e416d6f756e74730000000000000000000000000000815250611847565b15611e1857600694505b611e57876040805190810160405280601781526020017f7472616e73616374696f6e4465736372697074696f6e73000000000000000000815250611847565b15611e6157600794505b888810151515611e7057600080fd5b6001858054905003881115611e8a57600185805490500397505b6001898903016040029350836040519080825280601f01601f191660200182016040528015611ec85781602001602082028038833980820191505090505b50925060206040519080825280601f01601f191660200182016040528015611eff5781602001602082028038833980820191505090505b5091508890505b8781111515611fe7578481815481101515611f1d57fe5b906000526020600020018054600181600116156101000203166002900480601f016020809104026020016040519081016040528092919081815260200182805460018160011615610100020316600290048015611fbb5780601f10611f9057610100808354040283529160200191611fbb565b820191906000526020600020905b815481529060010190602001808311611f9e57829003601f168201915b50505050509150611fcd84838561179d565b611fd682611802565b840393508080600101915050611f06565b82955050505050509392505050565b828054600181600116156101000203166002900490600052602060002090601f016020900481019282601f1061203757805160ff1916838001178555612065565b82800160010185558215612065579182015b82811115612064578251825591602001919060010190612049565b5b5090506120729190612076565b5090565b61209891905b8082111561209457600081600090555060010161207c565b5090565b905600a165627a7a723058206c1256f83a287628a8b9852356cff6cc1e1b9b161a3909893345b34b78303afe0029a165627a7a723058202b7c5906fb05110755e9fd9ac08fc74df78831ba14239b095265711c708f1b010029608060405234801561001057600080fd5b50610f71806100206000396000f300608060405260043610610083576000357c0100000000000000000000000000000000000000000000000000000000900463ffffffff1680632c6e7598146100885780634112987c1461014457806369f9ad2f146102b2578063917a781f14610359578063a584786214610412578063bed34bba1461048f578063f76f950e14610556575b600080fd5b34801561009457600080fd5b506100c9600480360381019080803573ffffffffffffffffffffffffffffffffffffffff1690602001909291905050506105fc565b6040518080602001828103825283818151815260200191508051906020019080838360005b838110156101095780820151818401526020810190506100ee565b50505050905090810190601f1680156101365780820380516001836020036101000a031916815260200191505b509250505060405180910390f35b34801561015057600080fd5b50610237600480360381019080803590602001908201803590602001908080601f0160208091040260200160405190810160405280939291908181526020018383808284378201915050505050509192919290803590602001908201803590602001908080601f0160208091040260200160405190810160405280939291908181526020018383808284378201915050505050509192919290803590602001908201803590602001908080601f0160208091040260200160405190810160405280939291908181526020018383808284378201915050505050509192919290505050610811565b6040518080602001828103825283818151815260200191508051906020019080838360005b8381101561027757808201518184015260208101905061025c565b50505050905090810190601f1680156102a45780820380516001836020036101000a031916815260200191505b509250505060405180910390f35b3480156102be57600080fd5b506102ff60048036038101908080357effffffffffffffffffffffffffffffffffffffffffffffffffffffffffffff19169060200190929190505050610aa3565b60405180827effffffffffffffffffffffffffffffffffffffffffffffffffffffffffffff19167effffffffffffffffffffffffffffffffffffffffffffffffffffffffffffff1916815260200191505060405180910390f35b34801561036557600080fd5b5061041060048036038101908080359060200190929190803590602001908201803590602001908080601f0160208091040260200160405190810160405280939291908181526020018383808284378201915050505050509192919290803590602001908201803590602001908080601f0160208091040260200160405190810160405280939291908181526020018383808284378201915050505050509192919290505050610b93565b005b34801561041e57600080fd5b50610479600480360381019080803590602001908201803590602001908080601f0160208091040260200160405190810160405280939291908181526020018383808284378201915050505050509192919290505050610bf8565b6040518082815260200191505060405180910390f35b34801561049b57600080fd5b5061053c600480360381019080803590602001908201803590602001908080601f0160208091040260200160405190810160405280939291908181526020018383808284378201915050505050509192919290803590602001908201803590602001908080601f0160208091040260200160405190810160405280939291908181526020018383808284378201915050505050509192919290505050610c3d565b604051808215151515815260200191505060405180910390f35b34801561056257600080fd5b5061058160048036038101908080359060200190929190505050610dee565b6040518080602001828103825283818151815260200191508051906020019080838360005b838110156105c15780820151818401526020810190506105a6565b50505050905090810190601f1680156105ee5780820380516001836020036101000a031916815260200191505b509250505060405180910390f35b60608060008060008060286040519080825280601f01601f1916602001820160405280156106395781602001602082028038833980820191505090505b509450600093505b6014841015610804578360130360080260020a8773ffffffffffffffffffffffffffffffffffffffff1681151561067457fe5b047f01000000000000000000000000000000000000000000000000000000000000000292506010837f0100000000000000000000000000000000000000000000000000000000000000900460ff168115156106cb57fe5b047f0100000000000000000000000000000000000000000000000000000000000000029150817f01000000000000000000000000000000000000000000000000000000000000009004601002837f01000000000000000000000000000000000000000000000000000000000000009004037f010000000000000000000000000000000000000000000000000000000000000002905061076982610aa3565b858560020281518110151561077a57fe5b9060200101907effffffffffffffffffffffffffffffffffffffffffffffffffffffffffffff1916908160001a9053506107b381610aa3565b85600186600202018151811015156107c757fe5b9060200101907effffffffffffffffffffffffffffffffffffffffffffffffffffffffffffff1916908160001a9053508380600101945050610641565b8495505050505050919050565b6060806060806060806000808a965089955088945084518651885101016040519080825280601f01601f1916602001820160405280156108605781602001602082028038833980820191505090505b50935083925060009150600090505b865181101561092257868181518110151561088657fe5b9060200101517f010000000000000000000000000000000000000000000000000000000000000090047f01000000000000000000000000000000000000000000000000000000000000000283838060010194508151811015156108e557fe5b9060200101907effffffffffffffffffffffffffffffffffffffffffffffffffffffffffffff1916908160001a905350808060010191505061086f565b600090505b85518110156109da57858181518110151561093e57fe5b9060200101517f010000000000000000000000000000000000000000000000000000000000000090047f010000000000000000000000000000000000000000000000000000000000000002838380600101945081518110151561099d57fe5b9060200101907effffffffffffffffffffffffffffffffffffffffffffffffffffffffffffff1916908160001a9053508080600101915050610927565b600090505b8451811015610a925784818151811015156109f657fe5b9060200101517f010000000000000000000000000000000000000000000000000000000000000090047f0100000000000000000000000000000000000000000000000000000000000000028383806001019450815181101515610a5557fe5b9060200101907effffffffffffffffffffffffffffffffffffffffffffffffffffffffffffff1916908160001a90535080806001019150506109df565b829750505050505050509392505050565b6000600a7f010000000000000000000000000000000000000000000000000000000000000002827effffffffffffffffffffffffffffffffffffffffffffffffffffffffffffff19161015610b42576030827f01000000000000000000000000000000000000000000000000000000000000009004017f0100000000000000000000000000000000000000000000000000000000000000029050610b8e565b6057827f01000000000000000000000000000000000000000000000000000000000000009004017f01000000000000000000000000000000000000000000000000000000000000000290505b919050565b600060208351811515610ba257fe5b049050600060208451811515610bb457fe5b061115610bc45780806001019150505b60018101905060005b81811015610bf1576020810284015185840152602085039450600181019050610bcd565b5050505050565b600060208251811515610c0757fe5b049050600060208351811515610c1957fe5b06141515610c2a5780806001019150505b8080600101915050602081029050919050565b6000816040516020018082805190602001908083835b602083101515610c785780518252602082019150602081019050602083039250610c53565b6001836020036101000a0380198251168184511680821785525050505050509050019150506040516020818303038152906040526040518082805190602001908083835b602083101515610ce15780518252602082019150602081019050602083039250610cbc565b6001836020036101000a038019825116818451168082178552505050505050905001915050604051809103902060001916836040516020018082805190602001908083835b602083101515610d4b5780518252602082019150602081019050602083039250610d26565b6001836020036101000a0380198251168184511680821785525050505050509050019150506040516020818303038152906040526040518082805190602001908083835b602083101515610db45780518252602082019150602081019050602083039250610d8f565b6001836020036101000a03801982511681845116808217855250505050505090500191505060405180910390206000191614905092915050565b60606000806060600080861415610e3c576040805190810160405280600181526020017f30000000000000000000000000000000000000000000000000000000000000008152509450610f3c565b8593505b600084141515610e66578280600101935050600a84811515610e5e57fe5b049350610e40565b826040519080825280601f01601f191660200182016040528015610e995781602001602082028038833980820191505090505b5091506001830390505b600086141515610f3857600a86811515610eb957fe5b066030017f010000000000000000000000000000000000000000000000000000000000000002828280600190039350815181101515610ef457fe5b9060200101907effffffffffffffffffffffffffffffffffffffffffffffffffffffffffffff1916908160001a905350600a86811515610f3057fe5b049550610ea3565b8194505b505050509190505600a165627a7a723058203ad2f7866ac1c40f1ddd3eb5d8815725432d79f2baf11ea54b15a43978e834250029",
  "source": "pragma solidity ^0.4.25;\n\nimport './Charity.sol';\nimport './Helpers.sol';\n\ncontract CharitableDonations {\n\tmapping(string => address) charityNameToContractAddr;\n\tmapping(string => Charity) charityNameToCharityObject;\n\tmapping(address => string[]) userAddrToCharityName;\n\tuint charityCount;\n\tCharity[] charities;\n\tstring charityNamesRet;\n\tHelpers h;\n\n\tconstructor() public {\n\t\th = new Helpers();\n\t}\n\n\tfunction deployCharity(string name, string description) public {\n\t\t//TODO Deploy charity contract (child) and add to mapping structures\n\n\t\t// Create charity\n\t\tCharity c = new Charity(name, description);\n\n\t\t// Add charity C to name to charity hashmap\n\t\tcharityNameToCharityObject[name] = c;\n\n\t\t// Add charity to charity array\n\t\tcharities.push(c);\n\n\t\t// Add charity address to name to charity address hashmap\n\t\tcharityNameToContractAddr[name] = address(c);\n\n\t\t// Increment charity count\n\t\tcharityCount++;\n\n\t\t// Add charity name to string array of charities owned by an address (hashmap)\n\t\tuserAddrToCharityName[msg.sender].push(name);\n\t}\n\n\t// Get all charity names as a single string with spaces\n\tfunction getCharityNames() public returns (string){\n\t\tfor (uint i = 0; i < charities.length; i++) {\n\t\t\tcharityNamesRet = h.strConcat(charityNamesRet, charities[i].getCharityName(), \" \");\n\t\t}\n\t\treturn charityNamesRet;\n\t}\n\n\t// Get all charity names from the msg.sender AS BYTES\n\tfunction getUsersCharitites() public view returns (bytes) {\n\t\tstring[] storage array = userAddrToCharityName[msg.sender];\n\t\tuint startindex = 0;\n\t\tuint endindex = array.length - 1;\n\t\trequire(endindex >= startindex);\n\n\t\t//64 byte is needed for safe storage of a single string.\n\t\t//((endindex - startindex) + 1) is the number of strings we want to pull out.\n\t\tuint offset = 64 * ((endindex - startindex) + 1);\n\n\t\tbytes memory buffer = new  bytes(offset);\n\t\tstring memory out1 = new string(32);\n\n\n\t\tfor (uint i = startindex; i <= endindex; i++) {\n\t\t\tout1 = array[i];\n\n\t\t\th.stringToBytes(offset, bytes(out1), buffer);\n\t\t\toffset -= h.sizeOfString(out1);\n\t\t}\n\n\t\treturn (buffer);\n\t}\n\n\t// Get total number of charities\n\tfunction getNumCharities() public view returns (uint) {\n\t\treturn charityCount;\n\t}\n\n\t// Get chairity address from charity name\n\tfunction getChairityAddress(string name) public view returns (address){\n\t\treturn charityNameToCharityObject[name].getAddress();\n\t}\n}\n",
  "sourcePath": "/Users/SummitDrift/Dropbox/Web/Classes/cs481/test/Charity-Blockchain/contracts/CharitableDonations.sol",
  "compiler": {
    "name": "solc",
    "version": "0.4.25+commit.59dbf8f1.Emscripten.clang"
  },
  "schemaVersion": "3.0.6",
  "updatedAt": "2019-04-24T01:55:43.342Z",
  "devdoc": {
    "methods": {}
  },
  "userdoc": {
    "methods": {}
  }
}