{
  "contractName": "Helpers",
  "abi": [
    {
      "constant": true,
      "inputs": [
        {
          "name": "i",
          "type": "uint256"
        }
      ],
      "name": "uint2str",
      "outputs": [
        {
          "name": "",
          "type": "string"
        }
      ],
      "payable": false,
      "stateMutability": "pure",
      "type": "function"
    },
    {
      "constant": true,
      "inputs": [
        {
          "name": "_in",
          "type": "string"
        }
      ],
      "name": "sizeOfString",
      "outputs": [
        {
          "name": "_size",
          "type": "uint256"
        }
      ],
      "payable": false,
      "stateMutability": "pure",
      "type": "function"
    },
    {
      "constant": true,
      "inputs": [
        {
          "name": "_offst",
          "type": "uint256"
        },
        {
          "name": "_input",
          "type": "bytes"
        },
        {
          "name": "_output",
          "type": "bytes"
        }
      ],
      "name": "stringToBytes",
      "outputs": [],
      "payable": false,
      "stateMutability": "pure",
      "type": "function"
    },
    {
      "constant": true,
      "inputs": [
        {
          "name": "a",
          "type": "string"
        },
        {
          "name": "b",
          "type": "string"
        }
      ],
      "name": "compareStrings",
      "outputs": [
        {
          "name": "",
          "type": "bool"
        }
      ],
      "payable": false,
      "stateMutability": "pure",
      "type": "function"
    },
    {
      "constant": true,
      "inputs": [
        {
          "name": "x",
          "type": "address"
        }
      ],
      "name": "toAsciiString",
      "outputs": [
        {
          "name": "",
          "type": "string"
        }
      ],
      "payable": false,
      "stateMutability": "pure",
      "type": "function"
    },
    {
      "constant": true,
      "inputs": [
        {
          "name": "b",
          "type": "bytes1"
        }
      ],
      "name": "char",
      "outputs": [
        {
          "name": "c",
          "type": "bytes1"
        }
      ],
      "payable": false,
      "stateMutability": "pure",
      "type": "function"
    },
    {
      "constant": true,
      "inputs": [
        {
          "name": "a",
          "type": "string"
        },
        {
          "name": "b",
          "type": "string"
        },
        {
          "name": "c",
          "type": "string"
        }
      ],
      "name": "strConcat",
      "outputs": [
        {
          "name": "",
          "type": "string"
        }
      ],
      "payable": false,
      "stateMutability": "pure",
      "type": "function"
    }
  ],
  "bytecode": "0x608060405234801561001057600080fd5b50610f71806100206000396000f300608060405260043610610083576000357c0100000000000000000000000000000000000000000000000000000000900463ffffffff1680632c6e7598146100885780634112987c1461014457806369f9ad2f146102b2578063917a781f14610359578063a584786214610412578063bed34bba1461048f578063f76f950e14610556575b600080fd5b34801561009457600080fd5b506100c9600480360381019080803573ffffffffffffffffffffffffffffffffffffffff1690602001909291905050506105fc565b6040518080602001828103825283818151815260200191508051906020019080838360005b838110156101095780820151818401526020810190506100ee565b50505050905090810190601f1680156101365780820380516001836020036101000a031916815260200191505b509250505060405180910390f35b34801561015057600080fd5b50610237600480360381019080803590602001908201803590602001908080601f0160208091040260200160405190810160405280939291908181526020018383808284378201915050505050509192919290803590602001908201803590602001908080601f0160208091040260200160405190810160405280939291908181526020018383808284378201915050505050509192919290803590602001908201803590602001908080601f0160208091040260200160405190810160405280939291908181526020018383808284378201915050505050509192919290505050610811565b6040518080602001828103825283818151815260200191508051906020019080838360005b8381101561027757808201518184015260208101905061025c565b50505050905090810190601f1680156102a45780820380516001836020036101000a031916815260200191505b509250505060405180910390f35b3480156102be57600080fd5b506102ff60048036038101908080357effffffffffffffffffffffffffffffffffffffffffffffffffffffffffffff19169060200190929190505050610aa3565b60405180827effffffffffffffffffffffffffffffffffffffffffffffffffffffffffffff19167effffffffffffffffffffffffffffffffffffffffffffffffffffffffffffff1916815260200191505060405180910390f35b34801561036557600080fd5b5061041060048036038101908080359060200190929190803590602001908201803590602001908080601f0160208091040260200160405190810160405280939291908181526020018383808284378201915050505050509192919290803590602001908201803590602001908080601f0160208091040260200160405190810160405280939291908181526020018383808284378201915050505050509192919290505050610b93565b005b34801561041e57600080fd5b50610479600480360381019080803590602001908201803590602001908080601f0160208091040260200160405190810160405280939291908181526020018383808284378201915050505050509192919290505050610bf8565b6040518082815260200191505060405180910390f35b34801561049b57600080fd5b5061053c600480360381019080803590602001908201803590602001908080601f0160208091040260200160405190810160405280939291908181526020018383808284378201915050505050509192919290803590602001908201803590602001908080601f0160208091040260200160405190810160405280939291908181526020018383808284378201915050505050509192919290505050610c3d565b604051808215151515815260200191505060405180910390f35b34801561056257600080fd5b5061058160048036038101908080359060200190929190505050610dee565b6040518080602001828103825283818151815260200191508051906020019080838360005b838110156105c15780820151818401526020810190506105a6565b50505050905090810190601f1680156105ee5780820380516001836020036101000a031916815260200191505b509250505060405180910390f35b60608060008060008060286040519080825280601f01601f1916602001820160405280156106395781602001602082028038833980820191505090505b509450600093505b6014841015610804578360130360080260020a8773ffffffffffffffffffffffffffffffffffffffff1681151561067457fe5b047f01000000000000000000000000000000000000000000000000000000000000000292506010837f0100000000000000000000000000000000000000000000000000000000000000900460ff168115156106cb57fe5b047f0100000000000000000000000000000000000000000000000000000000000000029150817f01000000000000000000000000000000000000000000000000000000000000009004601002837f01000000000000000000000000000000000000000000000000000000000000009004037f010000000000000000000000000000000000000000000000000000000000000002905061076982610aa3565b858560020281518110151561077a57fe5b9060200101907effffffffffffffffffffffffffffffffffffffffffffffffffffffffffffff1916908160001a9053506107b381610aa3565b85600186600202018151811015156107c757fe5b9060200101907effffffffffffffffffffffffffffffffffffffffffffffffffffffffffffff1916908160001a9053508380600101945050610641565b8495505050505050919050565b6060806060806060806000808a965089955088945084518651885101016040519080825280601f01601f1916602001820160405280156108605781602001602082028038833980820191505090505b50935083925060009150600090505b865181101561092257868181518110151561088657fe5b9060200101517f010000000000000000000000000000000000000000000000000000000000000090047f01000000000000000000000000000000000000000000000000000000000000000283838060010194508151811015156108e557fe5b9060200101907effffffffffffffffffffffffffffffffffffffffffffffffffffffffffffff1916908160001a905350808060010191505061086f565b600090505b85518110156109da57858181518110151561093e57fe5b9060200101517f010000000000000000000000000000000000000000000000000000000000000090047f010000000000000000000000000000000000000000000000000000000000000002838380600101945081518110151561099d57fe5b9060200101907effffffffffffffffffffffffffffffffffffffffffffffffffffffffffffff1916908160001a9053508080600101915050610927565b600090505b8451811015610a925784818151811015156109f657fe5b9060200101517f010000000000000000000000000000000000000000000000000000000000000090047f0100000000000000000000000000000000000000000000000000000000000000028383806001019450815181101515610a5557fe5b9060200101907effffffffffffffffffffffffffffffffffffffffffffffffffffffffffffff1916908160001a90535080806001019150506109df565b829750505050505050509392505050565b6000600a7f010000000000000000000000000000000000000000000000000000000000000002827effffffffffffffffffffffffffffffffffffffffffffffffffffffffffffff19161015610b42576030827f01000000000000000000000000000000000000000000000000000000000000009004017f0100000000000000000000000000000000000000000000000000000000000000029050610b8e565b6057827f01000000000000000000000000000000000000000000000000000000000000009004017f01000000000000000000000000000000000000000000000000000000000000000290505b919050565b600060208351811515610ba257fe5b049050600060208451811515610bb457fe5b061115610bc45780806001019150505b60018101905060005b81811015610bf1576020810284015185840152602085039450600181019050610bcd565b5050505050565b600060208251811515610c0757fe5b049050600060208351811515610c1957fe5b06141515610c2a5780806001019150505b8080600101915050602081029050919050565b6000816040516020018082805190602001908083835b602083101515610c785780518252602082019150602081019050602083039250610c53565b6001836020036101000a0380198251168184511680821785525050505050509050019150506040516020818303038152906040526040518082805190602001908083835b602083101515610ce15780518252602082019150602081019050602083039250610cbc565b6001836020036101000a038019825116818451168082178552505050505050905001915050604051809103902060001916836040516020018082805190602001908083835b602083101515610d4b5780518252602082019150602081019050602083039250610d26565b6001836020036101000a0380198251168184511680821785525050505050509050019150506040516020818303038152906040526040518082805190602001908083835b602083101515610db45780518252602082019150602081019050602083039250610d8f565b6001836020036101000a03801982511681845116808217855250505050505090500191505060405180910390206000191614905092915050565b60606000806060600080861415610e3c576040805190810160405280600181526020017f30000000000000000000000000000000000000000000000000000000000000008152509450610f3c565b8593505b600084141515610e66578280600101935050600a84811515610e5e57fe5b049350610e40565b826040519080825280601f01601f191660200182016040528015610e995781602001602082028038833980820191505090505b5091506001830390505b600086141515610f3857600a86811515610eb957fe5b066030017f010000000000000000000000000000000000000000000000000000000000000002828280600190039350815181101515610ef457fe5b9060200101907effffffffffffffffffffffffffffffffffffffffffffffffffffffffffffff1916908160001a905350600a86811515610f3057fe5b049550610ea3565b8194505b505050509190505600a165627a7a723058203ad2f7866ac1c40f1ddd3eb5d8815725432d79f2baf11ea54b15a43978e834250029",
  "source": "pragma solidity ^0.4.25;\n\ncontract Helpers {\n\t// ------------------------ HELPER FUNCTIONS ------------------------ //\n\t// Convert uint to string (https://ethereum.stackexchange.com/questions/6591/conversion-of-uint-to-string)\n\tfunction uint2str(uint i)  public pure returns (string){\n\t\tif (i == 0) return \"0\";\n\t\tuint j = i;\n\t\tuint length;\n\t\twhile (j != 0) {\n\t\t\tlength++;\n\t\t\tj /= 10;\n\t\t}\n\t\tbytes memory bstr = new bytes(length);\n\t\tuint k = length - 1;\n\t\twhile (i != 0) {\n\t\t\tbstr[k--] = byte(48 + i % 10);\n\t\t\ti /= 10;\n\t\t}\n\t\treturn string(bstr);\n\t}\n\n\t// Get size of String (from https://github.com/pouladzade/Seriality/blob/master/src/SizeOf.sol)\n\tfunction sizeOfString(string memory _in) public pure returns (uint _size) {\n\t\t_size = bytes(_in).length / 32;\n\t\tif (bytes(_in).length % 32 != 0)\n\t\t\t_size++;\n\n\t\t_size++;\n\t\t// first 32 bytes is reserved for the size of the string\n\t\t_size *= 32;\n\t}\n\n\t// Convert String to bytes (from https://github.com/pouladzade/Seriality/blob/master/src/TypesToBytes.sol)\n\tfunction stringToBytes(uint _offst, bytes memory _input, bytes memory _output) public pure {\n\t\tuint256 stack_size = _input.length / 32;\n\t\tif (_input.length % 32 > 0) stack_size++;\n\n\t\tassembly {\n\t\t\tstack_size := add(stack_size, 1)//adding because of 32 first bytes memory as the length\n\t\t\tfor {let index := 0} lt(index, stack_size){index := add(index, 1)} {\n\t\t\t\tmstore(add(_output, _offst), mload(add(_input, mul(index, 32))))\n\t\t\t\t_offst := sub(_offst, 32)\n\t\t\t}\n\t\t}\n\t}\n\n\t// utility function to compare strings\n\tfunction compareStrings(string a, string b) public pure returns (bool){\n\t\treturn keccak256(abi.encodePacked(a)) == keccak256(abi.encodePacked(b));\n\t}\n\n\t// Address to string (https://ethereum.stackexchange.com/questions/8346/convert-address-to-string)\n\tfunction toAsciiString(address x) public pure returns (string) {\n\t\tbytes memory s = new bytes(40);\n\t\tfor (uint i = 0; i < 20; i++) {\n\t\t\tbyte b = byte(uint8(uint(x) / (2 ** (8 * (19 - i)))));\n\t\t\tbyte hi = byte(uint8(b) / 16);\n\t\t\tbyte lo = byte(uint8(b) - 16 * uint8(hi));\n\t\t\ts[2 * i] = char(hi);\n\t\t\ts[2 * i + 1] = char(lo);\n\t\t}\n\t\treturn string(s);\n\t}\n\n\tfunction char(byte b) public pure returns (byte c) {\n\t\tif (b < 10) return byte(uint8(b) + 0x30);\n\t\telse return byte(uint8(b) + 0x57);\n\t}\n\n\t// String concat\n\tfunction strConcat(string a, string b, string c) public pure returns (string){\n\t\tbytes memory ba = bytes(a);\n\t\tbytes memory bb = bytes(b);\n\t\tbytes memory bc = bytes(c);\n\n\t\tstring memory str = new string(ba.length + bb.length + bc.length);\n\t\tbytes memory bStr = bytes(str);\n\t\tuint k = 0;\n\t\tfor (uint i = 0; i < ba.length; i++) {\n\t\t\tbStr[k++] = ba[i];\n\t\t}\n\t\tfor (i = 0; i < bb.length; i++) {\n\t\t\tbStr[k++] = bb[i];\n\t\t}\n\t\tfor (i = 0; i < bc.length; i++) {\n\t\t\tbStr[k++] = bc[i];\n\t\t}\n\n\n\t\treturn string(bStr);\n\t}\n}",
  "sourcePath": "/Users/SummitDrift/Dropbox/Web/Classes/cs481/test/Charity-Blockchain/contracts/Helpers.sol",
  "compiler": {
    "name": "solc",
    "version": "0.4.25+commit.59dbf8f1.Emscripten.clang"
  },
  "schemaVersion": "3.0.6",
  "updatedAt": "2019-04-24T01:55:43.404Z",
  "devdoc": {
    "methods": {}
  },
  "userdoc": {
    "methods": {}
  }
}