{
  "contractName": "Charity",
  "abi": [
    {
      "constant": true,
      "inputs": [],
      "name": "STATE",
      "outputs": [
        {
          "name": "",
          "type": "uint8"
        }
      ],
      "payable": false,
      "stateMutability": "view",
      "type": "function"
    },
    {
      "constant": true,
      "inputs": [
        {
          "name": "",
          "type": "address"
        }
      ],
      "name": "donations",
      "outputs": [
        {
          "name": "",
          "type": "uint256"
        }
      ],
      "payable": false,
      "stateMutability": "view",
      "type": "function"
    },
    {
      "inputs": [
        {
          "name": "_name",
          "type": "string"
        },
        {
          "name": "_description",
          "type": "string"
        }
      ],
      "payable": false,
      "stateMutability": "nonpayable",
      "type": "constructor"
    },
    {
      "payable": false,
      "stateMutability": "nonpayable",
      "type": "fallback"
    },
    {
      "anonymous": false,
      "inputs": [
        {
          "indexed": false,
          "name": "donator",
          "type": "address"
        },
        {
          "indexed": false,
          "name": "amount",
          "type": "uint256"
        }
      ],
      "name": "DonateEvent",
      "type": "event"
    },
    {
      "anonymous": false,
      "inputs": [
        {
          "indexed": false,
          "name": "withdrawer",
          "type": "address"
        },
        {
          "indexed": false,
          "name": "amount",
          "type": "uint256"
        },
        {
          "indexed": false,
          "name": "reason",
          "type": "string"
        }
      ],
      "name": "WithdrawalEvent",
      "type": "event"
    },
    {
      "constant": true,
      "inputs": [],
      "name": "getAddress",
      "outputs": [
        {
          "name": "",
          "type": "address"
        }
      ],
      "payable": false,
      "stateMutability": "view",
      "type": "function"
    },
    {
      "constant": true,
      "inputs": [],
      "name": "getCharityName",
      "outputs": [
        {
          "name": "",
          "type": "string"
        }
      ],
      "payable": false,
      "stateMutability": "view",
      "type": "function"
    },
    {
      "constant": true,
      "inputs": [],
      "name": "getCharityDescription",
      "outputs": [
        {
          "name": "",
          "type": "string"
        }
      ],
      "payable": false,
      "stateMutability": "view",
      "type": "function"
    },
    {
      "constant": true,
      "inputs": [],
      "name": "getOwner",
      "outputs": [
        {
          "name": "",
          "type": "address"
        }
      ],
      "payable": false,
      "stateMutability": "view",
      "type": "function"
    },
    {
      "constant": true,
      "inputs": [],
      "name": "getMyDonation",
      "outputs": [
        {
          "name": "",
          "type": "uint256"
        }
      ],
      "payable": false,
      "stateMutability": "view",
      "type": "function"
    },
    {
      "constant": true,
      "inputs": [],
      "name": "getCharityBalance",
      "outputs": [
        {
          "name": "",
          "type": "uint256"
        }
      ],
      "payable": false,
      "stateMutability": "view",
      "type": "function"
    },
    {
      "constant": true,
      "inputs": [],
      "name": "getTranscationAmounts",
      "outputs": [
        {
          "name": "",
          "type": "bytes"
        }
      ],
      "payable": false,
      "stateMutability": "view",
      "type": "function"
    },
    {
      "constant": true,
      "inputs": [],
      "name": "getTranscationDescriptions",
      "outputs": [
        {
          "name": "",
          "type": "bytes"
        }
      ],
      "payable": false,
      "stateMutability": "view",
      "type": "function"
    },
    {
      "constant": false,
      "inputs": [
        {
          "name": "amount",
          "type": "uint256"
        },
        {
          "name": "donator",
          "type": "address"
        }
      ],
      "name": "donate",
      "outputs": [
        {
          "name": "",
          "type": "bool"
        }
      ],
      "payable": true,
      "stateMutability": "payable",
      "type": "function"
    },
    {
      "constant": false,
      "inputs": [
        {
          "name": "amount",
          "type": "uint256"
        },
        {
          "name": "reason",
          "type": "string"
        },
        {
          "name": "sender",
          "type": "address"
        }
      ],
      "name": "withdrawl",
      "outputs": [
        {
          "name": "",
          "type": "bool"
        }
      ],
      "payable": false,
      "stateMutability": "nonpayable",
      "type": "function"
    },
    {
      "constant": false,
      "inputs": [
        {
          "name": "amount",
          "type": "uint256"
        },
        {
          "name": "reason",
          "type": "string"
        }
      ],
      "name": "transact",
      "outputs": [],
      "payable": false,
      "stateMutability": "nonpayable",
      "type": "function"
    },
    {
      "constant": false,
      "inputs": [
        {
          "name": "sender",
          "type": "address"
        }
      ],
      "name": "closeCharity",
      "outputs": [],
      "payable": false,
      "stateMutability": "nonpayable",
      "type": "function"
    },
    {
      "constant": true,
      "inputs": [
        {
          "name": "i",
          "type": "uint256"
        }
      ],
      "name": "uint2str",
      "outputs": [
        {
          "name": "",
          "type": "string"
        }
      ],
      "payable": false,
      "stateMutability": "pure",
      "type": "function"
    },
    {
      "constant": true,
      "inputs": [
        {
          "name": "_in",
          "type": "string"
        }
      ],
      "name": "sizeOfString",
      "outputs": [
        {
          "name": "_size",
          "type": "uint256"
        }
      ],
      "payable": false,
      "stateMutability": "pure",
      "type": "function"
    },
    {
      "constant": true,
      "inputs": [
        {
          "name": "_offst",
          "type": "uint256"
        },
        {
          "name": "_input",
          "type": "bytes"
        },
        {
          "name": "_output",
          "type": "bytes"
        }
      ],
      "name": "stringToBytes",
      "outputs": [],
      "payable": false,
      "stateMutability": "pure",
      "type": "function"
    },
    {
      "constant": true,
      "inputs": [
        {
          "name": "a",
          "type": "string"
        },
        {
          "name": "b",
          "type": "string"
        }
      ],
      "name": "compareStrings",
      "outputs": [
        {
          "name": "",
          "type": "bool"
        }
      ],
      "payable": false,
      "stateMutability": "pure",
      "type": "function"
    },
    {
      "constant": true,
      "inputs": [
        {
          "name": "x",
          "type": "address"
        }
      ],
      "name": "toAsciiString",
      "outputs": [
        {
          "name": "",
          "type": "string"
        }
      ],
      "payable": false,
      "stateMutability": "pure",
      "type": "function"
    },
    {
      "constant": true,
      "inputs": [
        {
          "name": "b",
          "type": "bytes1"
        }
      ],
      "name": "char",
      "outputs": [
        {
          "name": "c",
          "type": "bytes1"
        }
      ],
      "payable": false,
      "stateMutability": "pure",
      "type": "function"
    },
    {
      "constant": true,
      "inputs": [
        {
          "name": "a",
          "type": "string"
        },
        {
          "name": "b",
          "type": "string"
        },
        {
          "name": "c",
          "type": "string"
        }
      ],
      "name": "strConcat",
      "outputs": [
        {
          "name": "",
          "type": "string"
        }
      ],
      "payable": false,
      "stateMutability": "pure",
      "type": "function"
    }
  ],
  "bytecode": "0x60806040523480156200001157600080fd5b5060405162002276380380620022768339810180604052810190808051820192919060200180518201929190505050816000908051906020019062000058929190620000f0565b50806001908051906020019062000071929190620000f0565b5033600360006101000a81548173ffffffffffffffffffffffffffffffffffffffff021916908373ffffffffffffffffffffffffffffffffffffffff160217905550600060028190555060006008819055506000600960006101000a81548160ff02191690836001811115620000e357fe5b021790555050506200019f565b828054600181600116156101000203166002900490600052602060002090601f016020900481019282601f106200013357805160ff191683800117855562000164565b8280016001018555821562000164579182015b828111156200016357825182559160200191906001019062000146565b5b50905062000173919062000177565b5090565b6200019c91905b80821115620001985760008160009055506001016200017e565b5090565b90565b6120c780620001af6000396000f30060806040526004361061011d576000357c0100000000000000000000000000000000000000000000000000000000900463ffffffff1680630b2389611461012c57806310f0d44f146101bc57806325877c091461024c5780632c6e7598146102bf578063365fd9821461037b57806338cc4831146103a65780634112987c146103fd57806344b7eda11461056b57806369f9ad2f1461059657806379833e521461063d5780637d57de8c146106cd5780638004f9fa14610710578063893d20e814610768578063917a781f146107bf578063a584786214610878578063bed34bba146108f5578063c486456c146109bc578063cb13dd2c146109f5578063cc6cb19a14610a85578063f76f950e14610adc578063f9b11db714610b82575b34801561012957600080fd5b50005b34801561013857600080fd5b50610141610c2d565b6040518080602001828103825283818151815260200191508051906020019080838360005b83811015610181578082015181840152602081019050610166565b50505050905090810190601f1680156101ae5780820380516001836020036101000a031916815260200191505b509250505060405180910390f35b3480156101c857600080fd5b506101d1610ccf565b6040518080602001828103825283818151815260200191508051906020019080838360005b838110156102115780820151818401526020810190506101f6565b50505050905090810190601f16801561023e5780820380516001836020036101000a031916815260200191505b509250505060405180910390f35b34801561025857600080fd5b506102bd60048036038101908080359060200190929190803590602001908201803590602001908080601f0160208091040260200160405190810160405280939291908181526020018383808284378201915050505050509192919290505050610d71565b005b3480156102cb57600080fd5b50610300600480360381019080803573ffffffffffffffffffffffffffffffffffffffff169060200190929190505050610e0d565b6040518080602001828103825283818151815260200191508051906020019080838360005b83811015610340578082015181840152602081019050610325565b50505050905090810190601f16801561036d5780820380516001836020036101000a031916815260200191505b509250505060405180910390f35b34801561038757600080fd5b50610390611022565b6040518082815260200191505060405180910390f35b3480156103b257600080fd5b506103bb611069565b604051808273ffffffffffffffffffffffffffffffffffffffff1673ffffffffffffffffffffffffffffffffffffffff16815260200191505060405180910390f35b34801561040957600080fd5b506104f0600480360381019080803590602001908201803590602001908080601f0160208091040260200160405190810160405280939291908181526020018383808284378201915050505050509192919290803590602001908201803590602001908080601f0160208091040260200160405190810160405280939291908181526020018383808284378201915050505050509192919290803590602001908201803590602001908080601f0160208091040260200160405190810160405280939291908181526020018383808284378201915050505050509192919290505050611071565b6040518080602001828103825283818151815260200191508051906020019080838360005b83811015610530578082015181840152602081019050610515565b50505050905090810190601f16801561055d5780820380516001836020036101000a031916815260200191505b509250505060405180910390f35b34801561057757600080fd5b50610580611303565b6040518082815260200191505060405180910390f35b3480156105a257600080fd5b506105e360048036038101908080357effffffffffffffffffffffffffffffffffffffffffffffffffffffffffffff1916906020019092919050505061130d565b60405180827effffffffffffffffffffffffffffffffffffffffffffffffffffffffffffff19167effffffffffffffffffffffffffffffffffffffffffffffffffffffffffffff1916815260200191505060405180910390f35b34801561064957600080fd5b506106526113fd565b6040518080602001828103825283818151815260200191508051906020019080838360005b83811015610692578082015181840152602081019050610677565b50505050905090810190601f1680156106bf5780820380516001836020036101000a031916815260200191505b509250505060405180910390f35b3480156106d957600080fd5b5061070e600480360381019080803573ffffffffffffffffffffffffffffffffffffffff16906020019092919050505061149f565b005b61074e60048036038101908080359060200190929190803573ffffffffffffffffffffffffffffffffffffffff169060200190929190505050611524565b604051808215151515815260200191505060405180910390f35b34801561077457600080fd5b5061077d611773565b604051808273ffffffffffffffffffffffffffffffffffffffff1673ffffffffffffffffffffffffffffffffffffffff16815260200191505060405180910390f35b3480156107cb57600080fd5b5061087660048036038101908080359060200190929190803590602001908201803590602001908080601f0160208091040260200160405190810160405280939291908181526020018383808284378201915050505050509192919290803590602001908201803590602001908080601f016020809104026020016040519081016040528093929190818152602001838380828437820191505050505050919291929050505061179d565b005b34801561088457600080fd5b506108df600480360381019080803590602001908201803590602001908080601f0160208091040260200160405190810160405280939291908181526020018383808284378201915050505050509192919290505050611802565b6040518082815260200191505060405180910390f35b34801561090157600080fd5b506109a2600480360381019080803590602001908201803590602001908080601f0160208091040260200160405190810160405280939291908181526020018383808284378201915050505050509192919290803590602001908201803590602001908080601f0160208091040260200160405190810160405280939291908181526020018383808284378201915050505050509192919290505050611847565b604051808215151515815260200191505060405180910390f35b3480156109c857600080fd5b506109d16119f8565b604051808260018111156109e157fe5b60ff16815260200191505060405180910390f35b348015610a0157600080fd5b50610a0a611a0b565b6040518080602001828103825283818151815260200191508051906020019080838360005b83811015610a4a578082015181840152602081019050610a2f565b50505050905090810190601f168015610a775780820380516001836020036101000a031916815260200191505b509250505060405180910390f35b348015610a9157600080fd5b50610ac6600480360381019080803573ffffffffffffffffffffffffffffffffffffffff169060200190929190505050611aad565b6040518082815260200191505060405180910390f35b348015610ae857600080fd5b50610b0760048036038101908080359060200190929190505050611ac5565b6040518080602001828103825283818151815260200191508051906020019080838360005b83811015610b47578082015181840152602081019050610b2c565b50505050905090810190601f168015610b745780820380516001836020036101000a031916815260200191505b509250505060405180910390f35b348015610b8e57600080fd5b50610c1360048036038101908080359060200190929190803590602001908201803590602001908080601f0160208091040260200160405190810160405280939291908181526020018383808284378201915050505050509192919290803573ffffffffffffffffffffffffffffffffffffffff169060200190929190505050611c1c565b604051808215151515815260200191505060405180910390f35b606060018054600181600116156101000203166002900480601f016020809104026020016040519081016040528092919081815260200182805460018160011615610100020316600290048015610cc55780601f10610c9a57610100808354040283529160200191610cc5565b820191906000526020600020905b815481529060010190602001808311610ca857829003601f168201915b5050505050905090565b606060008054600181600116156101000203166002900480601f016020809104026020016040519081016040528092919081815260200182805460018160011615610100020316600290048015610d675780601f10610d3c57610100808354040283529160200191610d67565b820191906000526020600020905b815481529060010190602001808311610d4a57829003601f168201915b5050505050905090565b6006610d7c83611ac5565b9080600181540180825580915050906001820390600052602060002001600090919290919091509080519060200190610db6929190611ff6565b50506007819080600181540180825580915050906001820390600052602060002001600090919290919091509080519060200190610df5929190611ff6565b50506008600081548092919060010191905055505050565b60608060008060008060286040519080825280601f01601f191660200182016040528015610e4a5781602001602082028038833980820191505090505b509450600093505b6014841015611015578360130360080260020a8773ffffffffffffffffffffffffffffffffffffffff16811515610e8557fe5b047f01000000000000000000000000000000000000000000000000000000000000000292506010837f0100000000000000000000000000000000000000000000000000000000000000900460ff16811515610edc57fe5b047f0100000000000000000000000000000000000000000000000000000000000000029150817f01000000000000000000000000000000000000000000000000000000000000009004601002837f01000000000000000000000000000000000000000000000000000000000000009004037f0100000000000000000000000000000000000000000000000000000000000000029050610f7a8261130d565b8585600202815181101515610f8b57fe5b9060200101907effffffffffffffffffffffffffffffffffffffffffffffffffffffffffffff1916908160001a905350610fc48161130d565b8560018660020201815181101515610fd857fe5b9060200101907effffffffffffffffffffffffffffffffffffffffffffffffffffffffffffff1916908160001a9053508380600101945050610e52565b8495505050505050919050565b6000600560003373ffffffffffffffffffffffffffffffffffffffff1673ffffffffffffffffffffffffffffffffffffffff16815260200190815260200160002054905090565b600030905090565b6060806060806060806000808a965089955088945084518651885101016040519080825280601f01601f1916602001820160405280156110c05781602001602082028038833980820191505090505b50935083925060009150600090505b86518110156111825786818151811015156110e657fe5b9060200101517f010000000000000000000000000000000000000000000000000000000000000090047f010000000000000000000000000000000000000000000000000000000000000002838380600101945081518110151561114557fe5b9060200101907effffffffffffffffffffffffffffffffffffffffffffffffffffffffffffff1916908160001a90535080806001019150506110cf565b600090505b855181101561123a57858181518110151561119e57fe5b9060200101517f010000000000000000000000000000000000000000000000000000000000000090047f01000000000000000000000000000000000000000000000000000000000000000283838060010194508151811015156111fd57fe5b9060200101907effffffffffffffffffffffffffffffffffffffffffffffffffffffffffffff1916908160001a9053508080600101915050611187565b600090505b84518110156112f257848181518110151561125657fe5b9060200101517f010000000000000000000000000000000000000000000000000000000000000090047f01000000000000000000000000000000000000000000000000000000000000000283838060010194508151811015156112b557fe5b9060200101907effffffffffffffffffffffffffffffffffffffffffffffffffffffffffffff1916908160001a905350808060010191505061123f565b829750505050505050509392505050565b6000600254905090565b6000600a7f010000000000000000000000000000000000000000000000000000000000000002827effffffffffffffffffffffffffffffffffffffffffffffffffffffffffffff191610156113ac576030827f01000000000000000000000000000000000000000000000000000000000000009004017f01000000000000000000000000000000000000000000000000000000000000000290506113f8565b6057827f01000000000000000000000000000000000000000000000000000000000000009004017f01000000000000000000000000000000000000000000000000000000000000000290505b919050565b606060006008541115156114535761144c6000806040805190810160405280601781526020017f7472616e73616374696f6e4465736372697074696f6e73000000000000000000815250611dc1565b905061149c565b61149960006001600854036040805190810160405280601781526020017f7472616e73616374696f6e4465736372697074696f6e73000000000000000000815250611dc1565b90505b90565b80600360009054906101000a900473ffffffffffffffffffffffffffffffffffffffff1673ffffffffffffffffffffffffffffffffffffffff168173ffffffffffffffffffffffffffffffffffffffff161415156114fc57600080fd5b6001600960006101000a81548160ff0219169083600181111561151b57fe5b02179055505050565b600080600960009054906101000a900460ff16600181111561154257fe5b6000600181111561154f57fe5b14151561155b57600080fd5b83600560008573ffffffffffffffffffffffffffffffffffffffff1673ffffffffffffffffffffffffffffffffffffffff168152602001908152602001600020540190506000600560008573ffffffffffffffffffffffffffffffffffffffff1673ffffffffffffffffffffffffffffffffffffffff1681526020019081526020016000205411156116305780600560008573ffffffffffffffffffffffffffffffffffffffff1673ffffffffffffffffffffffffffffffffffffffff168152602001908152602001600020819055506116db565b80600560008573ffffffffffffffffffffffffffffffffffffffff1673ffffffffffffffffffffffffffffffffffffffff1681526020019081526020016000208190555060048390806001815401808255809150509060018203906000526020600020016000909192909190916101000a81548173ffffffffffffffffffffffffffffffffffffffff021916908373ffffffffffffffffffffffffffffffffffffffff160217905550505b836002600082825401925050819055506116fd846116f885610e0d565b610d71565b7f4a738e144fcebc2a2453dde8472c2fe125988d7508d635d71a45886efcf500063334604051808373ffffffffffffffffffffffffffffffffffffffff1673ffffffffffffffffffffffffffffffffffffffff1681526020018281526020019250505060405180910390a1600191505092915050565b6000600360009054906101000a900473ffffffffffffffffffffffffffffffffffffffff16905090565b6000602083518115156117ac57fe5b0490506000602084518115156117be57fe5b0611156117ce5780806001019150505b60018101905060005b818110156117fb5760208102840151858401526020850394506001810190506117d7565b5050505050565b60006020825181151561181157fe5b04905060006020835181151561182357fe5b061415156118345780806001019150505b8080600101915050602081029050919050565b6000816040516020018082805190602001908083835b602083101515611882578051825260208201915060208101905060208303925061185d565b6001836020036101000a0380198251168184511680821785525050505050509050019150506040516020818303038152906040526040518082805190602001908083835b6020831015156118eb57805182526020820191506020810190506020830392506118c6565b6001836020036101000a038019825116818451168082178552505050505050905001915050604051809103902060001916836040516020018082805190602001908083835b6020831015156119555780518252602082019150602081019050602083039250611930565b6001836020036101000a0380198251168184511680821785525050505050509050019150506040516020818303038152906040526040518082805190602001908083835b6020831015156119be5780518252602082019150602081019050602083039250611999565b6001836020036101000a03801982511681845116808217855250505050505090500191505060405180910390206000191614905092915050565b600960009054906101000a900460ff1681565b60606000600854111515611a6157611a5a6000806040805190810160405280601281526020017f7472616e73616374696f6e416d6f756e74730000000000000000000000000000815250611dc1565b9050611aaa565b611aa760006001600854036040805190810160405280601281526020017f7472616e73616374696f6e416d6f756e74730000000000000000000000000000815250611dc1565b90505b90565b60056020528060005260406000206000915090505481565b60606000806060600080861415611b13576040805190810160405280600181526020017f30000000000000000000000000000000000000000000000000000000000000008152509450611c13565b8593505b600084141515611b3d578280600101935050600a84811515611b3557fe5b049350611b17565b826040519080825280601f01601f191660200182016040528015611b705781602001602082028038833980820191505090505b5091506001830390505b600086141515611c0f57600a86811515611b9057fe5b066030017f010000000000000000000000000000000000000000000000000000000000000002828280600190039350815181101515611bcb57fe5b9060200101907effffffffffffffffffffffffffffffffffffffffffffffffffffffffffffff1916908160001a905350600a86811515611c0757fe5b049550611b7a565b8194505b50505050919050565b600081600360009054906101000a900473ffffffffffffffffffffffffffffffffffffffff1673ffffffffffffffffffffffffffffffffffffffff168173ffffffffffffffffffffffffffffffffffffffff16141515611c7b57600080fd5b8460025410151515611c8c57600080fd5b611c968585610d71565b3373ffffffffffffffffffffffffffffffffffffffff166108fc869081150290604051600060405180830381858888f19350505050158015611cdc573d6000803e3d6000fd5b507fe06a6d1c7f674346f19f69fd037afee6c37e69d5b2dbd7b436526737169c0507338686604051808473ffffffffffffffffffffffffffffffffffffffff1673ffffffffffffffffffffffffffffffffffffffff16815260200183815260200180602001828103825283818151815260200191508051906020019080838360005b83811015611d79578082015181840152602081019050611d5e565b50505050905090810190601f168015611da65780820380516001836020036101000a031916815260200191505b5094505050505060405180910390a160019150509392505050565b6060600080606080600060069450611e0e876040805190810160405280601281526020017f7472616e73616374696f6e416d6f756e74730000000000000000000000000000815250611847565b15611e1857600694505b611e57876040805190810160405280601781526020017f7472616e73616374696f6e4465736372697074696f6e73000000000000000000815250611847565b15611e6157600794505b888810151515611e7057600080fd5b6001858054905003881115611e8a57600185805490500397505b6001898903016040029350836040519080825280601f01601f191660200182016040528015611ec85781602001602082028038833980820191505090505b50925060206040519080825280601f01601f191660200182016040528015611eff5781602001602082028038833980820191505090505b5091508890505b8781111515611fe7578481815481101515611f1d57fe5b906000526020600020018054600181600116156101000203166002900480601f016020809104026020016040519081016040528092919081815260200182805460018160011615610100020316600290048015611fbb5780601f10611f9057610100808354040283529160200191611fbb565b820191906000526020600020905b815481529060010190602001808311611f9e57829003601f168201915b50505050509150611fcd84838561179d565b611fd682611802565b840393508080600101915050611f06565b82955050505050509392505050565b828054600181600116156101000203166002900490600052602060002090601f016020900481019282601f1061203757805160ff1916838001178555612065565b82800160010185558215612065579182015b82811115612064578251825591602001919060010190612049565b5b5090506120729190612076565b5090565b61209891905b8082111561209457600081600090555060010161207c565b5090565b905600a165627a7a72305820bbce898150efc90411f67f7ff7d7793fe314d325c6417aa35d4269f1a295904c0029",
  "source": "pragma solidity ^0.4.25;\n\ncontract Charity {\n\tstring name;\n\tstring description;\n\tuint balance; //TODO make this able to store decimals\n\taddress owner;\n\taddress[] donators;\n\tmapping(address => uint) public donations;\n\tstring[] transactionAmounts;\n\tstring[] transactionDescriptions;\n\tuint transactionCount;\n\t//Helpers h;\n\n\tenum charity_state {\n\t\tSTARTED, FINISHED\n\t}\n\tcharity_state public STATE;\n\n\n\t// ------------------------ Modifiers ------------------------ //\n\tmodifier ongoing(){\n\t\trequire(charity_state.STARTED == STATE);\n\t\t_;\n\t}\n\n\tmodifier only_owner(address _sender){\n\t\trequire(_sender == owner);\n\t\t_;\n\t}\n\n\t// ------------------------ EVENTS ------------------------ //\n\tevent DonateEvent(address donator, uint amount);\n\tevent WithdrawalEvent(address withdrawer, uint256 amount, string reason);\n\n\tfunction() public {\n\t\t// Callback\n\t}\n\n\n\tconstructor(string _name, string _description) public {\n\t\t//h = _h;\n\t\tname = _name;\n\t\tdescription = _description;\n\t//\towner = _sender;\n\t\towner = msg.sender;\n\t\tbalance = 0;\n\t\ttransactionCount = 0;\n\t\tSTATE = charity_state.STARTED;\n\t}\n\n\t// ------------------------ GETTERS ------------------------ //\n\tfunction getAddress() public view returns (address) {\n\t\treturn address(this);\n\t}\n\n\tfunction getCharityName() public view returns (string) {\n\t\treturn name;\n\t}\n\n\tfunction getCharityDescription() public view returns (string) {\n\t\treturn description;\n\t}\n\n\tfunction getOwner() public view returns (address) {\n\t\treturn owner;\n\t}\n\n\tfunction getMyDonation() public view returns (uint) {\n\t\treturn donations[msg.sender];\n\t}\n\n\tfunction getCharityBalance() public view returns (uint) {\n\t\treturn balance;\n\t}\n\n\tfunction getTranscationAmounts() public view returns (bytes) {\n\t\tif (transactionCount <= 0) {\n\t\t\treturn getBytesOfArray(0, 0, \"transactionAmounts\");\n\t\t} else {\n\t\t\treturn getBytesOfArray(0, transactionCount - 1, \"transactionAmounts\");\n\t\t}\n\t}\n\n\tfunction getTranscationDescriptions() public view returns (bytes) {\n\t\tif (transactionCount <= 0) {\n\t\t\treturn getBytesOfArray(0, 0, \"transactionDescriptions\");\n\t\t} else {\n\t\t\treturn getBytesOfArray(0, transactionCount - 1, \"transactionDescriptions\");\n\t\t}\n\t}\n\n\t// ------------------------ ACTIONS ------------------------ //\n\n\tfunction donate(uint amount, address donator) public payable ongoing returns (bool) {\n\t\tuint current = donations[donator] + amount;\n\t\tif (donations[donator] > 0) {\n\t\t\tdonations[donator] = current;\n\t\t} else {\n\t\t\tdonations[donator] = current;\n\t\t\tdonators.push(donator);\n\t\t}\n\t\tbalance += amount;\n\n\t\ttransact(amount, toAsciiString(donator));\n\n\n\t\temit DonateEvent(msg.sender, msg.value);\n\n\t\treturn true;\n\t}\n\n\tfunction withdrawl(uint amount, string reason, address sender) public only_owner(sender) returns (bool) {\n\t\trequire(balance >= amount);\n\t\ttransact(amount, reason);\n\t\tmsg.sender.transfer(amount);\n\t\temit WithdrawalEvent(msg.sender, amount, reason);\n\t\treturn true;\n\t}\n\n\tfunction transact(uint amount, string reason) public {\n\t\ttransactionAmounts.push(uint2str(amount));\n\t\ttransactionDescriptions.push(reason);\n\t\ttransactionCount++;\n\t}\n\n\tfunction closeCharity(address sender) public only_owner(sender) {\n\t\tSTATE = charity_state.FINISHED;\n\t}\n\n\t// Convert string array to bytes (modified from https://hackernoon.com/serializing-string-arrays-in-solidity-db4b6037e520)\n\tfunction getBytesOfArray(uint startindex, uint endindex, string arrayName) private view returns (bytes serialized){\n\t\tstring[] storage array = transactionAmounts;\n\t\tif (compareStrings(arrayName, \"transactionAmounts\")) {\n\t\t\tarray = transactionAmounts;\n\t\t}\n\t\tif (compareStrings(arrayName, \"transactionDescriptions\")) {\n\t\t\tarray = transactionDescriptions;\n\t\t}\n\n\t\trequire(endindex >= startindex);\n\n\t\tif (endindex > (array.length - 1)) {\n\t\t\tendindex = array.length - 1;\n\t\t}\n\n\t\t//64 byte is needed for safe storage of a single string.\n\t\t//((endindex - startindex) + 1) is the number of strings we want to pull out.\n\t\tuint offset = 64 * ((endindex - startindex) + 1);\n\n\t\tbytes memory buffer = new  bytes(offset);\n\t\tstring memory out1 = new string(32);\n\n\n\t\tfor (uint i = startindex; i <= endindex; i++) {\n\t\t\tout1 = array[i];\n\n\t\t\tstringToBytes(offset, bytes(out1), buffer);\n\t\t\toffset -= sizeOfString(out1);\n\t\t}\n\n\t\treturn (buffer);\n\t}\n\n\t// ------------------------ HELPER FUNCTIONS ------------------------ //\n\t// Convert uint to string (https://ethereum.stackexchange.com/questions/6591/conversion-of-uint-to-string)\n\tfunction uint2str(uint i)  public pure returns (string){\n\t\tif (i == 0) return \"0\";\n\t\tuint j = i;\n\t\tuint length;\n\t\twhile (j != 0) {\n\t\t\tlength++;\n\t\t\tj /= 10;\n\t\t}\n\t\tbytes memory bstr = new bytes(length);\n\t\tuint k = length - 1;\n\t\twhile (i != 0) {\n\t\t\tbstr[k--] = byte(48 + i % 10);\n\t\t\ti /= 10;\n\t\t}\n\t\treturn string(bstr);\n\t}\n\n\t// Get size of String (from https://github.com/pouladzade/Seriality/blob/master/src/SizeOf.sol)\n\tfunction sizeOfString(string memory _in) public pure returns (uint _size) {\n\t\t_size = bytes(_in).length / 32;\n\t\tif (bytes(_in).length % 32 != 0)\n\t\t\t_size++;\n\n\t\t_size++;\n\t\t// first 32 bytes is reserved for the size of the string\n\t\t_size *= 32;\n\t}\n\n\t// Convert String to bytes (from https://github.com/pouladzade/Seriality/blob/master/src/TypesToBytes.sol)\n\tfunction stringToBytes(uint _offst, bytes memory _input, bytes memory _output) public pure {\n\t\tuint256 stack_size = _input.length / 32;\n\t\tif (_input.length % 32 > 0) stack_size++;\n\n\t\tassembly {\n\t\t\tstack_size := add(stack_size, 1)//adding because of 32 first bytes memory as the length\n\t\t\tfor {let index := 0} lt(index, stack_size){index := add(index, 1)} {\n\t\t\t\tmstore(add(_output, _offst), mload(add(_input, mul(index, 32))))\n\t\t\t\t_offst := sub(_offst, 32)\n\t\t\t}\n\t\t}\n\t}\n\n\t// utility function to compare strings\n\tfunction compareStrings(string a, string b) public pure returns (bool){\n\t\treturn keccak256(abi.encodePacked(a)) == keccak256(abi.encodePacked(b));\n\t}\n\n\t// Address to string (https://ethereum.stackexchange.com/questions/8346/convert-address-to-string)\n\tfunction toAsciiString(address x) public pure returns (string) {\n\t\tbytes memory s = new bytes(40);\n\t\tfor (uint i = 0; i < 20; i++) {\n\t\t\tbyte b = byte(uint8(uint(x) / (2 ** (8 * (19 - i)))));\n\t\t\tbyte hi = byte(uint8(b) / 16);\n\t\t\tbyte lo = byte(uint8(b) - 16 * uint8(hi));\n\t\t\ts[2 * i] = char(hi);\n\t\t\ts[2 * i + 1] = char(lo);\n\t\t}\n\t\treturn string(s);\n\t}\n\n\tfunction char(byte b) public pure returns (byte c) {\n\t\tif (b < 10) return byte(uint8(b) + 0x30);\n\t\telse return byte(uint8(b) + 0x57);\n\t}\n\n\t// String concat\n\tfunction strConcat(string a, string b, string c) public pure returns (string){\n\t\tbytes memory ba = bytes(a);\n\t\tbytes memory bb = bytes(b);\n\t\tbytes memory bc = bytes(c);\n\n\t\tstring memory str = new string(ba.length + bb.length + bc.length);\n\t\tbytes memory bStr = bytes(str);\n\t\tuint k = 0;\n\t\tfor (uint i = 0; i < ba.length; i++) {\n\t\t\tbStr[k++] = ba[i];\n\t\t}\n\t\tfor (i = 0; i < bb.length; i++) {\n\t\t\tbStr[k++] = bb[i];\n\t\t}\n\t\tfor (i = 0; i < bc.length; i++) {\n\t\t\tbStr[k++] = bc[i];\n\t\t}\n\n\n\t\treturn string(bStr);\n\t}\n}\n",
  "sourcePath": "/Users/clairegoldstein/CODE/CS481a3-BlockChain/Final_project/Charity-Blockchain/contracts/Charity.sol",
  "compiler": {
    "name": "solc",
    "version": "0.4.25+commit.59dbf8f1.Emscripten.clang"
  },
  "schemaVersion": "3.0.6",
  "updatedAt": "2019-04-18T19:01:11.445Z",
  "devdoc": {
    "methods": {}
  },
  "userdoc": {
    "methods": {}
  }
}