{
  "contractName": "CharitableDonations",
  "abi": [
    {
      "inputs": [],
      "payable": false,
      "stateMutability": "nonpayable",
      "type": "constructor"
    },
    {
      "constant": false,
      "inputs": [
        {
          "name": "name",
          "type": "string"
        },
        {
          "name": "description",
          "type": "string"
        }
      ],
      "name": "deployCharity",
      "outputs": [],
      "payable": false,
      "stateMutability": "nonpayable",
      "type": "function"
    },
    {
      "constant": false,
      "inputs": [],
      "name": "getCharityNames",
      "outputs": [
        {
          "name": "",
          "type": "string"
        }
      ],
      "payable": false,
      "stateMutability": "nonpayable",
      "type": "function"
    },
    {
      "constant": true,
      "inputs": [],
      "name": "getUsersCharitites",
      "outputs": [
        {
          "name": "",
          "type": "bytes"
        }
      ],
      "payable": false,
      "stateMutability": "view",
      "type": "function"
    },
    {
      "constant": true,
      "inputs": [],
      "name": "getNumCharities",
      "outputs": [
        {
          "name": "",
          "type": "uint256"
        }
      ],
      "payable": false,
      "stateMutability": "view",
      "type": "function"
    },
    {
      "constant": true,
      "inputs": [
        {
          "name": "name",
          "type": "string"
        }
      ],
      "name": "getChairityAddress",
      "outputs": [
        {
          "name": "",
          "type": "address"
        }
      ],
      "payable": false,
      "stateMutability": "view",
      "type": "function"
    }
  ],
  "bytecode": "0x608060405234801561001057600080fd5b5061001961007b565b604051809103906000f080158015610035573d6000803e3d6000fd5b50600660006101000a81548173ffffffffffffffffffffffffffffffffffffffff021916908373ffffffffffffffffffffffffffffffffffffffff16021790555061008b565b604051610f9180612d8b83390190565b612cf18061009a6000396000f30060806040526004361061006d576000357c0100000000000000000000000000000000000000000000000000000000900463ffffffff1680632614e72c14610072578063658be92f14610102578063720a7dee1461012d578063815a3ec3146101bd578063fa40b1671461026c575b600080fd5b34801561007e57600080fd5b50610087610315565b6040518080602001828103825283818151815260200191508051906020019080838360005b838110156100c75780820151818401526020810190506100ac565b50505050905090810190601f1680156100f45780820380516001836020036101000a031916815260200191505b509250505060405180910390f35b34801561010e57600080fd5b5061011761078a565b6040518082815260200191505060405180910390f35b34801561013957600080fd5b50610142610794565b6040518080602001828103825283818151815260200191508051906020019080838360005b83811015610182578082015181840152602081019050610167565b50505050905090810190601f1680156101af5780820380516001836020036101000a031916815260200191505b509250505060405180910390f35b3480156101c957600080fd5b5061026a600480360381019080803590602001908201803590602001908080601f0160208091040260200160405190810160405280939291908181526020018383808284378201915050505050509192919290803590602001908201803590602001908080601f0160208091040260200160405190810160405280939291908181526020018383808284378201915050505050509192919290505050610be5565b005b34801561027857600080fd5b506102d3600480360381019080803590602001908201803590602001908080601f0160208091040260200160405190810160405280939291908181526020018383808284378201915050505050509192919290505050610fc2565b604051808273ffffffffffffffffffffffffffffffffffffffff1673ffffffffffffffffffffffffffffffffffffffff16815260200191505060405180910390f35b60606000806000806060806000600260003373ffffffffffffffffffffffffffffffffffffffff1673ffffffffffffffffffffffffffffffffffffffff1681526020019081526020016000209650600095506001878054905003945085851015151561038057600080fd5b6001868603016040029350836040519080825280601f01601f1916602001820160405280156103be5781602001602082028038833980820191505090505b50925060206040519080825280601f01601f1916602001820160405280156103f55781602001602082028038833980820191505090505b5091508590505b848111151561077d57868181548110151561041357fe5b906000526020600020018054600181600116156101000203166002900480601f0160208091040260200160405190810160405280929190818152602001828054600181600116156101000203166002900480156104b15780601f10610486576101008083540402835291602001916104b1565b820191906000526020600020905b81548152906001019060200180831161049457829003601f168201915b50505050509150600660009054906101000a900473ffffffffffffffffffffffffffffffffffffffff1673ffffffffffffffffffffffffffffffffffffffff1663917a781f8584866040518463ffffffff167c0100000000000000000000000000000000000000000000000000000000028152600401808481526020018060200180602001838103835285818151815260200191508051906020019080838360005b8381101561056e578082015181840152602081019050610553565b50505050905090810190601f16801561059b5780820380516001836020036101000a031916815260200191505b50838103825284818151815260200191508051906020019080838360005b838110156105d45780820151818401526020810190506105b9565b50505050905090810190601f1680156106015780820380516001836020036101000a031916815260200191505b5095505050505050600060405180830381600087803b15801561062357600080fd5b505af1158015610637573d6000803e3d6000fd5b50505050600660009054906101000a900473ffffffffffffffffffffffffffffffffffffffff1673ffffffffffffffffffffffffffffffffffffffff1663a5847862836040518263ffffffff167c01000000000000000000000000000000000000000000000000000000000281526004018080602001828103825283818151815260200191508051906020019080838360005b838110156106e55780820151818401526020810190506106ca565b50505050905090810190601f1680156107125780820380516001836020036101000a031916815260200191505b5092505050602060405180830381600087803b15801561073157600080fd5b505af1158015610745573d6000803e3d6000fd5b505050506040513d602081101561075b57600080fd5b81019080805190602001909291905050508403935080806001019150506103fc565b8297505050505050505090565b6000600354905090565b606060008090505b600480549050811015610b4457600660009054906101000a900473ffffffffffffffffffffffffffffffffffffffff1673ffffffffffffffffffffffffffffffffffffffff16634112987c60056004848154811015156107f857fe5b9060005260206000200160009054906101000a900473ffffffffffffffffffffffffffffffffffffffff1673ffffffffffffffffffffffffffffffffffffffff166310f0d44f6040518163ffffffff167c0100000000000000000000000000000000000000000000000000000000028152600401600060405180830381600087803b15801561088657600080fd5b505af115801561089a573d6000803e3d6000fd5b505050506040513d6000823e3d601f19601f8201168201806040525060208110156108c457600080fd5b8101908080516401000000008111156108dc57600080fd5b828101905060208101848111156108f257600080fd5b815185600182028301116401000000008211171561090f57600080fd5b50509291905050506040518363ffffffff167c0100000000000000000000000000000000000000000000000000000000028152600401808060200180602001806020018481038452868181546001816001161561010002031660029004815260200191508054600181600116156101000203166002900480156109d35780601f106109a8576101008083540402835291602001916109d3565b820191906000526020600020905b8154815290600101906020018083116109b657829003601f168201915b5050848103835285818151815260200191508051906020019080838360005b83811015610a0d5780820151818401526020810190506109f2565b50505050905090810190601f168015610a3a5780820380516001836020036101000a031916815260200191505b50848103825260018152602001807f200000000000000000000000000000000000000000000000000000000000000081525060200195505050505050600060405180830381600087803b158015610a9057600080fd5b505af1158015610aa4573d6000803e3d6000fd5b505050506040513d6000823e3d601f19601f820116820180604052506020811015610ace57600080fd5b810190808051640100000000811115610ae657600080fd5b82810190506020810184811115610afc57600080fd5b8151856001820283011164010000000082111715610b1957600080fd5b505092919050505060059080519060200190610b369291906110f5565b50808060010191505061079c565b60058054600181600116156101000203166002900480601f016020809104026020016040519081016040528092919081815260200182805460018160011615610100020316600290048015610bda5780601f10610baf57610100808354040283529160200191610bda565b820191906000526020600020905b815481529060010190602001808311610bbd57829003601f168201915b505050505091505090565b6000828233600660009054906101000a900473ffffffffffffffffffffffffffffffffffffffff16610c15611175565b8080602001806020018573ffffffffffffffffffffffffffffffffffffffff1673ffffffffffffffffffffffffffffffffffffffff1681526020018473ffffffffffffffffffffffffffffffffffffffff1673ffffffffffffffffffffffffffffffffffffffff168152602001838103835287818151815260200191508051906020019080838360005b83811015610cba578082015181840152602081019050610c9f565b50505050905090810190601f168015610ce75780820380516001836020036101000a031916815260200191505b50838103825286818151815260200191508051906020019080838360005b83811015610d20578082015181840152602081019050610d05565b50505050905090810190601f168015610d4d5780820380516001836020036101000a031916815260200191505b509650505050505050604051809103906000f080158015610d72573d6000803e3d6000fd5b509050806001846040518082805190602001908083835b602083101515610dae5780518252602082019150602081019050602083039250610d89565b6001836020036101000a038019825116818451168082178552505050505050905001915050908152602001604051809103902060006101000a81548173ffffffffffffffffffffffffffffffffffffffff021916908373ffffffffffffffffffffffffffffffffffffffff16021790555060048190806001815401808255809150509060018203906000526020600020016000909192909190916101000a81548173ffffffffffffffffffffffffffffffffffffffff021916908373ffffffffffffffffffffffffffffffffffffffff16021790555050806000846040518082805190602001908083835b602083101515610ebe5780518252602082019150602081019050602083039250610e99565b6001836020036101000a038019825116818451168082178552505050505050905001915050908152602001604051809103902060006101000a81548173ffffffffffffffffffffffffffffffffffffffff021916908373ffffffffffffffffffffffffffffffffffffffff160217905550600360008154809291906001019190505550600260003373ffffffffffffffffffffffffffffffffffffffff1673ffffffffffffffffffffffffffffffffffffffff168152602001908152602001600020839080600181540180825580915050906001820390600052602060002001600090919290919091509080519060200190610fbb9291906110f5565b5050505050565b60006001826040518082805190602001908083835b602083101515610ffc5780518252602082019150602081019050602083039250610fd7565b6001836020036101000a038019825116818451168082178552505050505050905001915050908152602001604051809103902060009054906101000a900473ffffffffffffffffffffffffffffffffffffffff1673ffffffffffffffffffffffffffffffffffffffff166338cc48316040518163ffffffff167c0100000000000000000000000000000000000000000000000000000000028152600401602060405180830381600087803b1580156110b357600080fd5b505af11580156110c7573d6000803e3d6000fd5b505050506040513d60208110156110dd57600080fd5b81019080805190602001909291905050509050919050565b828054600181600116156101000203166002900490600052602060002090601f016020900481019282601f1061113657805160ff1916838001178555611164565b82800160010185558215611164579182015b82811115611163578251825591602001919060010190611148565b5b5090506111719190611186565b5090565b604051611b1a80620011ac83390190565b6111a891905b808211156111a457600081600090555060010161118c565b5090565b90560060806040523480156200001157600080fd5b5060405162001b1a38038062001b1a8339810180604052810190808051820192919060200180518201929190602001805190602001909291908051906020019092919050505080600960006101000a81548173ffffffffffffffffffffffffffffffffffffffff021916908373ffffffffffffffffffffffffffffffffffffffff1602179055508360009080519060200190620000b09291906200014a565b508260019080519060200190620000c99291906200014a565b5081600360006101000a81548173ffffffffffffffffffffffffffffffffffffffff021916908373ffffffffffffffffffffffffffffffffffffffff160217905550600060028190555060006008819055506000600960146101000a81548160ff021916908360018111156200013b57fe5b021790555050505050620001f9565b828054600181600116156101000203166002900490600052602060002090601f016020900481019282601f106200018d57805160ff1916838001178555620001be565b82800160010185558215620001be579182015b82811115620001bd578251825591602001919060010190620001a0565b5b509050620001cd9190620001d1565b5090565b620001f691905b80821115620001f2576000816000905550600101620001d8565b5090565b90565b61191180620002096000396000f3006080604052600436106100d0576000357c0100000000000000000000000000000000000000000000000000000000900463ffffffff1680630b238961146100df57806310f0d44f1461016f57806325877c09146101ff578063365fd9821461027257806338cc48311461029d57806344b7eda1146102f457806379833e521461031f5780637d57de8c146103af5780638004f9fa146103f2578063893d20e81461044a578063c486456c146104a1578063cb13dd2c146104da578063cc6cb19a1461056a578063f9b11db7146105c1575b3480156100dc57600080fd5b50005b3480156100eb57600080fd5b506100f461066c565b6040518080602001828103825283818151815260200191508051906020019080838360005b83811015610134578082015181840152602081019050610119565b50505050905090810190601f1680156101615780820380516001836020036101000a031916815260200191505b509250505060405180910390f35b34801561017b57600080fd5b5061018461070e565b6040518080602001828103825283818151815260200191508051906020019080838360005b838110156101c45780820151818401526020810190506101a9565b50505050905090810190601f1680156101f15780820380516001836020036101000a031916815260200191505b509250505060405180910390f35b34801561020b57600080fd5b5061027060048036038101908080359060200190929190803590602001908201803590602001908080601f01602080910402602001604051908101604052809392919081815260200183838082843782019150505050505091929192905050506107b0565b005b34801561027e57600080fd5b50610287610965565b6040518082815260200191505060405180910390f35b3480156102a957600080fd5b506102b26109ac565b604051808273ffffffffffffffffffffffffffffffffffffffff1673ffffffffffffffffffffffffffffffffffffffff16815260200191505060405180910390f35b34801561030057600080fd5b506103096109b4565b6040518082815260200191505060405180910390f35b34801561032b57600080fd5b506103346109be565b6040518080602001828103825283818151815260200191508051906020019080838360005b83811015610374578082015181840152602081019050610359565b50505050905090810190601f1680156103a15780820380516001836020036101000a031916815260200191505b509250505060405180910390f35b3480156103bb57600080fd5b506103f0600480360381019080803573ffffffffffffffffffffffffffffffffffffffff169060200190929190505050610a60565b005b61043060048036038101908080359060200190929190803573ffffffffffffffffffffffffffffffffffffffff169060200190929190505050610ae5565b604051808215151515815260200191505060405180910390f35b34801561045657600080fd5b5061045f610e79565b604051808273ffffffffffffffffffffffffffffffffffffffff1673ffffffffffffffffffffffffffffffffffffffff16815260200191505060405180910390f35b3480156104ad57600080fd5b506104b6610ea3565b604051808260018111156104c657fe5b60ff16815260200191505060405180910390f35b3480156104e657600080fd5b506104ef610eb6565b6040518080602001828103825283818151815260200191508051906020019080838360005b8381101561052f578082015181840152602081019050610514565b50505050905090810190601f16801561055c5780820380516001836020036101000a031916815260200191505b509250505060405180910390f35b34801561057657600080fd5b506105ab600480360381019080803573ffffffffffffffffffffffffffffffffffffffff169060200190929190505050610f58565b6040518082815260200191505060405180910390f35b3480156105cd57600080fd5b5061065260048036038101908080359060200190929190803590602001908201803590602001908080601f0160208091040260200160405190810160405280939291908181526020018383808284378201915050505050509192919290803573ffffffffffffffffffffffffffffffffffffffff169060200190929190505050610f70565b604051808215151515815260200191505060405180910390f35b606060018054600181600116156101000203166002900480601f0160208091040260200160405190810160405280929190818152602001828054600181600116156101000203166002900480156107045780601f106106d957610100808354040283529160200191610704565b820191906000526020600020905b8154815290600101906020018083116106e757829003601f168201915b5050505050905090565b606060008054600181600116156101000203166002900480601f0160208091040260200160405190810160405280929190818152602001828054600181600116156101000203166002900480156107a65780601f1061077b576101008083540402835291602001916107a6565b820191906000526020600020905b81548152906001019060200180831161078957829003601f168201915b5050505050905090565b6006600960009054906101000a900473ffffffffffffffffffffffffffffffffffffffff1673ffffffffffffffffffffffffffffffffffffffff1663f76f950e846040518263ffffffff167c010000000000000000000000000000000000000000000000000000000002815260040180828152602001915050600060405180830381600087803b15801561084357600080fd5b505af1158015610857573d6000803e3d6000fd5b505050506040513d6000823e3d601f19601f82011682018060405250602081101561088157600080fd5b81019080805164010000000081111561089957600080fd5b828101905060208101848111156108af57600080fd5b81518560018202830111640100000000821117156108cc57600080fd5b5050929190505050908060018154018082558091505090600182039060005260206000200160009091929091909150908051906020019061090e929190611840565b5050600781908060018154018082558091505090600182039060005260206000200160009091929091909150908051906020019061094d929190611840565b50506008600081548092919060010191905055505050565b6000600560003373ffffffffffffffffffffffffffffffffffffffff1673ffffffffffffffffffffffffffffffffffffffff16815260200190815260200160002054905090565b600030905090565b6000600254905090565b60606000600854111515610a1457610a0d6000806040805190810160405280601781526020017f7472616e73616374696f6e4465736372697074696f6e73000000000000000000815250611115565b9050610a5d565b610a5a60006001600854036040805190810160405280601781526020017f7472616e73616374696f6e4465736372697074696f6e73000000000000000000815250611115565b90505b90565b80600360009054906101000a900473ffffffffffffffffffffffffffffffffffffffff1673ffffffffffffffffffffffffffffffffffffffff168173ffffffffffffffffffffffffffffffffffffffff16141515610abd57600080fd5b6001600960146101000a81548160ff02191690836001811115610adc57fe5b02179055505050565b600080600960149054906101000a900460ff166001811115610b0357fe5b60006001811115610b1057fe5b141515610b1c57600080fd5b83600560008573ffffffffffffffffffffffffffffffffffffffff1673ffffffffffffffffffffffffffffffffffffffff168152602001908152602001600020540190506000600560008573ffffffffffffffffffffffffffffffffffffffff1673ffffffffffffffffffffffffffffffffffffffff168152602001908152602001600020541115610bf15780600560008573ffffffffffffffffffffffffffffffffffffffff1673ffffffffffffffffffffffffffffffffffffffff16815260200190815260200160002081905550610c9c565b80600560008573ffffffffffffffffffffffffffffffffffffffff1673ffffffffffffffffffffffffffffffffffffffff1681526020019081526020016000208190555060048390806001815401808255809150509060018203906000526020600020016000909192909190916101000a81548173ffffffffffffffffffffffffffffffffffffffff021916908373ffffffffffffffffffffffffffffffffffffffff160217905550505b83600260008282540192505081905550610e0384600960009054906101000a900473ffffffffffffffffffffffffffffffffffffffff1673ffffffffffffffffffffffffffffffffffffffff16632c6e7598866040518263ffffffff167c0100000000000000000000000000000000000000000000000000000000028152600401808273ffffffffffffffffffffffffffffffffffffffff1673ffffffffffffffffffffffffffffffffffffffff168152602001915050600060405180830381600087803b158015610d6d57600080fd5b505af1158015610d81573d6000803e3d6000fd5b505050506040513d6000823e3d601f19601f820116820180604052506020811015610dab57600080fd5b810190808051640100000000811115610dc357600080fd5b82810190506020810184811115610dd957600080fd5b8151856001820283011164010000000082111715610df657600080fd5b50509291905050506107b0565b7f4a738e144fcebc2a2453dde8472c2fe125988d7508d635d71a45886efcf500063334604051808373ffffffffffffffffffffffffffffffffffffffff1673ffffffffffffffffffffffffffffffffffffffff1681526020018281526020019250505060405180910390a1600191505092915050565b6000600360009054906101000a900473ffffffffffffffffffffffffffffffffffffffff16905090565b600960149054906101000a900460ff1681565b60606000600854111515610f0c57610f056000806040805190810160405280601281526020017f7472616e73616374696f6e416d6f756e74730000000000000000000000000000815250611115565b9050610f55565b610f5260006001600854036040805190810160405280601281526020017f7472616e73616374696f6e416d6f756e74730000000000000000000000000000815250611115565b90505b90565b60056020528060005260406000206000915090505481565b600081600360009054906101000a900473ffffffffffffffffffffffffffffffffffffffff1673ffffffffffffffffffffffffffffffffffffffff168173ffffffffffffffffffffffffffffffffffffffff16141515610fcf57600080fd5b8460025410151515610fe057600080fd5b610fea85856107b0565b3373ffffffffffffffffffffffffffffffffffffffff166108fc869081150290604051600060405180830381858888f19350505050158015611030573d6000803e3d6000fd5b507fe06a6d1c7f674346f19f69fd037afee6c37e69d5b2dbd7b436526737169c0507338686604051808473ffffffffffffffffffffffffffffffffffffffff1673ffffffffffffffffffffffffffffffffffffffff16815260200183815260200180602001828103825283818151815260200191508051906020019080838360005b838110156110cd5780820151818401526020810190506110b2565b50505050905090810190601f1680156110fa5780820380516001836020036101000a031916815260200191505b5094505050505060405180910390a160019150509392505050565b6060600080606080600060069450600960009054906101000a900473ffffffffffffffffffffffffffffffffffffffff1673ffffffffffffffffffffffffffffffffffffffff1663bed34bba886040518263ffffffff167c0100000000000000000000000000000000000000000000000000000000028152600401808060200180602001838103835284818151815260200191508051906020019080838360005b838110156111d15780820151818401526020810190506111b6565b50505050905090810190601f1680156111fe5780820380516001836020036101000a031916815260200191505b50838103825260128152602001807f7472616e73616374696f6e416d6f756e747300000000000000000000000000008152506020019350505050602060405180830381600087803b15801561125257600080fd5b505af1158015611266573d6000803e3d6000fd5b505050506040513d602081101561127c57600080fd5b81019080805190602001909291905050501561129757600694505b600960009054906101000a900473ffffffffffffffffffffffffffffffffffffffff1673ffffffffffffffffffffffffffffffffffffffff1663bed34bba886040518263ffffffff167c0100000000000000000000000000000000000000000000000000000000028152600401808060200180602001838103835284818151815260200191508051906020019080838360005b8381101561134557808201518184015260208101905061132a565b50505050905090810190601f1680156113725780820380516001836020036101000a031916815260200191505b50838103825260178152602001807f7472616e73616374696f6e4465736372697074696f6e730000000000000000008152506020019350505050602060405180830381600087803b1580156113c657600080fd5b505af11580156113da573d6000803e3d6000fd5b505050506040513d60208110156113f057600080fd5b81019080805190602001909291905050501561140b57600794505b88881015151561141a57600080fd5b600185805490500388111561143457600185805490500397505b6001898903016040029350836040519080825280601f01601f1916602001820160405280156114725781602001602082028038833980820191505090505b50925060206040519080825280601f01601f1916602001820160405280156114a95781602001602082028038833980820191505090505b5091508890505b87811115156118315784818154811015156114c757fe5b906000526020600020018054600181600116156101000203166002900480601f0160208091040260200160405190810160405280929190818152602001828054600181600116156101000203166002900480156115655780601f1061153a57610100808354040283529160200191611565565b820191906000526020600020905b81548152906001019060200180831161154857829003601f168201915b50505050509150600960009054906101000a900473ffffffffffffffffffffffffffffffffffffffff1673ffffffffffffffffffffffffffffffffffffffff1663917a781f8584866040518463ffffffff167c0100000000000000000000000000000000000000000000000000000000028152600401808481526020018060200180602001838103835285818151815260200191508051906020019080838360005b83811015611622578082015181840152602081019050611607565b50505050905090810190601f16801561164f5780820380516001836020036101000a031916815260200191505b50838103825284818151815260200191508051906020019080838360005b8381101561168857808201518184015260208101905061166d565b50505050905090810190601f1680156116b55780820380516001836020036101000a031916815260200191505b5095505050505050600060405180830381600087803b1580156116d757600080fd5b505af11580156116eb573d6000803e3d6000fd5b50505050600960009054906101000a900473ffffffffffffffffffffffffffffffffffffffff1673ffffffffffffffffffffffffffffffffffffffff1663a5847862836040518263ffffffff167c01000000000000000000000000000000000000000000000000000000000281526004018080602001828103825283818151815260200191508051906020019080838360005b8381101561179957808201518184015260208101905061177e565b50505050905090810190601f1680156117c65780820380516001836020036101000a031916815260200191505b5092505050602060405180830381600087803b1580156117e557600080fd5b505af11580156117f9573d6000803e3d6000fd5b505050506040513d602081101561180f57600080fd5b81019080805190602001909291905050508403935080806001019150506114b0565b82955050505050509392505050565b828054600181600116156101000203166002900490600052602060002090601f016020900481019282601f1061188157805160ff19168380011785556118af565b828001600101855582156118af579182015b828111156118ae578251825591602001919060010190611893565b5b5090506118bc91906118c0565b5090565b6118e291905b808211156118de5760008160009055506001016118c6565b5090565b905600a165627a7a723058206e3620a639be13360ce1f324c5e8be48e6f18bd2b8c03585429017388d567c9b0029a165627a7a723058209dcaf1418da5a0025a46e9a4c5de234858e76921211590821bda5df558949b240029608060405234801561001057600080fd5b50610f71806100206000396000f300608060405260043610610083576000357c0100000000000000000000000000000000000000000000000000000000900463ffffffff1680632c6e7598146100885780634112987c1461014457806369f9ad2f146102b2578063917a781f14610359578063a584786214610412578063bed34bba1461048f578063f76f950e14610556575b600080fd5b34801561009457600080fd5b506100c9600480360381019080803573ffffffffffffffffffffffffffffffffffffffff1690602001909291905050506105fc565b6040518080602001828103825283818151815260200191508051906020019080838360005b838110156101095780820151818401526020810190506100ee565b50505050905090810190601f1680156101365780820380516001836020036101000a031916815260200191505b509250505060405180910390f35b34801561015057600080fd5b50610237600480360381019080803590602001908201803590602001908080601f0160208091040260200160405190810160405280939291908181526020018383808284378201915050505050509192919290803590602001908201803590602001908080601f0160208091040260200160405190810160405280939291908181526020018383808284378201915050505050509192919290803590602001908201803590602001908080601f0160208091040260200160405190810160405280939291908181526020018383808284378201915050505050509192919290505050610811565b6040518080602001828103825283818151815260200191508051906020019080838360005b8381101561027757808201518184015260208101905061025c565b50505050905090810190601f1680156102a45780820380516001836020036101000a031916815260200191505b509250505060405180910390f35b3480156102be57600080fd5b506102ff60048036038101908080357effffffffffffffffffffffffffffffffffffffffffffffffffffffffffffff19169060200190929190505050610aa3565b60405180827effffffffffffffffffffffffffffffffffffffffffffffffffffffffffffff19167effffffffffffffffffffffffffffffffffffffffffffffffffffffffffffff1916815260200191505060405180910390f35b34801561036557600080fd5b5061041060048036038101908080359060200190929190803590602001908201803590602001908080601f0160208091040260200160405190810160405280939291908181526020018383808284378201915050505050509192919290803590602001908201803590602001908080601f0160208091040260200160405190810160405280939291908181526020018383808284378201915050505050509192919290505050610b93565b005b34801561041e57600080fd5b50610479600480360381019080803590602001908201803590602001908080601f0160208091040260200160405190810160405280939291908181526020018383808284378201915050505050509192919290505050610bf8565b6040518082815260200191505060405180910390f35b34801561049b57600080fd5b5061053c600480360381019080803590602001908201803590602001908080601f0160208091040260200160405190810160405280939291908181526020018383808284378201915050505050509192919290803590602001908201803590602001908080601f0160208091040260200160405190810160405280939291908181526020018383808284378201915050505050509192919290505050610c3d565b604051808215151515815260200191505060405180910390f35b34801561056257600080fd5b5061058160048036038101908080359060200190929190505050610dee565b6040518080602001828103825283818151815260200191508051906020019080838360005b838110156105c15780820151818401526020810190506105a6565b50505050905090810190601f1680156105ee5780820380516001836020036101000a031916815260200191505b509250505060405180910390f35b60608060008060008060286040519080825280601f01601f1916602001820160405280156106395781602001602082028038833980820191505090505b509450600093505b6014841015610804578360130360080260020a8773ffffffffffffffffffffffffffffffffffffffff1681151561067457fe5b047f01000000000000000000000000000000000000000000000000000000000000000292506010837f0100000000000000000000000000000000000000000000000000000000000000900460ff168115156106cb57fe5b047f0100000000000000000000000000000000000000000000000000000000000000029150817f01000000000000000000000000000000000000000000000000000000000000009004601002837f01000000000000000000000000000000000000000000000000000000000000009004037f010000000000000000000000000000000000000000000000000000000000000002905061076982610aa3565b858560020281518110151561077a57fe5b9060200101907effffffffffffffffffffffffffffffffffffffffffffffffffffffffffffff1916908160001a9053506107b381610aa3565b85600186600202018151811015156107c757fe5b9060200101907effffffffffffffffffffffffffffffffffffffffffffffffffffffffffffff1916908160001a9053508380600101945050610641565b8495505050505050919050565b6060806060806060806000808a965089955088945084518651885101016040519080825280601f01601f1916602001820160405280156108605781602001602082028038833980820191505090505b50935083925060009150600090505b865181101561092257868181518110151561088657fe5b9060200101517f010000000000000000000000000000000000000000000000000000000000000090047f01000000000000000000000000000000000000000000000000000000000000000283838060010194508151811015156108e557fe5b9060200101907effffffffffffffffffffffffffffffffffffffffffffffffffffffffffffff1916908160001a905350808060010191505061086f565b600090505b85518110156109da57858181518110151561093e57fe5b9060200101517f010000000000000000000000000000000000000000000000000000000000000090047f010000000000000000000000000000000000000000000000000000000000000002838380600101945081518110151561099d57fe5b9060200101907effffffffffffffffffffffffffffffffffffffffffffffffffffffffffffff1916908160001a9053508080600101915050610927565b600090505b8451811015610a925784818151811015156109f657fe5b9060200101517f010000000000000000000000000000000000000000000000000000000000000090047f0100000000000000000000000000000000000000000000000000000000000000028383806001019450815181101515610a5557fe5b9060200101907effffffffffffffffffffffffffffffffffffffffffffffffffffffffffffff1916908160001a90535080806001019150506109df565b829750505050505050509392505050565b6000600a7f010000000000000000000000000000000000000000000000000000000000000002827effffffffffffffffffffffffffffffffffffffffffffffffffffffffffffff19161015610b42576030827f01000000000000000000000000000000000000000000000000000000000000009004017f0100000000000000000000000000000000000000000000000000000000000000029050610b8e565b6057827f01000000000000000000000000000000000000000000000000000000000000009004017f01000000000000000000000000000000000000000000000000000000000000000290505b919050565b600060208351811515610ba257fe5b049050600060208451811515610bb457fe5b061115610bc45780806001019150505b60018101905060005b81811015610bf1576020810284015185840152602085039450600181019050610bcd565b5050505050565b600060208251811515610c0757fe5b049050600060208351811515610c1957fe5b06141515610c2a5780806001019150505b8080600101915050602081029050919050565b6000816040516020018082805190602001908083835b602083101515610c785780518252602082019150602081019050602083039250610c53565b6001836020036101000a0380198251168184511680821785525050505050509050019150506040516020818303038152906040526040518082805190602001908083835b602083101515610ce15780518252602082019150602081019050602083039250610cbc565b6001836020036101000a038019825116818451168082178552505050505050905001915050604051809103902060001916836040516020018082805190602001908083835b602083101515610d4b5780518252602082019150602081019050602083039250610d26565b6001836020036101000a0380198251168184511680821785525050505050509050019150506040516020818303038152906040526040518082805190602001908083835b602083101515610db45780518252602082019150602081019050602083039250610d8f565b6001836020036101000a03801982511681845116808217855250505050505090500191505060405180910390206000191614905092915050565b60606000806060600080861415610e3c576040805190810160405280600181526020017f30000000000000000000000000000000000000000000000000000000000000008152509450610f3c565b8593505b600084141515610e66578280600101935050600a84811515610e5e57fe5b049350610e40565b826040519080825280601f01601f191660200182016040528015610e995781602001602082028038833980820191505090505b5091506001830390505b600086141515610f3857600a86811515610eb957fe5b066030017f010000000000000000000000000000000000000000000000000000000000000002828280600190039350815181101515610ef457fe5b9060200101907effffffffffffffffffffffffffffffffffffffffffffffffffffffffffffff1916908160001a905350600a86811515610f3057fe5b049550610ea3565b8194505b505050509190505600a165627a7a72305820a56638cad0ca886c71dced95eb1b09b38e362744c5b442d0c31e04f12a3c14df0029",
  "source": "pragma solidity ^0.4.25;\n\nimport './Charity.sol';\nimport './Helpers.sol';\n\ncontract CharitableDonations {\n\tmapping(string => address) charityNameToContractAddr;\n\tmapping(string => Charity) charityNameToCharityObject;\n\tmapping(address => string[]) userAddrToCharityName;\n\tuint charityCount;\n\tCharity[] charities;\n\tstring charityNamesRet;\n\tHelpers h;\n\n\tconstructor() public {\n\t\th = new Helpers();\n\t}\n\n\tfunction deployCharity(string name, string description) public {\n\t\t//TODO Deploy charity contract (child) and add to mapping structures\n\n\t\t// Create charity\n\t\tCharity c = new Charity(name, description, msg.sender, h);\n\n\t\t// Add charity C to name to charity hashmap\n\t\tcharityNameToCharityObject[name] = c;\n\n\t\t// Add charity to charity array\n\t\tcharities.push(c);\n\n\t\t// Add charity address to name to charity address hashmap\n\t\tcharityNameToContractAddr[name] = address(c);\n\n\t\t// Increment charity count\n\t\tcharityCount++;\n\n\t\t// Add charity name to string array of charities owned by an address (hashmap)\n\t\tuserAddrToCharityName[msg.sender].push(name);\n\t}\n\n\t// Get all charity names as a single string with spaces\n\tfunction getCharityNames() public returns (string){\n\t\tfor (uint i = 0; i < charities.length; i++) {\n\t\t\tcharityNamesRet = h.strConcat(charityNamesRet, charities[i].getCharityName(), \" \");\n\t\t}\n\t\treturn charityNamesRet;\n\t}\n\n\t// Get all charity names from the msg.sender AS BYTES\n\tfunction getUsersCharitites() public view returns (bytes) {\n\t\tstring[] storage array = userAddrToCharityName[msg.sender];\n\t\tuint startindex = 0;\n\t\tuint endindex = array.length - 1;\n\t\trequire(endindex >= startindex);\n\n\t\t//64 byte is needed for safe storage of a single string.\n\t\t//((endindex - startindex) + 1) is the number of strings we want to pull out.\n\t\tuint offset = 64 * ((endindex - startindex) + 1);\n\n\t\tbytes memory buffer = new  bytes(offset);\n\t\tstring memory out1 = new string(32);\n\n\n\t\tfor (uint i = startindex; i <= endindex; i++) {\n\t\t\tout1 = array[i];\n\n\t\t\th.stringToBytes(offset, bytes(out1), buffer);\n\t\t\toffset -= h.sizeOfString(out1);\n\t\t}\n\n\t\treturn (buffer);\n\t}\n\n\t// Get total number of charities\n\tfunction getNumCharities() public view returns (uint) {\n\t\treturn charityCount;\n\t}\n\n\t// Get chairity address from charity name\n\tfunction getChairityAddress(string name) public view returns (address){\n\t\treturn charityNameToCharityObject[name].getAddress();\n\t}\n}",
  "sourcePath": "/Users/clairegoldstein/CODE/CS481a3-BlockChain/Final_project/Charity-Blockchain/contracts/CharitableDonations.sol",
  "compiler": {
    "name": "solc",
    "version": "0.4.25+commit.59dbf8f1.Emscripten.clang"
  },
  "schemaVersion": "3.0.6",
  "updatedAt": "2019-04-18T18:26:58.454Z",
  "devdoc": {
    "methods": {}
  },
  "userdoc": {
    "methods": {}
  }
}